{
  "contracts/vending.sol": {
    "VendingMachine": {
      "abi": [
        {
          "inputs": [
            {
              "internalType": "address",
              "name": "contractAddress",
              "type": "address"
            }
          ],
          "stateMutability": "nonpayable",
          "type": "constructor"
        },
        {
          "anonymous": false,
          "inputs": [
            {
              "indexed": false,
              "internalType": "address",
              "name": "from",
              "type": "address"
            },
            {
              "indexed": false,
              "internalType": "address",
              "name": "to",
              "type": "address"
            },
            {
              "indexed": false,
              "internalType": "uint256",
              "name": "value",
              "type": "uint256"
            }
          ],
          "name": "Transfer",
          "type": "event"
        },
        {
          "inputs": [
            {
              "internalType": "address",
              "name": "",
              "type": "address"
            }
          ],
          "name": "GamaToBalances",
          "outputs": [
            {
              "internalType": "uint256",
              "name": "",
              "type": "uint256"
            }
          ],
          "stateMutability": "view",
          "type": "function"
        },
        {
          "inputs": [],
          "name": "contractBalance",
          "outputs": [
            {
              "internalType": "uint256",
              "name": "",
              "type": "uint256"
            }
          ],
          "stateMutability": "view",
          "type": "function"
        },
        {
          "inputs": [],
          "name": "getBuyerBalanceGama",
          "outputs": [
            {
              "internalType": "uint256",
              "name": "GamaToken",
              "type": "uint256"
            }
          ],
          "stateMutability": "view",
          "type": "function"
        },
        {
          "inputs": [],
          "name": "getOwner",
          "outputs": [
            {
              "internalType": "address",
              "name": "",
              "type": "address"
            }
          ],
          "stateMutability": "view",
          "type": "function"
        },
        {
          "inputs": [],
          "name": "getVendingMachineBalanceGama",
          "outputs": [
            {
              "internalType": "uint256",
              "name": "GamaToken",
              "type": "uint256"
            }
          ],
          "stateMutability": "view",
          "type": "function"
        },
        {
          "inputs": [],
          "name": "getVendingMachingBalanceEth",
          "outputs": [
            {
              "internalType": "uint256",
              "name": "EthToken",
              "type": "uint256"
            }
          ],
          "stateMutability": "view",
          "type": "function"
        },
        {
          "inputs": [],
          "name": "owner2",
          "outputs": [
            {
              "internalType": "address",
              "name": "",
              "type": "address"
            }
          ],
          "stateMutability": "view",
          "type": "function"
        },
        {
          "inputs": [],
          "name": "ownerBalance",
          "outputs": [
            {
              "internalType": "uint256",
              "name": "",
              "type": "uint256"
            }
          ],
          "stateMutability": "view",
          "type": "function"
        },
        {
          "inputs": [
            {
              "internalType": "uint256",
              "name": "amount",
              "type": "uint256"
            }
          ],
          "name": "purchaseGama",
          "outputs": [],
          "stateMutability": "payable",
          "type": "function"
        },
        {
          "inputs": [],
          "name": "restockEth",
          "outputs": [],
          "stateMutability": "payable",
          "type": "function"
        },
        {
          "inputs": [],
          "name": "restockGama",
          "outputs": [],
          "stateMutability": "nonpayable",
          "type": "function"
        },
        {
          "inputs": [
            {
              "internalType": "uint256",
              "name": "amount",
              "type": "uint256"
            }
          ],
          "name": "sellingGama",
          "outputs": [],
          "stateMutability": "nonpayable",
          "type": "function"
        },
        {
          "inputs": [
            {
              "internalType": "uint256",
              "name": "newValue",
              "type": "uint256"
            }
          ],
          "name": "setGamaBuyValue",
          "outputs": [],
          "stateMutability": "nonpayable",
          "type": "function"
        },
        {
          "inputs": [
            {
              "internalType": "uint256",
              "name": "newValue",
              "type": "uint256"
            }
          ],
          "name": "setGamaSellValue",
          "outputs": [],
          "stateMutability": "nonpayable",
          "type": "function"
        },
        {
          "inputs": [
            {
              "internalType": "uint256",
              "name": "amountWithdraw",
              "type": "uint256"
            }
          ],
          "name": "toWithdraw",
          "outputs": [],
          "stateMutability": "payable",
          "type": "function"
        },
        {
          "inputs": [
            {
              "internalType": "uint256",
              "name": "amount",
              "type": "uint256"
            }
          ],
          "name": "weiToEther",
          "outputs": [
            {
              "internalType": "uint256",
              "name": "weiEther",
              "type": "uint256"
            }
          ],
          "stateMutability": "pure",
          "type": "function"
        }
      ],
      "evm": {
        "bytecode": {
          "linkReferences": {},
          "object": "60806040523480156200001157600080fd5b506040516200196b3803806200196b8339818101604052810190620000379190620000e6565b336000806101000a81548173ffffffffffffffffffffffffffffffffffffffff021916908373ffffffffffffffffffffffffffffffffffffffff1602179055506001600281905550600160038190555080600460006101000a81548173ffffffffffffffffffffffffffffffffffffffff021916908373ffffffffffffffffffffffffffffffffffffffff1602179055505062000160565b600081519050620000e08162000146565b92915050565b600060208284031215620000f957600080fd5b60006200010984828501620000cf565b91505092915050565b60006200011f8262000126565b9050919050565b600073ffffffffffffffffffffffffffffffffffffffff82169050919050565b620001518162000112565b81146200015d57600080fd5b50565b6117fb80620001706000396000f3fe6080604052600436106100f35760003560e01c80638b7afe2e1161008a578063a36b98ed11610059578063a36b98ed146102b7578063bedcf003146102e0578063d0eff8911461030b578063d973eec114610348576100f3565b80638b7afe2e1461021e57806392ab4dd41461024957806394a5a7b41461027257806399d5dcae1461029b576100f3565b806344ca7eec116100c657806344ca7eec14610160578063527097251461018b57806355c21a2b146101b6578063893d20e8146101f3576100f3565b80630d82c853146100f857806319ceb003146101145780632047478c1461011e57806334d2880914610149575b600080fd5b610112600480360381019061010d9190610f98565b610373565b005b61011c6104d1565b005b34801561012a57600080fd5b506101336105a4565b60405161014091906112cf565b60405180910390f35b34801561015557600080fd5b5061015e61060c565b005b34801561016c57600080fd5b50610175610859565b60405161018291906112cf565b60405180910390f35b34801561019757600080fd5b506101a06108a0565b6040516101ad919061113d565b60405180910390f35b3480156101c257600080fd5b506101dd60048036038101906101d89190610f46565b6108c4565b6040516101ea91906112cf565b60405180910390f35b3480156101ff57600080fd5b506102086108dc565b604051610215919061113d565b60405180910390f35b34801561022a57600080fd5b50610233610905565b60405161024091906112cf565b60405180910390f35b34801561025557600080fd5b50610270600480360381019061026b9190610f98565b61090d565b005b34801561027e57600080fd5b5061029960048036038101906102949190610f98565b610ad5565b005b6102b560048036038101906102b09190610f98565b610bb0565b005b3480156102c357600080fd5b506102de60048036038101906102d99190610f98565b610dc7565b005b3480156102ec57600080fd5b506102f5610ea2565b60405161030291906112cf565b60405180910390f35b34801561031757600080fd5b50610332600480360381019061032d9190610f98565b610ee2565b60405161033f91906112cf565b60405180910390f35b34801561035457600080fd5b5061035d610eff565b60405161036a91906112cf565b60405180910390f35b60008054906101000a900473ffffffffffffffffffffffffffffffffffffffff1673ffffffffffffffffffffffffffffffffffffffff163373ffffffffffffffffffffffffffffffffffffffff1614610401576040517f08c379a00000000000000000000000000000000000000000000000000000000081526004016103f89061124f565b60405180910390fd5b47811115610444576040517f08c379a000000000000000000000000000000000000000000000000000000000815260040161043b906111af565b60405180910390fd5b3373ffffffffffffffffffffffffffffffffffffffff166108fc61046783610ee2565b9081150290604051600060405180830381858888f19350505050158015610492573d6000803e3d6000fd5b507fddf252ad1be2c89b69c2b068fc378daa952ba7f163c4a11628f55a4df523b3ef3033836040516104c693929190611158565b60405180910390a150565b60008054906101000a900473ffffffffffffffffffffffffffffffffffffffff1673ffffffffffffffffffffffffffffffffffffffff163373ffffffffffffffffffffffffffffffffffffffff161461055f576040517f08c379a00000000000000000000000000000000000000000000000000000000081526004016105569061124f565b60405180910390fd5b600034116105a2576040517f08c379a00000000000000000000000000000000000000000000000000000000081526004016105999061126f565b60405180910390fd5b565b6000600160008060009054906101000a900473ffffffffffffffffffffffffffffffffffffffff1673ffffffffffffffffffffffffffffffffffffffff1673ffffffffffffffffffffffffffffffffffffffff16815260200190815260200160002054905090565b60008054906101000a900473ffffffffffffffffffffffffffffffffffffffff1673ffffffffffffffffffffffffffffffffffffffff163373ffffffffffffffffffffffffffffffffffffffff161461069a576040517f08c379a00000000000000000000000000000000000000000000000000000000081526004016106919061124f565b60405180910390fd5b60326106a4610859565b106106e4576040517f08c379a00000000000000000000000000000000000000000000000000000000081526004016106db906111ef565b60405180910390fd5b60006103e890506000811161072e576040517f08c379a0000000000000000000000000000000000000000000000000000000008152600401610725906111cf565b60405180910390fd5b600460009054906101000a900473ffffffffffffffffffffffffffffffffffffffff1673ffffffffffffffffffffffffffffffffffffffff166323b872dd60008054906101000a900473ffffffffffffffffffffffffffffffffffffffff1630846040518463ffffffff1660e01b81526004016107ad93929190611158565b602060405180830381600087803b1580156107c757600080fd5b505af11580156107db573d6000803e3d6000fd5b505050506040513d601f19601f820116820180604052508101906107ff9190610f6f565b5080600160003073ffffffffffffffffffffffffffffffffffffffff1673ffffffffffffffffffffffffffffffffffffffff168152602001908152602001600020600082825461084f91906112fb565b9250508190555050565b6000600160003073ffffffffffffffffffffffffffffffffffffffff1673ffffffffffffffffffffffffffffffffffffffff16815260200190815260200160002054905090565b60008054906101000a900473ffffffffffffffffffffffffffffffffffffffff1681565b60016020528060005260406000206000915090505481565b60008060009054906101000a900473ffffffffffffffffffffffffffffffffffffffff16905090565b600047905090565b80600160003373ffffffffffffffffffffffffffffffffffffffff1673ffffffffffffffffffffffffffffffffffffffff16815260200190815260200160002054101561098f576040517f08c379a0000000000000000000000000000000000000000000000000000000008152600401610986906112af565b60405180910390fd5b80600160003373ffffffffffffffffffffffffffffffffffffffff1673ffffffffffffffffffffffffffffffffffffffff16815260200190815260200160002060008282546109de91906113dc565b9250508190555080600160003073ffffffffffffffffffffffffffffffffffffffff1673ffffffffffffffffffffffffffffffffffffffff1681526020019081526020016000206000828254610a3491906112fb565b925050819055503373ffffffffffffffffffffffffffffffffffffffff166108fc600354610a6184610ee2565b610a6b9190611382565b9081150290604051600060405180830381858888f19350505050158015610a96573d6000803e3d6000fd5b507fddf252ad1be2c89b69c2b068fc378daa952ba7f163c4a11628f55a4df523b3ef333083604051610aca93929190611158565b60405180910390a150565b60008054906101000a900473ffffffffffffffffffffffffffffffffffffffff1673ffffffffffffffffffffffffffffffffffffffff163373ffffffffffffffffffffffffffffffffffffffff1614610b63576040517f08c379a0000000000000000000000000000000000000000000000000000000008152600401610b5a9061124f565b60405180910390fd5b60008111610ba6576040517f08c379a0000000000000000000000000000000000000000000000000000000008152600401610b9d9061118f565b60405180910390fd5b8060038190555050565b6000670de0b6b3a764000034610bc69190611351565b90508160025482610bd79190611382565b14610c17576040517f08c379a0000000000000000000000000000000000000000000000000000000008152600401610c0e9061120f565b60405180910390fd5b60003411610c5a576040517f08c379a0000000000000000000000000000000000000000000000000000000008152600401610c519061128f565b60405180910390fd5b81600160003073ffffffffffffffffffffffffffffffffffffffff1673ffffffffffffffffffffffffffffffffffffffff168152602001908152602001600020541015610cdc576040517f08c379a0000000000000000000000000000000000000000000000000000000008152600401610cd39061122f565b60405180910390fd5b81600160003073ffffffffffffffffffffffffffffffffffffffff1673ffffffffffffffffffffffffffffffffffffffff1681526020019081526020016000206000828254610d2b91906113dc565b9250508190555081600160003373ffffffffffffffffffffffffffffffffffffffff1673ffffffffffffffffffffffffffffffffffffffff1681526020019081526020016000206000828254610d8191906112fb565b925050819055507fddf252ad1be2c89b69c2b068fc378daa952ba7f163c4a11628f55a4df523b3ef303384604051610dbb93929190611158565b60405180910390a15050565b60008054906101000a900473ffffffffffffffffffffffffffffffffffffffff1673ffffffffffffffffffffffffffffffffffffffff163373ffffffffffffffffffffffffffffffffffffffff1614610e55576040517f08c379a0000000000000000000000000000000000000000000000000000000008152600401610e4c9061124f565b60405180910390fd5b60008111610e98576040517f08c379a0000000000000000000000000000000000000000000000000000000008152600401610e8f9061118f565b60405180910390fd5b8060028190555050565b60008060009054906101000a900473ffffffffffffffffffffffffffffffffffffffff1673ffffffffffffffffffffffffffffffffffffffff1631905090565b6000670de0b6b3a764000082610ef89190611382565b9050919050565b600047905090565b600081359050610f1681611780565b92915050565b600081519050610f2b81611797565b92915050565b600081359050610f40816117ae565b92915050565b600060208284031215610f5857600080fd5b6000610f6684828501610f07565b91505092915050565b600060208284031215610f8157600080fd5b6000610f8f84828501610f1c565b91505092915050565b600060208284031215610faa57600080fd5b6000610fb884828501610f31565b91505092915050565b610fca81611410565b82525050565b6000610fdd6020836112ea565b9150610fe8826114b6565b602082019050919050565b6000611000601b836112ea565b915061100b826114df565b602082019050919050565b60006110236022836112ea565b915061102e82611508565b604082019050919050565b60006110466029836112ea565b915061105182611557565b604082019050919050565b60006110696041836112ea565b9150611074826115a6565b606082019050919050565b600061108c6036836112ea565b91506110978261161b565b604082019050919050565b60006110af601c836112ea565b91506110ba8261166a565b602082019050919050565b60006110d26023836112ea565b91506110dd82611693565b604082019050919050565b60006110f56021836112ea565b9150611100826116e2565b604082019050919050565b60006111186024836112ea565b915061112382611731565b604082019050919050565b6111378161144e565b82525050565b60006020820190506111526000830184610fc1565b92915050565b600060608201905061116d6000830186610fc1565b61117a6020830185610fc1565b611187604083018461112e565b949350505050565b600060208201905081810360008301526111a881610fd0565b9050919050565b600060208201905081810360008301526111c881610ff3565b9050919050565b600060208201905081810360008301526111e881611016565b9050919050565b6000602082019050818103600083015261120881611039565b9050919050565b600060208201905081810360008301526112288161105c565b9050919050565b600060208201905081810360008301526112488161107f565b9050919050565b60006020820190508181036000830152611268816110a2565b9050919050565b60006020820190508181036000830152611288816110c5565b9050919050565b600060208201905081810360008301526112a8816110e8565b9050919050565b600060208201905081810360008301526112c88161110b565b9050919050565b60006020820190506112e4600083018461112e565b92915050565b600082825260208201905092915050565b60006113068261144e565b91506113118361144e565b9250827fffffffffffffffffffffffffffffffffffffffffffffffffffffffffffffffff0382111561134657611345611458565b5b828201905092915050565b600061135c8261144e565b91506113678361144e565b92508261137757611376611487565b5b828204905092915050565b600061138d8261144e565b91506113988361144e565b9250817fffffffffffffffffffffffffffffffffffffffffffffffffffffffffffffffff04831182151516156113d1576113d0611458565b5b828202905092915050565b60006113e78261144e565b91506113f28361144e565b92508282101561140557611404611458565b5b828203905092915050565b600061141b8261142e565b9050919050565b60008115159050919050565b600073ffffffffffffffffffffffffffffffffffffffff82169050919050565b6000819050919050565b7f4e487b7100000000000000000000000000000000000000000000000000000000600052601160045260246000fd5b7f4e487b7100000000000000000000000000000000000000000000000000000000600052601260045260246000fd5b7f4e65772076616c7565206d75737420626520686967686572207468616e20302e600082015250565b7f4e6f7420656e6f7567682065746820746f2077697468647261772e0000000000600082015250565b7f596f752063616e277420726573746f636b2030206f72206c6573732047616d6160008201527f732e000000000000000000000000000000000000000000000000000000000000602082015250565b7f596f75206e65656420746f2068617665206c657373207468616e20353020746f60008201527f20726573746f636b2e0000000000000000000000000000000000000000000000602082015250565b7f506c65617365207175616e74697479206f6620657468657273206d757374206260008201527f652070726f706f7274696f6e616c20746f20746865207072696365207261746960208201527f6f00000000000000000000000000000000000000000000000000000000000000604082015250565b7f4e6f7420656e6f7567682047616d617320696e2073746f636b20746f2066756c60008201527f66696c6c20707572636861736520726571756573742e00000000000000000000602082015250565b7f4f6e6c7920746865206f6e7765722063616e206d616b65207468697300000000600082015250565b7f596f752063616e277420726573746f636b2030206f72206c657373204574686560008201527f72732e0000000000000000000000000000000000000000000000000000000000602082015250565b7f4572726f2c206e6f7420656e6f7567682065746865727320746f20747261646560008201527f2e00000000000000000000000000000000000000000000000000000000000000602082015250565b7f4e6f7420656e6f7567682047616d617320746f20747261646520666f7220657460008201527f6865722e00000000000000000000000000000000000000000000000000000000602082015250565b61178981611410565b811461179457600080fd5b50565b6117a081611422565b81146117ab57600080fd5b50565b6117b78161144e565b81146117c257600080fd5b5056fea2646970667358221220d24ac7930848943b503d8e07d81059fd7b9ca5f26466c0663346311e7653a8ec64736f6c63430008040033",
          "opcodes": "PUSH1 0x80 PUSH1 0x40 MSTORE CALLVALUE DUP1 ISZERO PUSH3 0x11 JUMPI PUSH1 0x0 DUP1 REVERT JUMPDEST POP PUSH1 0x40 MLOAD PUSH3 0x196B CODESIZE SUB DUP1 PUSH3 0x196B DUP4 CODECOPY DUP2 DUP2 ADD PUSH1 0x40 MSTORE DUP2 ADD SWAP1 PUSH3 0x37 SWAP2 SWAP1 PUSH3 0xE6 JUMP JUMPDEST CALLER PUSH1 0x0 DUP1 PUSH2 0x100 EXP DUP2 SLOAD DUP2 PUSH20 0xFFFFFFFFFFFFFFFFFFFFFFFFFFFFFFFFFFFFFFFF MUL NOT AND SWAP1 DUP4 PUSH20 0xFFFFFFFFFFFFFFFFFFFFFFFFFFFFFFFFFFFFFFFF AND MUL OR SWAP1 SSTORE POP PUSH1 0x1 PUSH1 0x2 DUP2 SWAP1 SSTORE POP PUSH1 0x1 PUSH1 0x3 DUP2 SWAP1 SSTORE POP DUP1 PUSH1 0x4 PUSH1 0x0 PUSH2 0x100 EXP DUP2 SLOAD DUP2 PUSH20 0xFFFFFFFFFFFFFFFFFFFFFFFFFFFFFFFFFFFFFFFF MUL NOT AND SWAP1 DUP4 PUSH20 0xFFFFFFFFFFFFFFFFFFFFFFFFFFFFFFFFFFFFFFFF AND MUL OR SWAP1 SSTORE POP POP PUSH3 0x160 JUMP JUMPDEST PUSH1 0x0 DUP2 MLOAD SWAP1 POP PUSH3 0xE0 DUP2 PUSH3 0x146 JUMP JUMPDEST SWAP3 SWAP2 POP POP JUMP JUMPDEST PUSH1 0x0 PUSH1 0x20 DUP3 DUP5 SUB SLT ISZERO PUSH3 0xF9 JUMPI PUSH1 0x0 DUP1 REVERT JUMPDEST PUSH1 0x0 PUSH3 0x109 DUP5 DUP3 DUP6 ADD PUSH3 0xCF JUMP JUMPDEST SWAP2 POP POP SWAP3 SWAP2 POP POP JUMP JUMPDEST PUSH1 0x0 PUSH3 0x11F DUP3 PUSH3 0x126 JUMP JUMPDEST SWAP1 POP SWAP2 SWAP1 POP JUMP JUMPDEST PUSH1 0x0 PUSH20 0xFFFFFFFFFFFFFFFFFFFFFFFFFFFFFFFFFFFFFFFF DUP3 AND SWAP1 POP SWAP2 SWAP1 POP JUMP JUMPDEST PUSH3 0x151 DUP2 PUSH3 0x112 JUMP JUMPDEST DUP2 EQ PUSH3 0x15D JUMPI PUSH1 0x0 DUP1 REVERT JUMPDEST POP JUMP JUMPDEST PUSH2 0x17FB DUP1 PUSH3 0x170 PUSH1 0x0 CODECOPY PUSH1 0x0 RETURN INVALID PUSH1 0x80 PUSH1 0x40 MSTORE PUSH1 0x4 CALLDATASIZE LT PUSH2 0xF3 JUMPI PUSH1 0x0 CALLDATALOAD PUSH1 0xE0 SHR DUP1 PUSH4 0x8B7AFE2E GT PUSH2 0x8A JUMPI DUP1 PUSH4 0xA36B98ED GT PUSH2 0x59 JUMPI DUP1 PUSH4 0xA36B98ED EQ PUSH2 0x2B7 JUMPI DUP1 PUSH4 0xBEDCF003 EQ PUSH2 0x2E0 JUMPI DUP1 PUSH4 0xD0EFF891 EQ PUSH2 0x30B JUMPI DUP1 PUSH4 0xD973EEC1 EQ PUSH2 0x348 JUMPI PUSH2 0xF3 JUMP JUMPDEST DUP1 PUSH4 0x8B7AFE2E EQ PUSH2 0x21E JUMPI DUP1 PUSH4 0x92AB4DD4 EQ PUSH2 0x249 JUMPI DUP1 PUSH4 0x94A5A7B4 EQ PUSH2 0x272 JUMPI DUP1 PUSH4 0x99D5DCAE EQ PUSH2 0x29B JUMPI PUSH2 0xF3 JUMP JUMPDEST DUP1 PUSH4 0x44CA7EEC GT PUSH2 0xC6 JUMPI DUP1 PUSH4 0x44CA7EEC EQ PUSH2 0x160 JUMPI DUP1 PUSH4 0x52709725 EQ PUSH2 0x18B JUMPI DUP1 PUSH4 0x55C21A2B EQ PUSH2 0x1B6 JUMPI DUP1 PUSH4 0x893D20E8 EQ PUSH2 0x1F3 JUMPI PUSH2 0xF3 JUMP JUMPDEST DUP1 PUSH4 0xD82C853 EQ PUSH2 0xF8 JUMPI DUP1 PUSH4 0x19CEB003 EQ PUSH2 0x114 JUMPI DUP1 PUSH4 0x2047478C EQ PUSH2 0x11E JUMPI DUP1 PUSH4 0x34D28809 EQ PUSH2 0x149 JUMPI JUMPDEST PUSH1 0x0 DUP1 REVERT JUMPDEST PUSH2 0x112 PUSH1 0x4 DUP1 CALLDATASIZE SUB DUP2 ADD SWAP1 PUSH2 0x10D SWAP2 SWAP1 PUSH2 0xF98 JUMP JUMPDEST PUSH2 0x373 JUMP JUMPDEST STOP JUMPDEST PUSH2 0x11C PUSH2 0x4D1 JUMP JUMPDEST STOP JUMPDEST CALLVALUE DUP1 ISZERO PUSH2 0x12A JUMPI PUSH1 0x0 DUP1 REVERT JUMPDEST POP PUSH2 0x133 PUSH2 0x5A4 JUMP JUMPDEST PUSH1 0x40 MLOAD PUSH2 0x140 SWAP2 SWAP1 PUSH2 0x12CF JUMP JUMPDEST PUSH1 0x40 MLOAD DUP1 SWAP2 SUB SWAP1 RETURN JUMPDEST CALLVALUE DUP1 ISZERO PUSH2 0x155 JUMPI PUSH1 0x0 DUP1 REVERT JUMPDEST POP PUSH2 0x15E PUSH2 0x60C JUMP JUMPDEST STOP JUMPDEST CALLVALUE DUP1 ISZERO PUSH2 0x16C JUMPI PUSH1 0x0 DUP1 REVERT JUMPDEST POP PUSH2 0x175 PUSH2 0x859 JUMP JUMPDEST PUSH1 0x40 MLOAD PUSH2 0x182 SWAP2 SWAP1 PUSH2 0x12CF JUMP JUMPDEST PUSH1 0x40 MLOAD DUP1 SWAP2 SUB SWAP1 RETURN JUMPDEST CALLVALUE DUP1 ISZERO PUSH2 0x197 JUMPI PUSH1 0x0 DUP1 REVERT JUMPDEST POP PUSH2 0x1A0 PUSH2 0x8A0 JUMP JUMPDEST PUSH1 0x40 MLOAD PUSH2 0x1AD SWAP2 SWAP1 PUSH2 0x113D JUMP JUMPDEST PUSH1 0x40 MLOAD DUP1 SWAP2 SUB SWAP1 RETURN JUMPDEST CALLVALUE DUP1 ISZERO PUSH2 0x1C2 JUMPI PUSH1 0x0 DUP1 REVERT JUMPDEST POP PUSH2 0x1DD PUSH1 0x4 DUP1 CALLDATASIZE SUB DUP2 ADD SWAP1 PUSH2 0x1D8 SWAP2 SWAP1 PUSH2 0xF46 JUMP JUMPDEST PUSH2 0x8C4 JUMP JUMPDEST PUSH1 0x40 MLOAD PUSH2 0x1EA SWAP2 SWAP1 PUSH2 0x12CF JUMP JUMPDEST PUSH1 0x40 MLOAD DUP1 SWAP2 SUB SWAP1 RETURN JUMPDEST CALLVALUE DUP1 ISZERO PUSH2 0x1FF JUMPI PUSH1 0x0 DUP1 REVERT JUMPDEST POP PUSH2 0x208 PUSH2 0x8DC JUMP JUMPDEST PUSH1 0x40 MLOAD PUSH2 0x215 SWAP2 SWAP1 PUSH2 0x113D JUMP JUMPDEST PUSH1 0x40 MLOAD DUP1 SWAP2 SUB SWAP1 RETURN JUMPDEST CALLVALUE DUP1 ISZERO PUSH2 0x22A JUMPI PUSH1 0x0 DUP1 REVERT JUMPDEST POP PUSH2 0x233 PUSH2 0x905 JUMP JUMPDEST PUSH1 0x40 MLOAD PUSH2 0x240 SWAP2 SWAP1 PUSH2 0x12CF JUMP JUMPDEST PUSH1 0x40 MLOAD DUP1 SWAP2 SUB SWAP1 RETURN JUMPDEST CALLVALUE DUP1 ISZERO PUSH2 0x255 JUMPI PUSH1 0x0 DUP1 REVERT JUMPDEST POP PUSH2 0x270 PUSH1 0x4 DUP1 CALLDATASIZE SUB DUP2 ADD SWAP1 PUSH2 0x26B SWAP2 SWAP1 PUSH2 0xF98 JUMP JUMPDEST PUSH2 0x90D JUMP JUMPDEST STOP JUMPDEST CALLVALUE DUP1 ISZERO PUSH2 0x27E JUMPI PUSH1 0x0 DUP1 REVERT JUMPDEST POP PUSH2 0x299 PUSH1 0x4 DUP1 CALLDATASIZE SUB DUP2 ADD SWAP1 PUSH2 0x294 SWAP2 SWAP1 PUSH2 0xF98 JUMP JUMPDEST PUSH2 0xAD5 JUMP JUMPDEST STOP JUMPDEST PUSH2 0x2B5 PUSH1 0x4 DUP1 CALLDATASIZE SUB DUP2 ADD SWAP1 PUSH2 0x2B0 SWAP2 SWAP1 PUSH2 0xF98 JUMP JUMPDEST PUSH2 0xBB0 JUMP JUMPDEST STOP JUMPDEST CALLVALUE DUP1 ISZERO PUSH2 0x2C3 JUMPI PUSH1 0x0 DUP1 REVERT JUMPDEST POP PUSH2 0x2DE PUSH1 0x4 DUP1 CALLDATASIZE SUB DUP2 ADD SWAP1 PUSH2 0x2D9 SWAP2 SWAP1 PUSH2 0xF98 JUMP JUMPDEST PUSH2 0xDC7 JUMP JUMPDEST STOP JUMPDEST CALLVALUE DUP1 ISZERO PUSH2 0x2EC JUMPI PUSH1 0x0 DUP1 REVERT JUMPDEST POP PUSH2 0x2F5 PUSH2 0xEA2 JUMP JUMPDEST PUSH1 0x40 MLOAD PUSH2 0x302 SWAP2 SWAP1 PUSH2 0x12CF JUMP JUMPDEST PUSH1 0x40 MLOAD DUP1 SWAP2 SUB SWAP1 RETURN JUMPDEST CALLVALUE DUP1 ISZERO PUSH2 0x317 JUMPI PUSH1 0x0 DUP1 REVERT JUMPDEST POP PUSH2 0x332 PUSH1 0x4 DUP1 CALLDATASIZE SUB DUP2 ADD SWAP1 PUSH2 0x32D SWAP2 SWAP1 PUSH2 0xF98 JUMP JUMPDEST PUSH2 0xEE2 JUMP JUMPDEST PUSH1 0x40 MLOAD PUSH2 0x33F SWAP2 SWAP1 PUSH2 0x12CF JUMP JUMPDEST PUSH1 0x40 MLOAD DUP1 SWAP2 SUB SWAP1 RETURN JUMPDEST CALLVALUE DUP1 ISZERO PUSH2 0x354 JUMPI PUSH1 0x0 DUP1 REVERT JUMPDEST POP PUSH2 0x35D PUSH2 0xEFF JUMP JUMPDEST PUSH1 0x40 MLOAD PUSH2 0x36A SWAP2 SWAP1 PUSH2 0x12CF JUMP JUMPDEST PUSH1 0x40 MLOAD DUP1 SWAP2 SUB SWAP1 RETURN JUMPDEST PUSH1 0x0 DUP1 SLOAD SWAP1 PUSH2 0x100 EXP SWAP1 DIV PUSH20 0xFFFFFFFFFFFFFFFFFFFFFFFFFFFFFFFFFFFFFFFF AND PUSH20 0xFFFFFFFFFFFFFFFFFFFFFFFFFFFFFFFFFFFFFFFF AND CALLER PUSH20 0xFFFFFFFFFFFFFFFFFFFFFFFFFFFFFFFFFFFFFFFF AND EQ PUSH2 0x401 JUMPI PUSH1 0x40 MLOAD PUSH32 0x8C379A000000000000000000000000000000000000000000000000000000000 DUP2 MSTORE PUSH1 0x4 ADD PUSH2 0x3F8 SWAP1 PUSH2 0x124F JUMP JUMPDEST PUSH1 0x40 MLOAD DUP1 SWAP2 SUB SWAP1 REVERT JUMPDEST SELFBALANCE DUP2 GT ISZERO PUSH2 0x444 JUMPI PUSH1 0x40 MLOAD PUSH32 0x8C379A000000000000000000000000000000000000000000000000000000000 DUP2 MSTORE PUSH1 0x4 ADD PUSH2 0x43B SWAP1 PUSH2 0x11AF JUMP JUMPDEST PUSH1 0x40 MLOAD DUP1 SWAP2 SUB SWAP1 REVERT JUMPDEST CALLER PUSH20 0xFFFFFFFFFFFFFFFFFFFFFFFFFFFFFFFFFFFFFFFF AND PUSH2 0x8FC PUSH2 0x467 DUP4 PUSH2 0xEE2 JUMP JUMPDEST SWAP1 DUP2 ISZERO MUL SWAP1 PUSH1 0x40 MLOAD PUSH1 0x0 PUSH1 0x40 MLOAD DUP1 DUP4 SUB DUP2 DUP6 DUP9 DUP9 CALL SWAP4 POP POP POP POP ISZERO DUP1 ISZERO PUSH2 0x492 JUMPI RETURNDATASIZE PUSH1 0x0 DUP1 RETURNDATACOPY RETURNDATASIZE PUSH1 0x0 REVERT JUMPDEST POP PUSH32 0xDDF252AD1BE2C89B69C2B068FC378DAA952BA7F163C4A11628F55A4DF523B3EF ADDRESS CALLER DUP4 PUSH1 0x40 MLOAD PUSH2 0x4C6 SWAP4 SWAP3 SWAP2 SWAP1 PUSH2 0x1158 JUMP JUMPDEST PUSH1 0x40 MLOAD DUP1 SWAP2 SUB SWAP1 LOG1 POP JUMP JUMPDEST PUSH1 0x0 DUP1 SLOAD SWAP1 PUSH2 0x100 EXP SWAP1 DIV PUSH20 0xFFFFFFFFFFFFFFFFFFFFFFFFFFFFFFFFFFFFFFFF AND PUSH20 0xFFFFFFFFFFFFFFFFFFFFFFFFFFFFFFFFFFFFFFFF AND CALLER PUSH20 0xFFFFFFFFFFFFFFFFFFFFFFFFFFFFFFFFFFFFFFFF AND EQ PUSH2 0x55F JUMPI PUSH1 0x40 MLOAD PUSH32 0x8C379A000000000000000000000000000000000000000000000000000000000 DUP2 MSTORE PUSH1 0x4 ADD PUSH2 0x556 SWAP1 PUSH2 0x124F JUMP JUMPDEST PUSH1 0x40 MLOAD DUP1 SWAP2 SUB SWAP1 REVERT JUMPDEST PUSH1 0x0 CALLVALUE GT PUSH2 0x5A2 JUMPI PUSH1 0x40 MLOAD PUSH32 0x8C379A000000000000000000000000000000000000000000000000000000000 DUP2 MSTORE PUSH1 0x4 ADD PUSH2 0x599 SWAP1 PUSH2 0x126F JUMP JUMPDEST PUSH1 0x40 MLOAD DUP1 SWAP2 SUB SWAP1 REVERT JUMPDEST JUMP JUMPDEST PUSH1 0x0 PUSH1 0x1 PUSH1 0x0 DUP1 PUSH1 0x0 SWAP1 SLOAD SWAP1 PUSH2 0x100 EXP SWAP1 DIV PUSH20 0xFFFFFFFFFFFFFFFFFFFFFFFFFFFFFFFFFFFFFFFF AND PUSH20 0xFFFFFFFFFFFFFFFFFFFFFFFFFFFFFFFFFFFFFFFF AND PUSH20 0xFFFFFFFFFFFFFFFFFFFFFFFFFFFFFFFFFFFFFFFF AND DUP2 MSTORE PUSH1 0x20 ADD SWAP1 DUP2 MSTORE PUSH1 0x20 ADD PUSH1 0x0 KECCAK256 SLOAD SWAP1 POP SWAP1 JUMP JUMPDEST PUSH1 0x0 DUP1 SLOAD SWAP1 PUSH2 0x100 EXP SWAP1 DIV PUSH20 0xFFFFFFFFFFFFFFFFFFFFFFFFFFFFFFFFFFFFFFFF AND PUSH20 0xFFFFFFFFFFFFFFFFFFFFFFFFFFFFFFFFFFFFFFFF AND CALLER PUSH20 0xFFFFFFFFFFFFFFFFFFFFFFFFFFFFFFFFFFFFFFFF AND EQ PUSH2 0x69A JUMPI PUSH1 0x40 MLOAD PUSH32 0x8C379A000000000000000000000000000000000000000000000000000000000 DUP2 MSTORE PUSH1 0x4 ADD PUSH2 0x691 SWAP1 PUSH2 0x124F JUMP JUMPDEST PUSH1 0x40 MLOAD DUP1 SWAP2 SUB SWAP1 REVERT JUMPDEST PUSH1 0x32 PUSH2 0x6A4 PUSH2 0x859 JUMP JUMPDEST LT PUSH2 0x6E4 JUMPI PUSH1 0x40 MLOAD PUSH32 0x8C379A000000000000000000000000000000000000000000000000000000000 DUP2 MSTORE PUSH1 0x4 ADD PUSH2 0x6DB SWAP1 PUSH2 0x11EF JUMP JUMPDEST PUSH1 0x40 MLOAD DUP1 SWAP2 SUB SWAP1 REVERT JUMPDEST PUSH1 0x0 PUSH2 0x3E8 SWAP1 POP PUSH1 0x0 DUP2 GT PUSH2 0x72E JUMPI PUSH1 0x40 MLOAD PUSH32 0x8C379A000000000000000000000000000000000000000000000000000000000 DUP2 MSTORE PUSH1 0x4 ADD PUSH2 0x725 SWAP1 PUSH2 0x11CF JUMP JUMPDEST PUSH1 0x40 MLOAD DUP1 SWAP2 SUB SWAP1 REVERT JUMPDEST PUSH1 0x4 PUSH1 0x0 SWAP1 SLOAD SWAP1 PUSH2 0x100 EXP SWAP1 DIV PUSH20 0xFFFFFFFFFFFFFFFFFFFFFFFFFFFFFFFFFFFFFFFF AND PUSH20 0xFFFFFFFFFFFFFFFFFFFFFFFFFFFFFFFFFFFFFFFF AND PUSH4 0x23B872DD PUSH1 0x0 DUP1 SLOAD SWAP1 PUSH2 0x100 EXP SWAP1 DIV PUSH20 0xFFFFFFFFFFFFFFFFFFFFFFFFFFFFFFFFFFFFFFFF AND ADDRESS DUP5 PUSH1 0x40 MLOAD DUP5 PUSH4 0xFFFFFFFF AND PUSH1 0xE0 SHL DUP2 MSTORE PUSH1 0x4 ADD PUSH2 0x7AD SWAP4 SWAP3 SWAP2 SWAP1 PUSH2 0x1158 JUMP JUMPDEST PUSH1 0x20 PUSH1 0x40 MLOAD DUP1 DUP4 SUB DUP2 PUSH1 0x0 DUP8 DUP1 EXTCODESIZE ISZERO DUP1 ISZERO PUSH2 0x7C7 JUMPI PUSH1 0x0 DUP1 REVERT JUMPDEST POP GAS CALL ISZERO DUP1 ISZERO PUSH2 0x7DB JUMPI RETURNDATASIZE PUSH1 0x0 DUP1 RETURNDATACOPY RETURNDATASIZE PUSH1 0x0 REVERT JUMPDEST POP POP POP POP PUSH1 0x40 MLOAD RETURNDATASIZE PUSH1 0x1F NOT PUSH1 0x1F DUP3 ADD AND DUP3 ADD DUP1 PUSH1 0x40 MSTORE POP DUP2 ADD SWAP1 PUSH2 0x7FF SWAP2 SWAP1 PUSH2 0xF6F JUMP JUMPDEST POP DUP1 PUSH1 0x1 PUSH1 0x0 ADDRESS PUSH20 0xFFFFFFFFFFFFFFFFFFFFFFFFFFFFFFFFFFFFFFFF AND PUSH20 0xFFFFFFFFFFFFFFFFFFFFFFFFFFFFFFFFFFFFFFFF AND DUP2 MSTORE PUSH1 0x20 ADD SWAP1 DUP2 MSTORE PUSH1 0x20 ADD PUSH1 0x0 KECCAK256 PUSH1 0x0 DUP3 DUP3 SLOAD PUSH2 0x84F SWAP2 SWAP1 PUSH2 0x12FB JUMP JUMPDEST SWAP3 POP POP DUP2 SWAP1 SSTORE POP POP JUMP JUMPDEST PUSH1 0x0 PUSH1 0x1 PUSH1 0x0 ADDRESS PUSH20 0xFFFFFFFFFFFFFFFFFFFFFFFFFFFFFFFFFFFFFFFF AND PUSH20 0xFFFFFFFFFFFFFFFFFFFFFFFFFFFFFFFFFFFFFFFF AND DUP2 MSTORE PUSH1 0x20 ADD SWAP1 DUP2 MSTORE PUSH1 0x20 ADD PUSH1 0x0 KECCAK256 SLOAD SWAP1 POP SWAP1 JUMP JUMPDEST PUSH1 0x0 DUP1 SLOAD SWAP1 PUSH2 0x100 EXP SWAP1 DIV PUSH20 0xFFFFFFFFFFFFFFFFFFFFFFFFFFFFFFFFFFFFFFFF AND DUP2 JUMP JUMPDEST PUSH1 0x1 PUSH1 0x20 MSTORE DUP1 PUSH1 0x0 MSTORE PUSH1 0x40 PUSH1 0x0 KECCAK256 PUSH1 0x0 SWAP2 POP SWAP1 POP SLOAD DUP2 JUMP JUMPDEST PUSH1 0x0 DUP1 PUSH1 0x0 SWAP1 SLOAD SWAP1 PUSH2 0x100 EXP SWAP1 DIV PUSH20 0xFFFFFFFFFFFFFFFFFFFFFFFFFFFFFFFFFFFFFFFF AND SWAP1 POP SWAP1 JUMP JUMPDEST PUSH1 0x0 SELFBALANCE SWAP1 POP SWAP1 JUMP JUMPDEST DUP1 PUSH1 0x1 PUSH1 0x0 CALLER PUSH20 0xFFFFFFFFFFFFFFFFFFFFFFFFFFFFFFFFFFFFFFFF AND PUSH20 0xFFFFFFFFFFFFFFFFFFFFFFFFFFFFFFFFFFFFFFFF AND DUP2 MSTORE PUSH1 0x20 ADD SWAP1 DUP2 MSTORE PUSH1 0x20 ADD PUSH1 0x0 KECCAK256 SLOAD LT ISZERO PUSH2 0x98F JUMPI PUSH1 0x40 MLOAD PUSH32 0x8C379A000000000000000000000000000000000000000000000000000000000 DUP2 MSTORE PUSH1 0x4 ADD PUSH2 0x986 SWAP1 PUSH2 0x12AF JUMP JUMPDEST PUSH1 0x40 MLOAD DUP1 SWAP2 SUB SWAP1 REVERT JUMPDEST DUP1 PUSH1 0x1 PUSH1 0x0 CALLER PUSH20 0xFFFFFFFFFFFFFFFFFFFFFFFFFFFFFFFFFFFFFFFF AND PUSH20 0xFFFFFFFFFFFFFFFFFFFFFFFFFFFFFFFFFFFFFFFF AND DUP2 MSTORE PUSH1 0x20 ADD SWAP1 DUP2 MSTORE PUSH1 0x20 ADD PUSH1 0x0 KECCAK256 PUSH1 0x0 DUP3 DUP3 SLOAD PUSH2 0x9DE SWAP2 SWAP1 PUSH2 0x13DC JUMP JUMPDEST SWAP3 POP POP DUP2 SWAP1 SSTORE POP DUP1 PUSH1 0x1 PUSH1 0x0 ADDRESS PUSH20 0xFFFFFFFFFFFFFFFFFFFFFFFFFFFFFFFFFFFFFFFF AND PUSH20 0xFFFFFFFFFFFFFFFFFFFFFFFFFFFFFFFFFFFFFFFF AND DUP2 MSTORE PUSH1 0x20 ADD SWAP1 DUP2 MSTORE PUSH1 0x20 ADD PUSH1 0x0 KECCAK256 PUSH1 0x0 DUP3 DUP3 SLOAD PUSH2 0xA34 SWAP2 SWAP1 PUSH2 0x12FB JUMP JUMPDEST SWAP3 POP POP DUP2 SWAP1 SSTORE POP CALLER PUSH20 0xFFFFFFFFFFFFFFFFFFFFFFFFFFFFFFFFFFFFFFFF AND PUSH2 0x8FC PUSH1 0x3 SLOAD PUSH2 0xA61 DUP5 PUSH2 0xEE2 JUMP JUMPDEST PUSH2 0xA6B SWAP2 SWAP1 PUSH2 0x1382 JUMP JUMPDEST SWAP1 DUP2 ISZERO MUL SWAP1 PUSH1 0x40 MLOAD PUSH1 0x0 PUSH1 0x40 MLOAD DUP1 DUP4 SUB DUP2 DUP6 DUP9 DUP9 CALL SWAP4 POP POP POP POP ISZERO DUP1 ISZERO PUSH2 0xA96 JUMPI RETURNDATASIZE PUSH1 0x0 DUP1 RETURNDATACOPY RETURNDATASIZE PUSH1 0x0 REVERT JUMPDEST POP PUSH32 0xDDF252AD1BE2C89B69C2B068FC378DAA952BA7F163C4A11628F55A4DF523B3EF CALLER ADDRESS DUP4 PUSH1 0x40 MLOAD PUSH2 0xACA SWAP4 SWAP3 SWAP2 SWAP1 PUSH2 0x1158 JUMP JUMPDEST PUSH1 0x40 MLOAD DUP1 SWAP2 SUB SWAP1 LOG1 POP JUMP JUMPDEST PUSH1 0x0 DUP1 SLOAD SWAP1 PUSH2 0x100 EXP SWAP1 DIV PUSH20 0xFFFFFFFFFFFFFFFFFFFFFFFFFFFFFFFFFFFFFFFF AND PUSH20 0xFFFFFFFFFFFFFFFFFFFFFFFFFFFFFFFFFFFFFFFF AND CALLER PUSH20 0xFFFFFFFFFFFFFFFFFFFFFFFFFFFFFFFFFFFFFFFF AND EQ PUSH2 0xB63 JUMPI PUSH1 0x40 MLOAD PUSH32 0x8C379A000000000000000000000000000000000000000000000000000000000 DUP2 MSTORE PUSH1 0x4 ADD PUSH2 0xB5A SWAP1 PUSH2 0x124F JUMP JUMPDEST PUSH1 0x40 MLOAD DUP1 SWAP2 SUB SWAP1 REVERT JUMPDEST PUSH1 0x0 DUP2 GT PUSH2 0xBA6 JUMPI PUSH1 0x40 MLOAD PUSH32 0x8C379A000000000000000000000000000000000000000000000000000000000 DUP2 MSTORE PUSH1 0x4 ADD PUSH2 0xB9D SWAP1 PUSH2 0x118F JUMP JUMPDEST PUSH1 0x40 MLOAD DUP1 SWAP2 SUB SWAP1 REVERT JUMPDEST DUP1 PUSH1 0x3 DUP2 SWAP1 SSTORE POP POP JUMP JUMPDEST PUSH1 0x0 PUSH8 0xDE0B6B3A7640000 CALLVALUE PUSH2 0xBC6 SWAP2 SWAP1 PUSH2 0x1351 JUMP JUMPDEST SWAP1 POP DUP2 PUSH1 0x2 SLOAD DUP3 PUSH2 0xBD7 SWAP2 SWAP1 PUSH2 0x1382 JUMP JUMPDEST EQ PUSH2 0xC17 JUMPI PUSH1 0x40 MLOAD PUSH32 0x8C379A000000000000000000000000000000000000000000000000000000000 DUP2 MSTORE PUSH1 0x4 ADD PUSH2 0xC0E SWAP1 PUSH2 0x120F JUMP JUMPDEST PUSH1 0x40 MLOAD DUP1 SWAP2 SUB SWAP1 REVERT JUMPDEST PUSH1 0x0 CALLVALUE GT PUSH2 0xC5A JUMPI PUSH1 0x40 MLOAD PUSH32 0x8C379A000000000000000000000000000000000000000000000000000000000 DUP2 MSTORE PUSH1 0x4 ADD PUSH2 0xC51 SWAP1 PUSH2 0x128F JUMP JUMPDEST PUSH1 0x40 MLOAD DUP1 SWAP2 SUB SWAP1 REVERT JUMPDEST DUP2 PUSH1 0x1 PUSH1 0x0 ADDRESS PUSH20 0xFFFFFFFFFFFFFFFFFFFFFFFFFFFFFFFFFFFFFFFF AND PUSH20 0xFFFFFFFFFFFFFFFFFFFFFFFFFFFFFFFFFFFFFFFF AND DUP2 MSTORE PUSH1 0x20 ADD SWAP1 DUP2 MSTORE PUSH1 0x20 ADD PUSH1 0x0 KECCAK256 SLOAD LT ISZERO PUSH2 0xCDC JUMPI PUSH1 0x40 MLOAD PUSH32 0x8C379A000000000000000000000000000000000000000000000000000000000 DUP2 MSTORE PUSH1 0x4 ADD PUSH2 0xCD3 SWAP1 PUSH2 0x122F JUMP JUMPDEST PUSH1 0x40 MLOAD DUP1 SWAP2 SUB SWAP1 REVERT JUMPDEST DUP2 PUSH1 0x1 PUSH1 0x0 ADDRESS PUSH20 0xFFFFFFFFFFFFFFFFFFFFFFFFFFFFFFFFFFFFFFFF AND PUSH20 0xFFFFFFFFFFFFFFFFFFFFFFFFFFFFFFFFFFFFFFFF AND DUP2 MSTORE PUSH1 0x20 ADD SWAP1 DUP2 MSTORE PUSH1 0x20 ADD PUSH1 0x0 KECCAK256 PUSH1 0x0 DUP3 DUP3 SLOAD PUSH2 0xD2B SWAP2 SWAP1 PUSH2 0x13DC JUMP JUMPDEST SWAP3 POP POP DUP2 SWAP1 SSTORE POP DUP2 PUSH1 0x1 PUSH1 0x0 CALLER PUSH20 0xFFFFFFFFFFFFFFFFFFFFFFFFFFFFFFFFFFFFFFFF AND PUSH20 0xFFFFFFFFFFFFFFFFFFFFFFFFFFFFFFFFFFFFFFFF AND DUP2 MSTORE PUSH1 0x20 ADD SWAP1 DUP2 MSTORE PUSH1 0x20 ADD PUSH1 0x0 KECCAK256 PUSH1 0x0 DUP3 DUP3 SLOAD PUSH2 0xD81 SWAP2 SWAP1 PUSH2 0x12FB JUMP JUMPDEST SWAP3 POP POP DUP2 SWAP1 SSTORE POP PUSH32 0xDDF252AD1BE2C89B69C2B068FC378DAA952BA7F163C4A11628F55A4DF523B3EF ADDRESS CALLER DUP5 PUSH1 0x40 MLOAD PUSH2 0xDBB SWAP4 SWAP3 SWAP2 SWAP1 PUSH2 0x1158 JUMP JUMPDEST PUSH1 0x40 MLOAD DUP1 SWAP2 SUB SWAP1 LOG1 POP POP JUMP JUMPDEST PUSH1 0x0 DUP1 SLOAD SWAP1 PUSH2 0x100 EXP SWAP1 DIV PUSH20 0xFFFFFFFFFFFFFFFFFFFFFFFFFFFFFFFFFFFFFFFF AND PUSH20 0xFFFFFFFFFFFFFFFFFFFFFFFFFFFFFFFFFFFFFFFF AND CALLER PUSH20 0xFFFFFFFFFFFFFFFFFFFFFFFFFFFFFFFFFFFFFFFF AND EQ PUSH2 0xE55 JUMPI PUSH1 0x40 MLOAD PUSH32 0x8C379A000000000000000000000000000000000000000000000000000000000 DUP2 MSTORE PUSH1 0x4 ADD PUSH2 0xE4C SWAP1 PUSH2 0x124F JUMP JUMPDEST PUSH1 0x40 MLOAD DUP1 SWAP2 SUB SWAP1 REVERT JUMPDEST PUSH1 0x0 DUP2 GT PUSH2 0xE98 JUMPI PUSH1 0x40 MLOAD PUSH32 0x8C379A000000000000000000000000000000000000000000000000000000000 DUP2 MSTORE PUSH1 0x4 ADD PUSH2 0xE8F SWAP1 PUSH2 0x118F JUMP JUMPDEST PUSH1 0x40 MLOAD DUP1 SWAP2 SUB SWAP1 REVERT JUMPDEST DUP1 PUSH1 0x2 DUP2 SWAP1 SSTORE POP POP JUMP JUMPDEST PUSH1 0x0 DUP1 PUSH1 0x0 SWAP1 SLOAD SWAP1 PUSH2 0x100 EXP SWAP1 DIV PUSH20 0xFFFFFFFFFFFFFFFFFFFFFFFFFFFFFFFFFFFFFFFF AND PUSH20 0xFFFFFFFFFFFFFFFFFFFFFFFFFFFFFFFFFFFFFFFF AND BALANCE SWAP1 POP SWAP1 JUMP JUMPDEST PUSH1 0x0 PUSH8 0xDE0B6B3A7640000 DUP3 PUSH2 0xEF8 SWAP2 SWAP1 PUSH2 0x1382 JUMP JUMPDEST SWAP1 POP SWAP2 SWAP1 POP JUMP JUMPDEST PUSH1 0x0 SELFBALANCE SWAP1 POP SWAP1 JUMP JUMPDEST PUSH1 0x0 DUP2 CALLDATALOAD SWAP1 POP PUSH2 0xF16 DUP2 PUSH2 0x1780 JUMP JUMPDEST SWAP3 SWAP2 POP POP JUMP JUMPDEST PUSH1 0x0 DUP2 MLOAD SWAP1 POP PUSH2 0xF2B DUP2 PUSH2 0x1797 JUMP JUMPDEST SWAP3 SWAP2 POP POP JUMP JUMPDEST PUSH1 0x0 DUP2 CALLDATALOAD SWAP1 POP PUSH2 0xF40 DUP2 PUSH2 0x17AE JUMP JUMPDEST SWAP3 SWAP2 POP POP JUMP JUMPDEST PUSH1 0x0 PUSH1 0x20 DUP3 DUP5 SUB SLT ISZERO PUSH2 0xF58 JUMPI PUSH1 0x0 DUP1 REVERT JUMPDEST PUSH1 0x0 PUSH2 0xF66 DUP5 DUP3 DUP6 ADD PUSH2 0xF07 JUMP JUMPDEST SWAP2 POP POP SWAP3 SWAP2 POP POP JUMP JUMPDEST PUSH1 0x0 PUSH1 0x20 DUP3 DUP5 SUB SLT ISZERO PUSH2 0xF81 JUMPI PUSH1 0x0 DUP1 REVERT JUMPDEST PUSH1 0x0 PUSH2 0xF8F DUP5 DUP3 DUP6 ADD PUSH2 0xF1C JUMP JUMPDEST SWAP2 POP POP SWAP3 SWAP2 POP POP JUMP JUMPDEST PUSH1 0x0 PUSH1 0x20 DUP3 DUP5 SUB SLT ISZERO PUSH2 0xFAA JUMPI PUSH1 0x0 DUP1 REVERT JUMPDEST PUSH1 0x0 PUSH2 0xFB8 DUP5 DUP3 DUP6 ADD PUSH2 0xF31 JUMP JUMPDEST SWAP2 POP POP SWAP3 SWAP2 POP POP JUMP JUMPDEST PUSH2 0xFCA DUP2 PUSH2 0x1410 JUMP JUMPDEST DUP3 MSTORE POP POP JUMP JUMPDEST PUSH1 0x0 PUSH2 0xFDD PUSH1 0x20 DUP4 PUSH2 0x12EA JUMP JUMPDEST SWAP2 POP PUSH2 0xFE8 DUP3 PUSH2 0x14B6 JUMP JUMPDEST PUSH1 0x20 DUP3 ADD SWAP1 POP SWAP2 SWAP1 POP JUMP JUMPDEST PUSH1 0x0 PUSH2 0x1000 PUSH1 0x1B DUP4 PUSH2 0x12EA JUMP JUMPDEST SWAP2 POP PUSH2 0x100B DUP3 PUSH2 0x14DF JUMP JUMPDEST PUSH1 0x20 DUP3 ADD SWAP1 POP SWAP2 SWAP1 POP JUMP JUMPDEST PUSH1 0x0 PUSH2 0x1023 PUSH1 0x22 DUP4 PUSH2 0x12EA JUMP JUMPDEST SWAP2 POP PUSH2 0x102E DUP3 PUSH2 0x1508 JUMP JUMPDEST PUSH1 0x40 DUP3 ADD SWAP1 POP SWAP2 SWAP1 POP JUMP JUMPDEST PUSH1 0x0 PUSH2 0x1046 PUSH1 0x29 DUP4 PUSH2 0x12EA JUMP JUMPDEST SWAP2 POP PUSH2 0x1051 DUP3 PUSH2 0x1557 JUMP JUMPDEST PUSH1 0x40 DUP3 ADD SWAP1 POP SWAP2 SWAP1 POP JUMP JUMPDEST PUSH1 0x0 PUSH2 0x1069 PUSH1 0x41 DUP4 PUSH2 0x12EA JUMP JUMPDEST SWAP2 POP PUSH2 0x1074 DUP3 PUSH2 0x15A6 JUMP JUMPDEST PUSH1 0x60 DUP3 ADD SWAP1 POP SWAP2 SWAP1 POP JUMP JUMPDEST PUSH1 0x0 PUSH2 0x108C PUSH1 0x36 DUP4 PUSH2 0x12EA JUMP JUMPDEST SWAP2 POP PUSH2 0x1097 DUP3 PUSH2 0x161B JUMP JUMPDEST PUSH1 0x40 DUP3 ADD SWAP1 POP SWAP2 SWAP1 POP JUMP JUMPDEST PUSH1 0x0 PUSH2 0x10AF PUSH1 0x1C DUP4 PUSH2 0x12EA JUMP JUMPDEST SWAP2 POP PUSH2 0x10BA DUP3 PUSH2 0x166A JUMP JUMPDEST PUSH1 0x20 DUP3 ADD SWAP1 POP SWAP2 SWAP1 POP JUMP JUMPDEST PUSH1 0x0 PUSH2 0x10D2 PUSH1 0x23 DUP4 PUSH2 0x12EA JUMP JUMPDEST SWAP2 POP PUSH2 0x10DD DUP3 PUSH2 0x1693 JUMP JUMPDEST PUSH1 0x40 DUP3 ADD SWAP1 POP SWAP2 SWAP1 POP JUMP JUMPDEST PUSH1 0x0 PUSH2 0x10F5 PUSH1 0x21 DUP4 PUSH2 0x12EA JUMP JUMPDEST SWAP2 POP PUSH2 0x1100 DUP3 PUSH2 0x16E2 JUMP JUMPDEST PUSH1 0x40 DUP3 ADD SWAP1 POP SWAP2 SWAP1 POP JUMP JUMPDEST PUSH1 0x0 PUSH2 0x1118 PUSH1 0x24 DUP4 PUSH2 0x12EA JUMP JUMPDEST SWAP2 POP PUSH2 0x1123 DUP3 PUSH2 0x1731 JUMP JUMPDEST PUSH1 0x40 DUP3 ADD SWAP1 POP SWAP2 SWAP1 POP JUMP JUMPDEST PUSH2 0x1137 DUP2 PUSH2 0x144E JUMP JUMPDEST DUP3 MSTORE POP POP JUMP JUMPDEST PUSH1 0x0 PUSH1 0x20 DUP3 ADD SWAP1 POP PUSH2 0x1152 PUSH1 0x0 DUP4 ADD DUP5 PUSH2 0xFC1 JUMP JUMPDEST SWAP3 SWAP2 POP POP JUMP JUMPDEST PUSH1 0x0 PUSH1 0x60 DUP3 ADD SWAP1 POP PUSH2 0x116D PUSH1 0x0 DUP4 ADD DUP7 PUSH2 0xFC1 JUMP JUMPDEST PUSH2 0x117A PUSH1 0x20 DUP4 ADD DUP6 PUSH2 0xFC1 JUMP JUMPDEST PUSH2 0x1187 PUSH1 0x40 DUP4 ADD DUP5 PUSH2 0x112E JUMP JUMPDEST SWAP5 SWAP4 POP POP POP POP JUMP JUMPDEST PUSH1 0x0 PUSH1 0x20 DUP3 ADD SWAP1 POP DUP2 DUP2 SUB PUSH1 0x0 DUP4 ADD MSTORE PUSH2 0x11A8 DUP2 PUSH2 0xFD0 JUMP JUMPDEST SWAP1 POP SWAP2 SWAP1 POP JUMP JUMPDEST PUSH1 0x0 PUSH1 0x20 DUP3 ADD SWAP1 POP DUP2 DUP2 SUB PUSH1 0x0 DUP4 ADD MSTORE PUSH2 0x11C8 DUP2 PUSH2 0xFF3 JUMP JUMPDEST SWAP1 POP SWAP2 SWAP1 POP JUMP JUMPDEST PUSH1 0x0 PUSH1 0x20 DUP3 ADD SWAP1 POP DUP2 DUP2 SUB PUSH1 0x0 DUP4 ADD MSTORE PUSH2 0x11E8 DUP2 PUSH2 0x1016 JUMP JUMPDEST SWAP1 POP SWAP2 SWAP1 POP JUMP JUMPDEST PUSH1 0x0 PUSH1 0x20 DUP3 ADD SWAP1 POP DUP2 DUP2 SUB PUSH1 0x0 DUP4 ADD MSTORE PUSH2 0x1208 DUP2 PUSH2 0x1039 JUMP JUMPDEST SWAP1 POP SWAP2 SWAP1 POP JUMP JUMPDEST PUSH1 0x0 PUSH1 0x20 DUP3 ADD SWAP1 POP DUP2 DUP2 SUB PUSH1 0x0 DUP4 ADD MSTORE PUSH2 0x1228 DUP2 PUSH2 0x105C JUMP JUMPDEST SWAP1 POP SWAP2 SWAP1 POP JUMP JUMPDEST PUSH1 0x0 PUSH1 0x20 DUP3 ADD SWAP1 POP DUP2 DUP2 SUB PUSH1 0x0 DUP4 ADD MSTORE PUSH2 0x1248 DUP2 PUSH2 0x107F JUMP JUMPDEST SWAP1 POP SWAP2 SWAP1 POP JUMP JUMPDEST PUSH1 0x0 PUSH1 0x20 DUP3 ADD SWAP1 POP DUP2 DUP2 SUB PUSH1 0x0 DUP4 ADD MSTORE PUSH2 0x1268 DUP2 PUSH2 0x10A2 JUMP JUMPDEST SWAP1 POP SWAP2 SWAP1 POP JUMP JUMPDEST PUSH1 0x0 PUSH1 0x20 DUP3 ADD SWAP1 POP DUP2 DUP2 SUB PUSH1 0x0 DUP4 ADD MSTORE PUSH2 0x1288 DUP2 PUSH2 0x10C5 JUMP JUMPDEST SWAP1 POP SWAP2 SWAP1 POP JUMP JUMPDEST PUSH1 0x0 PUSH1 0x20 DUP3 ADD SWAP1 POP DUP2 DUP2 SUB PUSH1 0x0 DUP4 ADD MSTORE PUSH2 0x12A8 DUP2 PUSH2 0x10E8 JUMP JUMPDEST SWAP1 POP SWAP2 SWAP1 POP JUMP JUMPDEST PUSH1 0x0 PUSH1 0x20 DUP3 ADD SWAP1 POP DUP2 DUP2 SUB PUSH1 0x0 DUP4 ADD MSTORE PUSH2 0x12C8 DUP2 PUSH2 0x110B JUMP JUMPDEST SWAP1 POP SWAP2 SWAP1 POP JUMP JUMPDEST PUSH1 0x0 PUSH1 0x20 DUP3 ADD SWAP1 POP PUSH2 0x12E4 PUSH1 0x0 DUP4 ADD DUP5 PUSH2 0x112E JUMP JUMPDEST SWAP3 SWAP2 POP POP JUMP JUMPDEST PUSH1 0x0 DUP3 DUP3 MSTORE PUSH1 0x20 DUP3 ADD SWAP1 POP SWAP3 SWAP2 POP POP JUMP JUMPDEST PUSH1 0x0 PUSH2 0x1306 DUP3 PUSH2 0x144E JUMP JUMPDEST SWAP2 POP PUSH2 0x1311 DUP4 PUSH2 0x144E JUMP JUMPDEST SWAP3 POP DUP3 PUSH32 0xFFFFFFFFFFFFFFFFFFFFFFFFFFFFFFFFFFFFFFFFFFFFFFFFFFFFFFFFFFFFFFFF SUB DUP3 GT ISZERO PUSH2 0x1346 JUMPI PUSH2 0x1345 PUSH2 0x1458 JUMP JUMPDEST JUMPDEST DUP3 DUP3 ADD SWAP1 POP SWAP3 SWAP2 POP POP JUMP JUMPDEST PUSH1 0x0 PUSH2 0x135C DUP3 PUSH2 0x144E JUMP JUMPDEST SWAP2 POP PUSH2 0x1367 DUP4 PUSH2 0x144E JUMP JUMPDEST SWAP3 POP DUP3 PUSH2 0x1377 JUMPI PUSH2 0x1376 PUSH2 0x1487 JUMP JUMPDEST JUMPDEST DUP3 DUP3 DIV SWAP1 POP SWAP3 SWAP2 POP POP JUMP JUMPDEST PUSH1 0x0 PUSH2 0x138D DUP3 PUSH2 0x144E JUMP JUMPDEST SWAP2 POP PUSH2 0x1398 DUP4 PUSH2 0x144E JUMP JUMPDEST SWAP3 POP DUP2 PUSH32 0xFFFFFFFFFFFFFFFFFFFFFFFFFFFFFFFFFFFFFFFFFFFFFFFFFFFFFFFFFFFFFFFF DIV DUP4 GT DUP3 ISZERO ISZERO AND ISZERO PUSH2 0x13D1 JUMPI PUSH2 0x13D0 PUSH2 0x1458 JUMP JUMPDEST JUMPDEST DUP3 DUP3 MUL SWAP1 POP SWAP3 SWAP2 POP POP JUMP JUMPDEST PUSH1 0x0 PUSH2 0x13E7 DUP3 PUSH2 0x144E JUMP JUMPDEST SWAP2 POP PUSH2 0x13F2 DUP4 PUSH2 0x144E JUMP JUMPDEST SWAP3 POP DUP3 DUP3 LT ISZERO PUSH2 0x1405 JUMPI PUSH2 0x1404 PUSH2 0x1458 JUMP JUMPDEST JUMPDEST DUP3 DUP3 SUB SWAP1 POP SWAP3 SWAP2 POP POP JUMP JUMPDEST PUSH1 0x0 PUSH2 0x141B DUP3 PUSH2 0x142E JUMP JUMPDEST SWAP1 POP SWAP2 SWAP1 POP JUMP JUMPDEST PUSH1 0x0 DUP2 ISZERO ISZERO SWAP1 POP SWAP2 SWAP1 POP JUMP JUMPDEST PUSH1 0x0 PUSH20 0xFFFFFFFFFFFFFFFFFFFFFFFFFFFFFFFFFFFFFFFF DUP3 AND SWAP1 POP SWAP2 SWAP1 POP JUMP JUMPDEST PUSH1 0x0 DUP2 SWAP1 POP SWAP2 SWAP1 POP JUMP JUMPDEST PUSH32 0x4E487B7100000000000000000000000000000000000000000000000000000000 PUSH1 0x0 MSTORE PUSH1 0x11 PUSH1 0x4 MSTORE PUSH1 0x24 PUSH1 0x0 REVERT JUMPDEST PUSH32 0x4E487B7100000000000000000000000000000000000000000000000000000000 PUSH1 0x0 MSTORE PUSH1 0x12 PUSH1 0x4 MSTORE PUSH1 0x24 PUSH1 0x0 REVERT JUMPDEST PUSH32 0x4E65772076616C7565206D75737420626520686967686572207468616E20302E PUSH1 0x0 DUP3 ADD MSTORE POP JUMP JUMPDEST PUSH32 0x4E6F7420656E6F7567682065746820746F2077697468647261772E0000000000 PUSH1 0x0 DUP3 ADD MSTORE POP JUMP JUMPDEST PUSH32 0x596F752063616E277420726573746F636B2030206F72206C6573732047616D61 PUSH1 0x0 DUP3 ADD MSTORE PUSH32 0x732E000000000000000000000000000000000000000000000000000000000000 PUSH1 0x20 DUP3 ADD MSTORE POP JUMP JUMPDEST PUSH32 0x596F75206E65656420746F2068617665206C657373207468616E20353020746F PUSH1 0x0 DUP3 ADD MSTORE PUSH32 0x20726573746F636B2E0000000000000000000000000000000000000000000000 PUSH1 0x20 DUP3 ADD MSTORE POP JUMP JUMPDEST PUSH32 0x506C65617365207175616E74697479206F6620657468657273206D7573742062 PUSH1 0x0 DUP3 ADD MSTORE PUSH32 0x652070726F706F7274696F6E616C20746F207468652070726963652072617469 PUSH1 0x20 DUP3 ADD MSTORE PUSH32 0x6F00000000000000000000000000000000000000000000000000000000000000 PUSH1 0x40 DUP3 ADD MSTORE POP JUMP JUMPDEST PUSH32 0x4E6F7420656E6F7567682047616D617320696E2073746F636B20746F2066756C PUSH1 0x0 DUP3 ADD MSTORE PUSH32 0x66696C6C20707572636861736520726571756573742E00000000000000000000 PUSH1 0x20 DUP3 ADD MSTORE POP JUMP JUMPDEST PUSH32 0x4F6E6C7920746865206F6E7765722063616E206D616B65207468697300000000 PUSH1 0x0 DUP3 ADD MSTORE POP JUMP JUMPDEST PUSH32 0x596F752063616E277420726573746F636B2030206F72206C6573732045746865 PUSH1 0x0 DUP3 ADD MSTORE PUSH32 0x72732E0000000000000000000000000000000000000000000000000000000000 PUSH1 0x20 DUP3 ADD MSTORE POP JUMP JUMPDEST PUSH32 0x4572726F2C206E6F7420656E6F7567682065746865727320746F207472616465 PUSH1 0x0 DUP3 ADD MSTORE PUSH32 0x2E00000000000000000000000000000000000000000000000000000000000000 PUSH1 0x20 DUP3 ADD MSTORE POP JUMP JUMPDEST PUSH32 0x4E6F7420656E6F7567682047616D617320746F20747261646520666F72206574 PUSH1 0x0 DUP3 ADD MSTORE PUSH32 0x6865722E00000000000000000000000000000000000000000000000000000000 PUSH1 0x20 DUP3 ADD MSTORE POP JUMP JUMPDEST PUSH2 0x1789 DUP2 PUSH2 0x1410 JUMP JUMPDEST DUP2 EQ PUSH2 0x1794 JUMPI PUSH1 0x0 DUP1 REVERT JUMPDEST POP JUMP JUMPDEST PUSH2 0x17A0 DUP2 PUSH2 0x1422 JUMP JUMPDEST DUP2 EQ PUSH2 0x17AB JUMPI PUSH1 0x0 DUP1 REVERT JUMPDEST POP JUMP JUMPDEST PUSH2 0x17B7 DUP2 PUSH2 0x144E JUMP JUMPDEST DUP2 EQ PUSH2 0x17C2 JUMPI PUSH1 0x0 DUP1 REVERT JUMPDEST POP JUMP INVALID LOG2 PUSH5 0x6970667358 0x22 SLT KECCAK256 0xD2 0x4A 0xC7 SWAP4 ADDMOD 0x48 SWAP5 EXTCODESIZE POP RETURNDATASIZE DUP15 SMOD 0xD8 LT MSIZE REVERT PUSH28 0x9CA5F26466C0663346311E7653A8EC64736F6C634300080400330000 "
        },
        "methodIdentifiers": {
          "GamaToBalances(address)": "55c21a2b",
          "contractBalance()": "8b7afe2e",
          "getBuyerBalanceGama()": "2047478c",
          "getOwner()": "893d20e8",
          "getVendingMachineBalanceGama()": "44ca7eec",
          "getVendingMachingBalanceEth()": "d973eec1",
          "owner2()": "52709725",
          "ownerBalance()": "bedcf003",
          "purchaseGama(uint256)": "99d5dcae",
          "restockEth()": "19ceb003",
          "restockGama()": "34d28809",
          "sellingGama(uint256)": "92ab4dd4",
          "setGamaBuyValue(uint256)": "a36b98ed",
          "setGamaSellValue(uint256)": "94a5a7b4",
          "toWithdraw(uint256)": "0d82c853",
          "weiToEther(uint256)": "d0eff891"
        }
      }
    }
  }
}