{
  "contracts/libs.sol": {
    "Math": {
      "abi": [
        {
          "inputs": [
            {
              "internalType": "uint256",
              "name": "a",
              "type": "uint256"
            },
            {
              "internalType": "uint256",
              "name": "b",
              "type": "uint256"
            }
          ],
          "name": "percent",
          "outputs": [
            {
              "internalType": "uint256",
              "name": "",
              "type": "uint256"
            }
          ],
          "stateMutability": "pure",
          "type": "function"
        }
      ],
      "evm": {
        "bytecode": {
          "linkReferences": {},
          "object": "61028b610053600b82828239805160001a607314610046577f4e487b7100000000000000000000000000000000000000000000000000000000600052600060045260246000fd5b30600052607381538281f3fe73000000000000000000000000000000000000000030146080604052600436106100355760003560e01c806342318e3d1461003a575b600080fd5b610054600480360381019061004f91906100b1565b61006a565b60405161006191906100fc565b60405180910390f35b6000806064838561007b9190610148565b6100859190610117565b8461009091906101a2565b90508091505092915050565b6000813590506100ab8161023e565b92915050565b600080604083850312156100c457600080fd5b60006100d28582860161009c565b92505060206100e38582860161009c565b9150509250929050565b6100f6816101d6565b82525050565b600060208201905061011160008301846100ed565b92915050565b6000610122826101d6565b915061012d836101d6565b92508261013d5761013c61020f565b5b828204905092915050565b6000610153826101d6565b915061015e836101d6565b9250817fffffffffffffffffffffffffffffffffffffffffffffffffffffffffffffffff0483118215151615610197576101966101e0565b5b828202905092915050565b60006101ad826101d6565b91506101b8836101d6565b9250828210156101cb576101ca6101e0565b5b828203905092915050565b6000819050919050565b7f4e487b7100000000000000000000000000000000000000000000000000000000600052601160045260246000fd5b7f4e487b7100000000000000000000000000000000000000000000000000000000600052601260045260246000fd5b610247816101d6565b811461025257600080fd5b5056fea264697066735822122058d63e8e97b22c7f9fd3a647b7f580a14f180ca6024394ef112d5d71b5ff824564736f6c63430008040033",
          "opcodes": "PUSH2 0x28B PUSH2 0x53 PUSH1 0xB DUP3 DUP3 DUP3 CODECOPY DUP1 MLOAD PUSH1 0x0 BYTE PUSH1 0x73 EQ PUSH2 0x46 JUMPI PUSH32 0x4E487B7100000000000000000000000000000000000000000000000000000000 PUSH1 0x0 MSTORE PUSH1 0x0 PUSH1 0x4 MSTORE PUSH1 0x24 PUSH1 0x0 REVERT JUMPDEST ADDRESS PUSH1 0x0 MSTORE PUSH1 0x73 DUP2 MSTORE8 DUP3 DUP2 RETURN INVALID PUSH20 0x0 ADDRESS EQ PUSH1 0x80 PUSH1 0x40 MSTORE PUSH1 0x4 CALLDATASIZE LT PUSH2 0x35 JUMPI PUSH1 0x0 CALLDATALOAD PUSH1 0xE0 SHR DUP1 PUSH4 0x42318E3D EQ PUSH2 0x3A JUMPI JUMPDEST PUSH1 0x0 DUP1 REVERT JUMPDEST PUSH2 0x54 PUSH1 0x4 DUP1 CALLDATASIZE SUB DUP2 ADD SWAP1 PUSH2 0x4F SWAP2 SWAP1 PUSH2 0xB1 JUMP JUMPDEST PUSH2 0x6A JUMP JUMPDEST PUSH1 0x40 MLOAD PUSH2 0x61 SWAP2 SWAP1 PUSH2 0xFC JUMP JUMPDEST PUSH1 0x40 MLOAD DUP1 SWAP2 SUB SWAP1 RETURN JUMPDEST PUSH1 0x0 DUP1 PUSH1 0x64 DUP4 DUP6 PUSH2 0x7B SWAP2 SWAP1 PUSH2 0x148 JUMP JUMPDEST PUSH2 0x85 SWAP2 SWAP1 PUSH2 0x117 JUMP JUMPDEST DUP5 PUSH2 0x90 SWAP2 SWAP1 PUSH2 0x1A2 JUMP JUMPDEST SWAP1 POP DUP1 SWAP2 POP POP SWAP3 SWAP2 POP POP JUMP JUMPDEST PUSH1 0x0 DUP2 CALLDATALOAD SWAP1 POP PUSH2 0xAB DUP2 PUSH2 0x23E JUMP JUMPDEST SWAP3 SWAP2 POP POP JUMP JUMPDEST PUSH1 0x0 DUP1 PUSH1 0x40 DUP4 DUP6 SUB SLT ISZERO PUSH2 0xC4 JUMPI PUSH1 0x0 DUP1 REVERT JUMPDEST PUSH1 0x0 PUSH2 0xD2 DUP6 DUP3 DUP7 ADD PUSH2 0x9C JUMP JUMPDEST SWAP3 POP POP PUSH1 0x20 PUSH2 0xE3 DUP6 DUP3 DUP7 ADD PUSH2 0x9C JUMP JUMPDEST SWAP2 POP POP SWAP3 POP SWAP3 SWAP1 POP JUMP JUMPDEST PUSH2 0xF6 DUP2 PUSH2 0x1D6 JUMP JUMPDEST DUP3 MSTORE POP POP JUMP JUMPDEST PUSH1 0x0 PUSH1 0x20 DUP3 ADD SWAP1 POP PUSH2 0x111 PUSH1 0x0 DUP4 ADD DUP5 PUSH2 0xED JUMP JUMPDEST SWAP3 SWAP2 POP POP JUMP JUMPDEST PUSH1 0x0 PUSH2 0x122 DUP3 PUSH2 0x1D6 JUMP JUMPDEST SWAP2 POP PUSH2 0x12D DUP4 PUSH2 0x1D6 JUMP JUMPDEST SWAP3 POP DUP3 PUSH2 0x13D JUMPI PUSH2 0x13C PUSH2 0x20F JUMP JUMPDEST JUMPDEST DUP3 DUP3 DIV SWAP1 POP SWAP3 SWAP2 POP POP JUMP JUMPDEST PUSH1 0x0 PUSH2 0x153 DUP3 PUSH2 0x1D6 JUMP JUMPDEST SWAP2 POP PUSH2 0x15E DUP4 PUSH2 0x1D6 JUMP JUMPDEST SWAP3 POP DUP2 PUSH32 0xFFFFFFFFFFFFFFFFFFFFFFFFFFFFFFFFFFFFFFFFFFFFFFFFFFFFFFFFFFFFFFFF DIV DUP4 GT DUP3 ISZERO ISZERO AND ISZERO PUSH2 0x197 JUMPI PUSH2 0x196 PUSH2 0x1E0 JUMP JUMPDEST JUMPDEST DUP3 DUP3 MUL SWAP1 POP SWAP3 SWAP2 POP POP JUMP JUMPDEST PUSH1 0x0 PUSH2 0x1AD DUP3 PUSH2 0x1D6 JUMP JUMPDEST SWAP2 POP PUSH2 0x1B8 DUP4 PUSH2 0x1D6 JUMP JUMPDEST SWAP3 POP DUP3 DUP3 LT ISZERO PUSH2 0x1CB JUMPI PUSH2 0x1CA PUSH2 0x1E0 JUMP JUMPDEST JUMPDEST DUP3 DUP3 SUB SWAP1 POP SWAP3 SWAP2 POP POP JUMP JUMPDEST PUSH1 0x0 DUP2 SWAP1 POP SWAP2 SWAP1 POP JUMP JUMPDEST PUSH32 0x4E487B7100000000000000000000000000000000000000000000000000000000 PUSH1 0x0 MSTORE PUSH1 0x11 PUSH1 0x4 MSTORE PUSH1 0x24 PUSH1 0x0 REVERT JUMPDEST PUSH32 0x4E487B7100000000000000000000000000000000000000000000000000000000 PUSH1 0x0 MSTORE PUSH1 0x12 PUSH1 0x4 MSTORE PUSH1 0x24 PUSH1 0x0 REVERT JUMPDEST PUSH2 0x247 DUP2 PUSH2 0x1D6 JUMP JUMPDEST DUP2 EQ PUSH2 0x252 JUMPI PUSH1 0x0 DUP1 REVERT JUMPDEST POP JUMP INVALID LOG2 PUSH5 0x6970667358 0x22 SLT KECCAK256 PC 0xD6 RETURNDATACOPY DUP15 SWAP8 0xB2 0x2C PUSH32 0x9FD3A647B7F580A14F180CA6024394EF112D5D71B5FF824564736F6C63430008 DIV STOP CALLER "
        },
        "methodIdentifiers": {
          "percent(uint256,uint256)": "42318e3d"
        }
      }
    }
  }
}