{
  "_format": "hh-sol-artifact-1",
  "contractName": "VendingMachine",
  "sourceName": "contracts/vending.sol",
  "abi": [
    {
      "inputs": [],
      "stateMutability": "nonpayable",
      "type": "constructor"
    },
    {
      "inputs": [
        {
          "internalType": "address",
          "name": "",
          "type": "address"
        }
      ],
      "name": "GamaToBalances",
      "outputs": [
        {
          "internalType": "uint256",
          "name": "",
          "type": "uint256"
        }
      ],
      "stateMutability": "view",
      "type": "function"
    },
    {
      "inputs": [],
      "name": "contractBalance",
      "outputs": [
        {
          "internalType": "uint256",
          "name": "",
          "type": "uint256"
        }
      ],
      "stateMutability": "view",
      "type": "function"
    },
    {
      "inputs": [],
      "name": "getBuyerBalanceGama",
      "outputs": [
        {
          "internalType": "uint256",
          "name": "GamaToken",
          "type": "uint256"
        }
      ],
      "stateMutability": "view",
      "type": "function"
    },
    {
      "inputs": [],
      "name": "getVendingMachineBalanceGama",
      "outputs": [
        {
          "internalType": "uint256",
          "name": "GamaToken",
          "type": "uint256"
        }
      ],
      "stateMutability": "view",
      "type": "function"
    },
    {
      "inputs": [],
      "name": "getVendingMachingBalanceEth",
      "outputs": [
        {
          "internalType": "uint256",
          "name": "EthToken",
          "type": "uint256"
        }
      ],
      "stateMutability": "view",
      "type": "function"
    },
    {
      "inputs": [],
      "name": "owner",
      "outputs": [
        {
          "internalType": "address",
          "name": "",
          "type": "address"
        }
      ],
      "stateMutability": "view",
      "type": "function"
    },
    {
      "inputs": [],
      "name": "ownerBalance",
      "outputs": [
        {
          "internalType": "uint256",
          "name": "",
          "type": "uint256"
        }
      ],
      "stateMutability": "view",
      "type": "function"
    },
    {
      "inputs": [
        {
          "internalType": "uint256",
          "name": "amount",
          "type": "uint256"
        }
      ],
      "name": "purchaseGama",
      "outputs": [],
      "stateMutability": "payable",
      "type": "function"
    },
    {
      "inputs": [],
      "name": "restockEth",
      "outputs": [],
      "stateMutability": "payable",
      "type": "function"
    },
    {
      "inputs": [
        {
          "internalType": "uint256",
          "name": "amountGama",
          "type": "uint256"
        }
      ],
      "name": "restockGama",
      "outputs": [],
      "stateMutability": "nonpayable",
      "type": "function"
    },
    {
      "inputs": [
        {
          "internalType": "uint256",
          "name": "amount",
          "type": "uint256"
        }
      ],
      "name": "sellingGama",
      "outputs": [],
      "stateMutability": "payable",
      "type": "function"
    },
    {
      "inputs": [
        {
          "internalType": "uint256",
          "name": "newValue",
          "type": "uint256"
        }
      ],
      "name": "setGamaBuyValue",
      "outputs": [],
      "stateMutability": "nonpayable",
      "type": "function"
    },
    {
      "inputs": [
        {
          "internalType": "uint256",
          "name": "newValue",
          "type": "uint256"
        }
      ],
      "name": "setGamaSellValue",
      "outputs": [],
      "stateMutability": "nonpayable",
      "type": "function"
    },
    {
      "inputs": [
        {
          "internalType": "uint256",
          "name": "amountWithdraw",
          "type": "uint256"
        }
      ],
      "name": "toWithdraw",
      "outputs": [],
      "stateMutability": "payable",
      "type": "function"
    },
    {
      "inputs": [
        {
          "internalType": "uint256",
          "name": "amount",
          "type": "uint256"
        }
      ],
      "name": "weiToEther",
      "outputs": [
        {
          "internalType": "uint256",
          "name": "weiEther",
          "type": "uint256"
        }
      ],
      "stateMutability": "pure",
      "type": "function"
    }
  ],
  "bytecode": "0x608060405234801561001057600080fd5b50336000806101000a81548173ffffffffffffffffffffffffffffffffffffffff021916908373ffffffffffffffffffffffffffffffffffffffff1602179055506001600381905550600160048190555061150e806100706000396000f3fe6080604052600436106100e85760003560e01c80638da5cb5b1161008a578063a36b98ed11610059578063a36b98ed14610286578063bedcf003146102af578063d0eff891146102da578063d973eec114610317576100e8565b80638da5cb5b146101fa57806392ab4dd41461022557806394a5a7b41461024157806399d5dcae1461026a576100e8565b8063221b73a2116100c6578063221b73a21461013e57806344ca7eec1461016757806355c21a2b146101925780638b7afe2e146101cf576100e8565b80630d82c853146100ed57806319ceb003146101095780632047478c14610113575b600080fd5b61010760048036038101906101029190610d97565b610342565b005b610111610465565b005b34801561011f57600080fd5b50610128610538565b6040516101359190611054565b60405180910390f35b34801561014a57600080fd5b5061016560048036038101906101609190610d97565b6105a0565b005b34801561017357600080fd5b5061017c6106ca565b6040516101899190611054565b60405180910390f35b34801561019e57600080fd5b506101b960048036038101906101b49190610d6e565b610711565b6040516101c69190611054565b60405180910390f35b3480156101db57600080fd5b506101e4610729565b6040516101f19190611054565b60405180910390f35b34801561020657600080fd5b5061020f610731565b60405161021c9190610f19565b60405180910390f35b61023f600480360381019061023a9190610d97565b610755565b005b34801561024d57600080fd5b5061026860048036038101906102639190610d97565b610940565b005b610284600480360381019061027f9190610d97565b610a1b565b005b34801561029257600080fd5b506102ad60048036038101906102a89190610d97565b610c04565b005b3480156102bb57600080fd5b506102c4610cdf565b6040516102d19190611054565b60405180910390f35b3480156102e657600080fd5b5061030160048036038101906102fc9190610d97565b610d1f565b60405161030e9190611054565b60405180910390f35b34801561032357600080fd5b5061032c610d3c565b6040516103399190611054565b60405180910390f35b60008054906101000a900473ffffffffffffffffffffffffffffffffffffffff1673ffffffffffffffffffffffffffffffffffffffff163373ffffffffffffffffffffffffffffffffffffffff16146103d0576040517f08c379a00000000000000000000000000000000000000000000000000000000081526004016103c790610fd4565b60405180910390fd5b47811115610413576040517f08c379a000000000000000000000000000000000000000000000000000000000815260040161040a90610f54565b60405180910390fd5b3373ffffffffffffffffffffffffffffffffffffffff166108fc61043683610d1f565b9081150290604051600060405180830381858888f19350505050158015610461573d6000803e3d6000fd5b5050565b60008054906101000a900473ffffffffffffffffffffffffffffffffffffffff1673ffffffffffffffffffffffffffffffffffffffff163373ffffffffffffffffffffffffffffffffffffffff16146104f3576040517f08c379a00000000000000000000000000000000000000000000000000000000081526004016104ea90610fd4565b60405180910390fd5b60003411610536576040517f08c379a000000000000000000000000000000000000000000000000000000000815260040161052d90610ff4565b60405180910390fd5b565b6000600160008060009054906101000a900473ffffffffffffffffffffffffffffffffffffffff1673ffffffffffffffffffffffffffffffffffffffff1673ffffffffffffffffffffffffffffffffffffffff16815260200190815260200160002054905090565b60008054906101000a900473ffffffffffffffffffffffffffffffffffffffff1673ffffffffffffffffffffffffffffffffffffffff163373ffffffffffffffffffffffffffffffffffffffff161461062e576040517f08c379a000000000000000000000000000000000000000000000000000000000815260040161062590610fd4565b60405180910390fd5b60008111610671576040517f08c379a000000000000000000000000000000000000000000000000000000000815260040161066890610f74565b60405180910390fd5b80600160003073ffffffffffffffffffffffffffffffffffffffff1673ffffffffffffffffffffffffffffffffffffffff16815260200190815260200160002060008282546106c09190611080565b9250508190555050565b6000600160003073ffffffffffffffffffffffffffffffffffffffff1673ffffffffffffffffffffffffffffffffffffffff16815260200190815260200160002054905090565b60016020528060005260406000206000915090505481565b600047905090565b60008054906101000a900473ffffffffffffffffffffffffffffffffffffffff1681565b80600160003373ffffffffffffffffffffffffffffffffffffffff1673ffffffffffffffffffffffffffffffffffffffff1681526020019081526020016000205410156107d7576040517f08c379a00000000000000000000000000000000000000000000000000000000081526004016107ce90611034565b60405180910390fd5b80600160003373ffffffffffffffffffffffffffffffffffffffff1673ffffffffffffffffffffffffffffffffffffffff16815260200190815260200160002060008282546108269190611161565b9250508190555080600160003073ffffffffffffffffffffffffffffffffffffffff1673ffffffffffffffffffffffffffffffffffffffff168152602001908152602001600020600082825461087c9190611080565b9250508190555061088c81610d1f565b600260003073ffffffffffffffffffffffffffffffffffffffff1673ffffffffffffffffffffffffffffffffffffffff16815260200190815260200160002060008282546108da9190611161565b925050819055503373ffffffffffffffffffffffffffffffffffffffff166108fc60045461090784610d1f565b6109119190611107565b9081150290604051600060405180830381858888f1935050505015801561093c573d6000803e3d6000fd5b5050565b60008054906101000a900473ffffffffffffffffffffffffffffffffffffffff1673ffffffffffffffffffffffffffffffffffffffff163373ffffffffffffffffffffffffffffffffffffffff16146109ce576040517f08c379a00000000000000000000000000000000000000000000000000000000081526004016109c590610fd4565b60405180910390fd5b60008111610a11576040517f08c379a0000000000000000000000000000000000000000000000000000000008152600401610a0890610f34565b60405180910390fd5b8060048190555050565b6000670de0b6b3a764000034610a3191906110d6565b905060035482610a419190611107565b60045482610a4f9190611107565b14610a8f576040517f08c379a0000000000000000000000000000000000000000000000000000000008152600401610a8690610f94565b60405180910390fd5b60003411610ad2576040517f08c379a0000000000000000000000000000000000000000000000000000000008152600401610ac990611014565b60405180910390fd5b81600160003073ffffffffffffffffffffffffffffffffffffffff1673ffffffffffffffffffffffffffffffffffffffff168152602001908152602001600020541015610b54576040517f08c379a0000000000000000000000000000000000000000000000000000000008152600401610b4b90610fb4565b60405180910390fd5b81600160003073ffffffffffffffffffffffffffffffffffffffff1673ffffffffffffffffffffffffffffffffffffffff1681526020019081526020016000206000828254610ba39190611161565b9250508190555081600160003373ffffffffffffffffffffffffffffffffffffffff1673ffffffffffffffffffffffffffffffffffffffff1681526020019081526020016000206000828254610bf99190611080565b925050819055505050565b60008054906101000a900473ffffffffffffffffffffffffffffffffffffffff1673ffffffffffffffffffffffffffffffffffffffff163373ffffffffffffffffffffffffffffffffffffffff1614610c92576040517f08c379a0000000000000000000000000000000000000000000000000000000008152600401610c8990610fd4565b60405180910390fd5b60008111610cd5576040517f08c379a0000000000000000000000000000000000000000000000000000000008152600401610ccc90610f34565b60405180910390fd5b8060038190555050565b60008060009054906101000a900473ffffffffffffffffffffffffffffffffffffffff1673ffffffffffffffffffffffffffffffffffffffff1631905090565b6000670de0b6b3a764000082610d359190611107565b9050919050565b600047905090565b600081359050610d53816114aa565b92915050565b600081359050610d68816114c1565b92915050565b600060208284031215610d8057600080fd5b6000610d8e84828501610d44565b91505092915050565b600060208284031215610da957600080fd5b6000610db784828501610d59565b91505092915050565b610dc981611195565b82525050565b6000610ddc60208361106f565b9150610de78261122f565b602082019050919050565b6000610dff601b8361106f565b9150610e0a82611258565b602082019050919050565b6000610e2260228361106f565b9150610e2d82611281565b604082019050919050565b6000610e4560418361106f565b9150610e50826112d0565b606082019050919050565b6000610e6860368361106f565b9150610e7382611345565b604082019050919050565b6000610e8b601c8361106f565b9150610e9682611394565b602082019050919050565b6000610eae60238361106f565b9150610eb9826113bd565b604082019050919050565b6000610ed160218361106f565b9150610edc8261140c565b604082019050919050565b6000610ef460248361106f565b9150610eff8261145b565b604082019050919050565b610f13816111c7565b82525050565b6000602082019050610f2e6000830184610dc0565b92915050565b60006020820190508181036000830152610f4d81610dcf565b9050919050565b60006020820190508181036000830152610f6d81610df2565b9050919050565b60006020820190508181036000830152610f8d81610e15565b9050919050565b60006020820190508181036000830152610fad81610e38565b9050919050565b60006020820190508181036000830152610fcd81610e5b565b9050919050565b60006020820190508181036000830152610fed81610e7e565b9050919050565b6000602082019050818103600083015261100d81610ea1565b9050919050565b6000602082019050818103600083015261102d81610ec4565b9050919050565b6000602082019050818103600083015261104d81610ee7565b9050919050565b60006020820190506110696000830184610f0a565b92915050565b600082825260208201905092915050565b600061108b826111c7565b9150611096836111c7565b9250827fffffffffffffffffffffffffffffffffffffffffffffffffffffffffffffffff038211156110cb576110ca6111d1565b5b828201905092915050565b60006110e1826111c7565b91506110ec836111c7565b9250826110fc576110fb611200565b5b828204905092915050565b6000611112826111c7565b915061111d836111c7565b9250817fffffffffffffffffffffffffffffffffffffffffffffffffffffffffffffffff0483118215151615611156576111556111d1565b5b828202905092915050565b600061116c826111c7565b9150611177836111c7565b92508282101561118a576111896111d1565b5b828203905092915050565b60006111a0826111a7565b9050919050565b600073ffffffffffffffffffffffffffffffffffffffff82169050919050565b6000819050919050565b7f4e487b7100000000000000000000000000000000000000000000000000000000600052601160045260246000fd5b7f4e487b7100000000000000000000000000000000000000000000000000000000600052601260045260246000fd5b7f4e65772076616c7565206d75737420626520686967686572207468616e20302e600082015250565b7f4e6f7420656e6f7567682065746820746f2077697468647261772e0000000000600082015250565b7f596f752063616e277420726573746f636b2030206f72206c6573732047616d6160008201527f732e000000000000000000000000000000000000000000000000000000000000602082015250565b7f506c65617365207175616e74697479206f6620657468657273206d757374206260008201527f652070726f706f7274696f6e616c20746f20746865207072696365207261746960208201527f6f00000000000000000000000000000000000000000000000000000000000000604082015250565b7f4e6f7420656e6f7567682047616d617320696e2073746f636b20746f2066756c60008201527f66696c6c20707572636861736520726571756573742e00000000000000000000602082015250565b7f4f6e6c7920746865206f6e7765722063616e206d616b65207468697300000000600082015250565b7f596f752063616e277420726573746f636b2030206f72206c657373204574686560008201527f72732e0000000000000000000000000000000000000000000000000000000000602082015250565b7f4572726f2c206e6f7420656e6f7567682065746865727320746f20747261646560008201527f2e00000000000000000000000000000000000000000000000000000000000000602082015250565b7f4e6f7420656e6f7567682047616d617320746f20747261646520666f7220657460008201527f6865722e00000000000000000000000000000000000000000000000000000000602082015250565b6114b381611195565b81146114be57600080fd5b50565b6114ca816111c7565b81146114d557600080fd5b5056fea26469706673582212207ab5fa463be1687f3df60d3fb99642cb6e0fb8dd314867ea0e5fbe17673e128d64736f6c63430008040033",
  "linkReferences": {},
  "deployedLinkReferences": {}
}