{
  "_format": "hh-sol-artifact-1",
  "contractName": "VendingMachine",
  "sourceName": "contracts/vending.sol",
  "abi": [
    {
      "inputs": [],
      "stateMutability": "nonpayable",
      "type": "constructor"
    },
    {
      "inputs": [
        {
          "internalType": "address",
          "name": "",
          "type": "address"
        }
      ],
      "name": "GamaToBalances",
      "outputs": [
        {
          "internalType": "uint256",
          "name": "",
          "type": "uint256"
        }
      ],
      "stateMutability": "view",
      "type": "function"
    },
    {
      "inputs": [],
      "name": "contractBalance",
      "outputs": [
        {
          "internalType": "uint256",
          "name": "",
          "type": "uint256"
        }
      ],
      "stateMutability": "view",
      "type": "function"
    },
    {
      "inputs": [],
      "name": "getVendingMachineBalanceGama",
      "outputs": [
        {
          "internalType": "uint256",
          "name": "GamaToken",
          "type": "uint256"
        }
      ],
      "stateMutability": "view",
      "type": "function"
    },
    {
      "inputs": [],
      "name": "getVendingMachingBalanceEth",
      "outputs": [
        {
          "internalType": "uint256",
          "name": "EthToken",
          "type": "uint256"
        }
      ],
      "stateMutability": "view",
      "type": "function"
    },
    {
      "inputs": [],
      "name": "owner",
      "outputs": [
        {
          "internalType": "address",
          "name": "",
          "type": "address"
        }
      ],
      "stateMutability": "view",
      "type": "function"
    },
    {
      "inputs": [],
      "name": "ownerBalance",
      "outputs": [
        {
          "internalType": "uint256",
          "name": "",
          "type": "uint256"
        }
      ],
      "stateMutability": "view",
      "type": "function"
    },
    {
      "inputs": [
        {
          "internalType": "uint256",
          "name": "amount",
          "type": "uint256"
        }
      ],
      "name": "purchaseGama",
      "outputs": [],
      "stateMutability": "payable",
      "type": "function"
    },
    {
      "inputs": [],
      "name": "restockEth",
      "outputs": [],
      "stateMutability": "payable",
      "type": "function"
    },
    {
      "inputs": [
        {
          "internalType": "uint256",
          "name": "amountGama",
          "type": "uint256"
        }
      ],
      "name": "restockGama",
      "outputs": [],
      "stateMutability": "nonpayable",
      "type": "function"
    },
    {
      "inputs": [
        {
          "internalType": "uint256",
          "name": "amount",
          "type": "uint256"
        }
      ],
      "name": "sellingGama",
      "outputs": [],
      "stateMutability": "payable",
      "type": "function"
    },
    {
      "inputs": [
        {
          "internalType": "uint256",
          "name": "newValue",
          "type": "uint256"
        }
      ],
      "name": "setGamaBuyValue",
      "outputs": [],
      "stateMutability": "nonpayable",
      "type": "function"
    },
    {
      "inputs": [
        {
          "internalType": "uint256",
          "name": "newValue",
          "type": "uint256"
        }
      ],
      "name": "setGamaSellValue",
      "outputs": [],
      "stateMutability": "nonpayable",
      "type": "function"
    },
    {
      "inputs": [
        {
          "internalType": "uint256",
          "name": "amountWithdraw",
          "type": "uint256"
        }
      ],
      "name": "toWithdraw",
      "outputs": [],
      "stateMutability": "payable",
      "type": "function"
    },
    {
      "inputs": [
        {
          "internalType": "uint256",
          "name": "amount",
          "type": "uint256"
        }
      ],
      "name": "weiToEther",
      "outputs": [
        {
          "internalType": "uint256",
          "name": "weiEther",
          "type": "uint256"
        }
      ],
      "stateMutability": "pure",
      "type": "function"
    }
  ],
  "bytecode": "0x608060405234801561001057600080fd5b50336000806101000a81548173ffffffffffffffffffffffffffffffffffffffff021916908373ffffffffffffffffffffffffffffffffffffffff1602179055506001600481905550600160038190555061138b806100706000396000f3fe6080604052600436106100dd5760003560e01c806392ab4dd41161007f578063a36b98ed11610059578063a36b98ed14610250578063bedcf00314610279578063d0eff891146102a4578063d973eec1146102e1576100dd565b806392ab4dd4146101ef57806394a5a7b41461020b57806399d5dcae14610234576100dd565b806344ca7eec116100bb57806344ca7eec1461013157806355c21a2b1461015c5780638b7afe2e146101995780638da5cb5b146101c4576100dd565b80630d82c853146100e257806319ceb003146100fe578063221b73a214610108575b600080fd5b6100fc60048036038101906100f79190610d2c565b61030c565b005b61010661042f565b005b34801561011457600080fd5b5061012f600480360381019061012a9190610d2c565b610502565b005b34801561013d57600080fd5b5061014661062c565b6040516101539190610fa6565b60405180910390f35b34801561016857600080fd5b50610183600480360381019061017e9190610d03565b610673565b6040516101909190610fa6565b60405180910390f35b3480156101a557600080fd5b506101ae61068b565b6040516101bb9190610fa6565b60405180910390f35b3480156101d057600080fd5b506101d9610693565b6040516101e69190610e8b565b60405180910390f35b61020960048036038101906102049190610d2c565b6106b7565b005b34801561021757600080fd5b50610232600480360381019061022d9190610d2c565b6108a2565b005b61024e60048036038101906102499190610d2c565b61097d565b005b34801561025c57600080fd5b5061027760048036038101906102729190610d2c565b610b5a565b005b34801561028557600080fd5b5061028e610c35565b60405161029b9190610fa6565b60405180910390f35b3480156102b057600080fd5b506102cb60048036038101906102c69190610d2c565b610c75565b6040516102d89190610fa6565b60405180910390f35b3480156102ed57600080fd5b506102f6610c92565b6040516103039190610fa6565b60405180910390f35b60008054906101000a900473ffffffffffffffffffffffffffffffffffffffff1673ffffffffffffffffffffffffffffffffffffffff163373ffffffffffffffffffffffffffffffffffffffff161461039a576040517f08c379a000000000000000000000000000000000000000000000000000000000815260040161039190610f46565b60405180910390fd5b478111156103dd576040517f08c379a00000000000000000000000000000000000000000000000000000000081526004016103d490610ec6565b60405180910390fd5b3373ffffffffffffffffffffffffffffffffffffffff166108fc61040083610c75565b9081150290604051600060405180830381858888f1935050505015801561042b573d6000803e3d6000fd5b5050565b60008054906101000a900473ffffffffffffffffffffffffffffffffffffffff1673ffffffffffffffffffffffffffffffffffffffff163373ffffffffffffffffffffffffffffffffffffffff16146104bd576040517f08c379a00000000000000000000000000000000000000000000000000000000081526004016104b490610f46565b60405180910390fd5b60003411610500576040517f08c379a00000000000000000000000000000000000000000000000000000000081526004016104f790610f66565b60405180910390fd5b565b60008054906101000a900473ffffffffffffffffffffffffffffffffffffffff1673ffffffffffffffffffffffffffffffffffffffff163373ffffffffffffffffffffffffffffffffffffffff1614610590576040517f08c379a000000000000000000000000000000000000000000000000000000000815260040161058790610f46565b60405180910390fd5b600081116105d3576040517f08c379a00000000000000000000000000000000000000000000000000000000081526004016105ca90610ee6565b60405180910390fd5b80600160003073ffffffffffffffffffffffffffffffffffffffff1673ffffffffffffffffffffffffffffffffffffffff16815260200190815260200160002060008282546106229190610fd2565b9250508190555050565b6000600160003073ffffffffffffffffffffffffffffffffffffffff1673ffffffffffffffffffffffffffffffffffffffff16815260200190815260200160002054905090565b60016020528060005260406000206000915090505481565b600047905090565b60008054906101000a900473ffffffffffffffffffffffffffffffffffffffff1681565b80600160003373ffffffffffffffffffffffffffffffffffffffff1673ffffffffffffffffffffffffffffffffffffffff168152602001908152602001600020541015610739576040517f08c379a000000000000000000000000000000000000000000000000000000000815260040161073090610f86565b60405180910390fd5b80600160003373ffffffffffffffffffffffffffffffffffffffff1673ffffffffffffffffffffffffffffffffffffffff16815260200190815260200160002060008282546107889190611082565b9250508190555080600160003073ffffffffffffffffffffffffffffffffffffffff1673ffffffffffffffffffffffffffffffffffffffff16815260200190815260200160002060008282546107de9190610fd2565b925050819055506107ee81610c75565b600260003073ffffffffffffffffffffffffffffffffffffffff1673ffffffffffffffffffffffffffffffffffffffff168152602001908152602001600020600082825461083c9190611082565b925050819055503373ffffffffffffffffffffffffffffffffffffffff166108fc60045461086984610c75565b6108739190611028565b9081150290604051600060405180830381858888f1935050505015801561089e573d6000803e3d6000fd5b5050565b60008054906101000a900473ffffffffffffffffffffffffffffffffffffffff1673ffffffffffffffffffffffffffffffffffffffff163373ffffffffffffffffffffffffffffffffffffffff1614610930576040517f08c379a000000000000000000000000000000000000000000000000000000000815260040161092790610f46565b60405180910390fd5b60008111610973576040517f08c379a000000000000000000000000000000000000000000000000000000000815260040161096a90610ea6565b60405180910390fd5b8060048190555050565b670de0b6b3a7640000816109919190611028565b3410156109d3576040517f08c379a00000000000000000000000000000000000000000000000000000000081526004016109ca90610f06565b60405180910390fd5b80600160003073ffffffffffffffffffffffffffffffffffffffff1673ffffffffffffffffffffffffffffffffffffffff168152602001908152602001600020541015610a55576040517f08c379a0000000000000000000000000000000000000000000000000000000008152600401610a4c90610f26565b60405180910390fd5b80600160003073ffffffffffffffffffffffffffffffffffffffff1673ffffffffffffffffffffffffffffffffffffffff1681526020019081526020016000206000828254610aa49190611082565b9250508190555080600160003373ffffffffffffffffffffffffffffffffffffffff1673ffffffffffffffffffffffffffffffffffffffff1681526020019081526020016000206000828254610afa9190610fd2565b9250508190555034600260003073ffffffffffffffffffffffffffffffffffffffff1673ffffffffffffffffffffffffffffffffffffffff1681526020019081526020016000206000828254610b509190610fd2565b9250508190555050565b60008054906101000a900473ffffffffffffffffffffffffffffffffffffffff1673ffffffffffffffffffffffffffffffffffffffff163373ffffffffffffffffffffffffffffffffffffffff1614610be8576040517f08c379a0000000000000000000000000000000000000000000000000000000008152600401610bdf90610f46565b60405180910390fd5b60008111610c2b576040517f08c379a0000000000000000000000000000000000000000000000000000000008152600401610c2290610ea6565b60405180910390fd5b8060038190555050565b60008060009054906101000a900473ffffffffffffffffffffffffffffffffffffffff1673ffffffffffffffffffffffffffffffffffffffff1631905090565b6000670de0b6b3a764000082610c8b9190611028565b9050919050565b6000600260003073ffffffffffffffffffffffffffffffffffffffff1673ffffffffffffffffffffffffffffffffffffffff16815260200190815260200160002054905090565b600081359050610ce881611327565b92915050565b600081359050610cfd8161133e565b92915050565b600060208284031215610d1557600080fd5b6000610d2384828501610cd9565b91505092915050565b600060208284031215610d3e57600080fd5b6000610d4c84828501610cee565b91505092915050565b610d5e816110b6565b82525050565b6000610d71602083610fc1565b9150610d7c82611121565b602082019050919050565b6000610d94601b83610fc1565b9150610d9f8261114a565b602082019050919050565b6000610db7602283610fc1565b9150610dc282611173565b604082019050919050565b6000610dda602783610fc1565b9150610de5826111c2565b604082019050919050565b6000610dfd603683610fc1565b9150610e0882611211565b604082019050919050565b6000610e20601c83610fc1565b9150610e2b82611260565b602082019050919050565b6000610e43602383610fc1565b9150610e4e82611289565b604082019050919050565b6000610e66602483610fc1565b9150610e71826112d8565b604082019050919050565b610e85816110e8565b82525050565b6000602082019050610ea06000830184610d55565b92915050565b60006020820190508181036000830152610ebf81610d64565b9050919050565b60006020820190508181036000830152610edf81610d87565b9050919050565b60006020820190508181036000830152610eff81610daa565b9050919050565b60006020820190508181036000830152610f1f81610dcd565b9050919050565b60006020820190508181036000830152610f3f81610df0565b9050919050565b60006020820190508181036000830152610f5f81610e13565b9050919050565b60006020820190508181036000830152610f7f81610e36565b9050919050565b60006020820190508181036000830152610f9f81610e59565b9050919050565b6000602082019050610fbb6000830184610e7c565b92915050565b600082825260208201905092915050565b6000610fdd826110e8565b9150610fe8836110e8565b9250827fffffffffffffffffffffffffffffffffffffffffffffffffffffffffffffffff0382111561101d5761101c6110f2565b5b828201905092915050565b6000611033826110e8565b915061103e836110e8565b9250817fffffffffffffffffffffffffffffffffffffffffffffffffffffffffffffffff0483118215151615611077576110766110f2565b5b828202905092915050565b600061108d826110e8565b9150611098836110e8565b9250828210156110ab576110aa6110f2565b5b828203905092915050565b60006110c1826110c8565b9050919050565b600073ffffffffffffffffffffffffffffffffffffffff82169050919050565b6000819050919050565b7f4e487b7100000000000000000000000000000000000000000000000000000000600052601160045260246000fd5b7f4e65772076616c7565206d75737420626520686967686572207468616e20302e600082015250565b7f4e6f7420656e6f7567682065746820746f2077697468647261772e0000000000600082015250565b7f596f752063616e277420726573746f636b2030206f72206c6573732047616d6160008201527f732e000000000000000000000000000000000000000000000000000000000000602082015250565b7f596f75206d75737420627579206174206c65617374203120657468657220706560008201527f722047616d612e00000000000000000000000000000000000000000000000000602082015250565b7f4e6f7420656e6f7567682047616d617320696e2073746f636b20746f2066756c60008201527f66696c6c20707572636861736520726571756573742e00000000000000000000602082015250565b7f4f6e6c7920746865206f6e7765722063616e206d616b65207468697300000000600082015250565b7f596f752063616e277420726573746f636b2030206f72206c657373204574686560008201527f72732e0000000000000000000000000000000000000000000000000000000000602082015250565b7f4e6f7420656e6f7567682047616d617320746f20747261646520666f7220657460008201527f6865722e00000000000000000000000000000000000000000000000000000000602082015250565b611330816110b6565b811461133b57600080fd5b50565b611347816110e8565b811461135257600080fd5b5056fea264697066735822122093d1225de80b915e292bc00eaf05d0032a6ee1518811453533f2e2f62d6911ca64736f6c63430008040033",
  "linkReferences": {},
  "deployedLinkReferences": {}
}