{
  "_format": "hh-sol-artifact-1",
  "contractName": "VendingMachine",
  "sourceName": "contracts/vending.sol",
  "abi": [
    {
      "inputs": [
        {
          "internalType": "address",
          "name": "contractAddress",
          "type": "address"
        }
      ],
      "stateMutability": "nonpayable",
      "type": "constructor"
    },
    {
      "anonymous": false,
      "inputs": [
        {
          "indexed": false,
          "internalType": "address",
          "name": "from",
          "type": "address"
        },
        {
          "indexed": false,
          "internalType": "address",
          "name": "to",
          "type": "address"
        },
        {
          "indexed": false,
          "internalType": "uint256",
          "name": "value",
          "type": "uint256"
        }
      ],
      "name": "Transfer",
      "type": "event"
    },
    {
      "inputs": [
        {
          "internalType": "address",
          "name": "",
          "type": "address"
        }
      ],
      "name": "GamaToBalances",
      "outputs": [
        {
          "internalType": "uint256",
          "name": "",
          "type": "uint256"
        }
      ],
      "stateMutability": "view",
      "type": "function"
    },
    {
      "inputs": [],
      "name": "contractBalance",
      "outputs": [
        {
          "internalType": "uint256",
          "name": "",
          "type": "uint256"
        }
      ],
      "stateMutability": "view",
      "type": "function"
    },
    {
      "inputs": [],
      "name": "getBuyerBalanceGama",
      "outputs": [
        {
          "internalType": "uint256",
          "name": "GamaToken",
          "type": "uint256"
        }
      ],
      "stateMutability": "view",
      "type": "function"
    },
    {
      "inputs": [],
      "name": "getOwner",
      "outputs": [
        {
          "internalType": "address",
          "name": "",
          "type": "address"
        }
      ],
      "stateMutability": "view",
      "type": "function"
    },
    {
      "inputs": [],
      "name": "getVendingMachineBalanceGama",
      "outputs": [
        {
          "internalType": "uint256",
          "name": "GamaToken",
          "type": "uint256"
        }
      ],
      "stateMutability": "view",
      "type": "function"
    },
    {
      "inputs": [],
      "name": "getVendingMachingBalanceEth",
      "outputs": [
        {
          "internalType": "uint256",
          "name": "EthToken",
          "type": "uint256"
        }
      ],
      "stateMutability": "view",
      "type": "function"
    },
    {
      "inputs": [],
      "name": "owner2",
      "outputs": [
        {
          "internalType": "address",
          "name": "",
          "type": "address"
        }
      ],
      "stateMutability": "view",
      "type": "function"
    },
    {
      "inputs": [],
      "name": "ownerBalance",
      "outputs": [
        {
          "internalType": "uint256",
          "name": "",
          "type": "uint256"
        }
      ],
      "stateMutability": "view",
      "type": "function"
    },
    {
      "inputs": [
        {
          "internalType": "uint256",
          "name": "amount",
          "type": "uint256"
        }
      ],
      "name": "purchaseGama",
      "outputs": [],
      "stateMutability": "payable",
      "type": "function"
    },
    {
      "inputs": [],
      "name": "restockEth",
      "outputs": [],
      "stateMutability": "payable",
      "type": "function"
    },
    {
      "inputs": [],
      "name": "restockGama",
      "outputs": [],
      "stateMutability": "nonpayable",
      "type": "function"
    },
    {
      "inputs": [
        {
          "internalType": "uint256",
          "name": "amount",
          "type": "uint256"
        }
      ],
      "name": "sellingGama",
      "outputs": [],
      "stateMutability": "nonpayable",
      "type": "function"
    },
    {
      "inputs": [
        {
          "internalType": "uint256",
          "name": "newValue",
          "type": "uint256"
        }
      ],
      "name": "setGamaBuyValue",
      "outputs": [],
      "stateMutability": "nonpayable",
      "type": "function"
    },
    {
      "inputs": [
        {
          "internalType": "uint256",
          "name": "newValue",
          "type": "uint256"
        }
      ],
      "name": "setGamaSellValue",
      "outputs": [],
      "stateMutability": "nonpayable",
      "type": "function"
    },
    {
      "inputs": [
        {
          "internalType": "uint256",
          "name": "amountWithdraw",
          "type": "uint256"
        }
      ],
      "name": "toWithdraw",
      "outputs": [],
      "stateMutability": "payable",
      "type": "function"
    },
    {
      "inputs": [
        {
          "internalType": "uint256",
          "name": "amount",
          "type": "uint256"
        }
      ],
      "name": "weiToEther",
      "outputs": [
        {
          "internalType": "uint256",
          "name": "weiEther",
          "type": "uint256"
        }
      ],
      "stateMutability": "pure",
      "type": "function"
    }
  ],
  "bytecode": "0x60806040523480156200001157600080fd5b506040516200196b3803806200196b8339818101604052810190620000379190620000e6565b336000806101000a81548173ffffffffffffffffffffffffffffffffffffffff021916908373ffffffffffffffffffffffffffffffffffffffff1602179055506001600281905550600160038190555080600460006101000a81548173ffffffffffffffffffffffffffffffffffffffff021916908373ffffffffffffffffffffffffffffffffffffffff1602179055505062000160565b600081519050620000e08162000146565b92915050565b600060208284031215620000f957600080fd5b60006200010984828501620000cf565b91505092915050565b60006200011f8262000126565b9050919050565b600073ffffffffffffffffffffffffffffffffffffffff82169050919050565b620001518162000112565b81146200015d57600080fd5b50565b6117fb80620001706000396000f3fe6080604052600436106100f35760003560e01c80638b7afe2e1161008a578063a36b98ed11610059578063a36b98ed146102b7578063bedcf003146102e0578063d0eff8911461030b578063d973eec114610348576100f3565b80638b7afe2e1461021e57806392ab4dd41461024957806394a5a7b41461027257806399d5dcae1461029b576100f3565b806344ca7eec116100c657806344ca7eec14610160578063527097251461018b57806355c21a2b146101b6578063893d20e8146101f3576100f3565b80630d82c853146100f857806319ceb003146101145780632047478c1461011e57806334d2880914610149575b600080fd5b610112600480360381019061010d9190610f98565b610373565b005b61011c6104d1565b005b34801561012a57600080fd5b506101336105a4565b60405161014091906112cf565b60405180910390f35b34801561015557600080fd5b5061015e61060c565b005b34801561016c57600080fd5b50610175610859565b60405161018291906112cf565b60405180910390f35b34801561019757600080fd5b506101a06108a0565b6040516101ad919061113d565b60405180910390f35b3480156101c257600080fd5b506101dd60048036038101906101d89190610f46565b6108c4565b6040516101ea91906112cf565b60405180910390f35b3480156101ff57600080fd5b506102086108dc565b604051610215919061113d565b60405180910390f35b34801561022a57600080fd5b50610233610905565b60405161024091906112cf565b60405180910390f35b34801561025557600080fd5b50610270600480360381019061026b9190610f98565b61090d565b005b34801561027e57600080fd5b5061029960048036038101906102949190610f98565b610ad5565b005b6102b560048036038101906102b09190610f98565b610bb0565b005b3480156102c357600080fd5b506102de60048036038101906102d99190610f98565b610dc7565b005b3480156102ec57600080fd5b506102f5610ea2565b60405161030291906112cf565b60405180910390f35b34801561031757600080fd5b50610332600480360381019061032d9190610f98565b610ee2565b60405161033f91906112cf565b60405180910390f35b34801561035457600080fd5b5061035d610eff565b60405161036a91906112cf565b60405180910390f35b60008054906101000a900473ffffffffffffffffffffffffffffffffffffffff1673ffffffffffffffffffffffffffffffffffffffff163373ffffffffffffffffffffffffffffffffffffffff1614610401576040517f08c379a00000000000000000000000000000000000000000000000000000000081526004016103f89061124f565b60405180910390fd5b47811115610444576040517f08c379a000000000000000000000000000000000000000000000000000000000815260040161043b906111af565b60405180910390fd5b3373ffffffffffffffffffffffffffffffffffffffff166108fc61046783610ee2565b9081150290604051600060405180830381858888f19350505050158015610492573d6000803e3d6000fd5b507fddf252ad1be2c89b69c2b068fc378daa952ba7f163c4a11628f55a4df523b3ef3033836040516104c693929190611158565b60405180910390a150565b60008054906101000a900473ffffffffffffffffffffffffffffffffffffffff1673ffffffffffffffffffffffffffffffffffffffff163373ffffffffffffffffffffffffffffffffffffffff161461055f576040517f08c379a00000000000000000000000000000000000000000000000000000000081526004016105569061124f565b60405180910390fd5b600034116105a2576040517f08c379a00000000000000000000000000000000000000000000000000000000081526004016105999061126f565b60405180910390fd5b565b6000600160008060009054906101000a900473ffffffffffffffffffffffffffffffffffffffff1673ffffffffffffffffffffffffffffffffffffffff1673ffffffffffffffffffffffffffffffffffffffff16815260200190815260200160002054905090565b60008054906101000a900473ffffffffffffffffffffffffffffffffffffffff1673ffffffffffffffffffffffffffffffffffffffff163373ffffffffffffffffffffffffffffffffffffffff161461069a576040517f08c379a00000000000000000000000000000000000000000000000000000000081526004016106919061124f565b60405180910390fd5b60326106a4610859565b106106e4576040517f08c379a00000000000000000000000000000000000000000000000000000000081526004016106db906111ef565b60405180910390fd5b60006103e890506000811161072e576040517f08c379a0000000000000000000000000000000000000000000000000000000008152600401610725906111cf565b60405180910390fd5b600460009054906101000a900473ffffffffffffffffffffffffffffffffffffffff1673ffffffffffffffffffffffffffffffffffffffff166323b872dd60008054906101000a900473ffffffffffffffffffffffffffffffffffffffff1630846040518463ffffffff1660e01b81526004016107ad93929190611158565b602060405180830381600087803b1580156107c757600080fd5b505af11580156107db573d6000803e3d6000fd5b505050506040513d601f19601f820116820180604052508101906107ff9190610f6f565b5080600160003073ffffffffffffffffffffffffffffffffffffffff1673ffffffffffffffffffffffffffffffffffffffff168152602001908152602001600020600082825461084f91906112fb565b9250508190555050565b6000600160003073ffffffffffffffffffffffffffffffffffffffff1673ffffffffffffffffffffffffffffffffffffffff16815260200190815260200160002054905090565b60008054906101000a900473ffffffffffffffffffffffffffffffffffffffff1681565b60016020528060005260406000206000915090505481565b60008060009054906101000a900473ffffffffffffffffffffffffffffffffffffffff16905090565b600047905090565b80600160003373ffffffffffffffffffffffffffffffffffffffff1673ffffffffffffffffffffffffffffffffffffffff16815260200190815260200160002054101561098f576040517f08c379a0000000000000000000000000000000000000000000000000000000008152600401610986906112af565b60405180910390fd5b80600160003373ffffffffffffffffffffffffffffffffffffffff1673ffffffffffffffffffffffffffffffffffffffff16815260200190815260200160002060008282546109de91906113dc565b9250508190555080600160003073ffffffffffffffffffffffffffffffffffffffff1673ffffffffffffffffffffffffffffffffffffffff1681526020019081526020016000206000828254610a3491906112fb565b925050819055503373ffffffffffffffffffffffffffffffffffffffff166108fc600354610a6184610ee2565b610a6b9190611382565b9081150290604051600060405180830381858888f19350505050158015610a96573d6000803e3d6000fd5b507fddf252ad1be2c89b69c2b068fc378daa952ba7f163c4a11628f55a4df523b3ef333083604051610aca93929190611158565b60405180910390a150565b60008054906101000a900473ffffffffffffffffffffffffffffffffffffffff1673ffffffffffffffffffffffffffffffffffffffff163373ffffffffffffffffffffffffffffffffffffffff1614610b63576040517f08c379a0000000000000000000000000000000000000000000000000000000008152600401610b5a9061124f565b60405180910390fd5b60008111610ba6576040517f08c379a0000000000000000000000000000000000000000000000000000000008152600401610b9d9061118f565b60405180910390fd5b8060038190555050565b6000670de0b6b3a764000034610bc69190611351565b90508160025482610bd79190611382565b14610c17576040517f08c379a0000000000000000000000000000000000000000000000000000000008152600401610c0e9061120f565b60405180910390fd5b60003411610c5a576040517f08c379a0000000000000000000000000000000000000000000000000000000008152600401610c519061128f565b60405180910390fd5b81600160003073ffffffffffffffffffffffffffffffffffffffff1673ffffffffffffffffffffffffffffffffffffffff168152602001908152602001600020541015610cdc576040517f08c379a0000000000000000000000000000000000000000000000000000000008152600401610cd39061122f565b60405180910390fd5b81600160003073ffffffffffffffffffffffffffffffffffffffff1673ffffffffffffffffffffffffffffffffffffffff1681526020019081526020016000206000828254610d2b91906113dc565b9250508190555081600160003373ffffffffffffffffffffffffffffffffffffffff1673ffffffffffffffffffffffffffffffffffffffff1681526020019081526020016000206000828254610d8191906112fb565b925050819055507fddf252ad1be2c89b69c2b068fc378daa952ba7f163c4a11628f55a4df523b3ef303384604051610dbb93929190611158565b60405180910390a15050565b60008054906101000a900473ffffffffffffffffffffffffffffffffffffffff1673ffffffffffffffffffffffffffffffffffffffff163373ffffffffffffffffffffffffffffffffffffffff1614610e55576040517f08c379a0000000000000000000000000000000000000000000000000000000008152600401610e4c9061124f565b60405180910390fd5b60008111610e98576040517f08c379a0000000000000000000000000000000000000000000000000000000008152600401610e8f9061118f565b60405180910390fd5b8060028190555050565b60008060009054906101000a900473ffffffffffffffffffffffffffffffffffffffff1673ffffffffffffffffffffffffffffffffffffffff1631905090565b6000670de0b6b3a764000082610ef89190611382565b9050919050565b600047905090565b600081359050610f1681611780565b92915050565b600081519050610f2b81611797565b92915050565b600081359050610f40816117ae565b92915050565b600060208284031215610f5857600080fd5b6000610f6684828501610f07565b91505092915050565b600060208284031215610f8157600080fd5b6000610f8f84828501610f1c565b91505092915050565b600060208284031215610faa57600080fd5b6000610fb884828501610f31565b91505092915050565b610fca81611410565b82525050565b6000610fdd6020836112ea565b9150610fe8826114b6565b602082019050919050565b6000611000601b836112ea565b915061100b826114df565b602082019050919050565b60006110236022836112ea565b915061102e82611508565b604082019050919050565b60006110466029836112ea565b915061105182611557565b604082019050919050565b60006110696041836112ea565b9150611074826115a6565b606082019050919050565b600061108c6036836112ea565b91506110978261161b565b604082019050919050565b60006110af601c836112ea565b91506110ba8261166a565b602082019050919050565b60006110d26023836112ea565b91506110dd82611693565b604082019050919050565b60006110f56021836112ea565b9150611100826116e2565b604082019050919050565b60006111186024836112ea565b915061112382611731565b604082019050919050565b6111378161144e565b82525050565b60006020820190506111526000830184610fc1565b92915050565b600060608201905061116d6000830186610fc1565b61117a6020830185610fc1565b611187604083018461112e565b949350505050565b600060208201905081810360008301526111a881610fd0565b9050919050565b600060208201905081810360008301526111c881610ff3565b9050919050565b600060208201905081810360008301526111e881611016565b9050919050565b6000602082019050818103600083015261120881611039565b9050919050565b600060208201905081810360008301526112288161105c565b9050919050565b600060208201905081810360008301526112488161107f565b9050919050565b60006020820190508181036000830152611268816110a2565b9050919050565b60006020820190508181036000830152611288816110c5565b9050919050565b600060208201905081810360008301526112a8816110e8565b9050919050565b600060208201905081810360008301526112c88161110b565b9050919050565b60006020820190506112e4600083018461112e565b92915050565b600082825260208201905092915050565b60006113068261144e565b91506113118361144e565b9250827fffffffffffffffffffffffffffffffffffffffffffffffffffffffffffffffff0382111561134657611345611458565b5b828201905092915050565b600061135c8261144e565b91506113678361144e565b92508261137757611376611487565b5b828204905092915050565b600061138d8261144e565b91506113988361144e565b9250817fffffffffffffffffffffffffffffffffffffffffffffffffffffffffffffffff04831182151516156113d1576113d0611458565b5b828202905092915050565b60006113e78261144e565b91506113f28361144e565b92508282101561140557611404611458565b5b828203905092915050565b600061141b8261142e565b9050919050565b60008115159050919050565b600073ffffffffffffffffffffffffffffffffffffffff82169050919050565b6000819050919050565b7f4e487b7100000000000000000000000000000000000000000000000000000000600052601160045260246000fd5b7f4e487b7100000000000000000000000000000000000000000000000000000000600052601260045260246000fd5b7f4e65772076616c7565206d75737420626520686967686572207468616e20302e600082015250565b7f4e6f7420656e6f7567682065746820746f2077697468647261772e0000000000600082015250565b7f596f752063616e277420726573746f636b2030206f72206c6573732047616d6160008201527f732e000000000000000000000000000000000000000000000000000000000000602082015250565b7f596f75206e65656420746f2068617665206c657373207468616e20353020746f60008201527f20726573746f636b2e0000000000000000000000000000000000000000000000602082015250565b7f506c65617365207175616e74697479206f6620657468657273206d757374206260008201527f652070726f706f7274696f6e616c20746f20746865207072696365207261746960208201527f6f00000000000000000000000000000000000000000000000000000000000000604082015250565b7f4e6f7420656e6f7567682047616d617320696e2073746f636b20746f2066756c60008201527f66696c6c20707572636861736520726571756573742e00000000000000000000602082015250565b7f4f6e6c7920746865206f6e7765722063616e206d616b65207468697300000000600082015250565b7f596f752063616e277420726573746f636b2030206f72206c657373204574686560008201527f72732e0000000000000000000000000000000000000000000000000000000000602082015250565b7f4572726f2c206e6f7420656e6f7567682065746865727320746f20747261646560008201527f2e00000000000000000000000000000000000000000000000000000000000000602082015250565b7f4e6f7420656e6f7567682047616d617320746f20747261646520666f7220657460008201527f6865722e00000000000000000000000000000000000000000000000000000000602082015250565b61178981611410565b811461179457600080fd5b50565b6117a081611422565b81146117ab57600080fd5b50565b6117b78161144e565b81146117c257600080fd5b5056fea2646970667358221220d24ac7930848943b503d8e07d81059fd7b9ca5f26466c0663346311e7653a8ec64736f6c63430008040033",
  "linkReferences": {},
  "deployedLinkReferences": {}
}