{
  "_format": "hh-sol-artifact-1",
  "contractName": "Math",
  "sourceName": "contracts/libs.sol",
  "abi": [
    {
      "inputs": [
        {
          "internalType": "uint256",
          "name": "a",
          "type": "uint256"
        },
        {
          "internalType": "uint256",
          "name": "b",
          "type": "uint256"
        }
      ],
      "name": "percent",
      "outputs": [
        {
          "internalType": "uint256",
          "name": "",
          "type": "uint256"
        }
      ],
      "stateMutability": "pure",
      "type": "function"
    }
  ],
  "bytecode": "0x61028b610053600b82828239805160001a607314610046577f4e487b7100000000000000000000000000000000000000000000000000000000600052600060045260246000fd5b30600052607381538281f3fe73000000000000000000000000000000000000000030146080604052600436106100355760003560e01c806342318e3d1461003a575b600080fd5b610054600480360381019061004f91906100b1565b61006a565b60405161006191906100fc565b60405180910390f35b6000806064838561007b9190610148565b6100859190610117565b8461009091906101a2565b90508091505092915050565b6000813590506100ab8161023e565b92915050565b600080604083850312156100c457600080fd5b60006100d28582860161009c565b92505060206100e38582860161009c565b9150509250929050565b6100f6816101d6565b82525050565b600060208201905061011160008301846100ed565b92915050565b6000610122826101d6565b915061012d836101d6565b92508261013d5761013c61020f565b5b828204905092915050565b6000610153826101d6565b915061015e836101d6565b9250817fffffffffffffffffffffffffffffffffffffffffffffffffffffffffffffffff0483118215151615610197576101966101e0565b5b828202905092915050565b60006101ad826101d6565b91506101b8836101d6565b9250828210156101cb576101ca6101e0565b5b828203905092915050565b6000819050919050565b7f4e487b7100000000000000000000000000000000000000000000000000000000600052601160045260246000fd5b7f4e487b7100000000000000000000000000000000000000000000000000000000600052601260045260246000fd5b610247816101d6565b811461025257600080fd5b5056fea2646970667358221220cb6f0124b7f4ef103a526bda7c6b3ea30188b345ac67586e87b6d0254f408b6464736f6c63430008040033",
  "linkReferences": {},
  "deployedLinkReferences": {}
}