{
  "_format": "hh-sol-artifact-1",
  "contractName": "CryptoToken",
  "sourceName": "contracts/token.sol",
  "abi": [
    {
      "inputs": [],
      "stateMutability": "nonpayable",
      "type": "constructor"
    },
    {
      "anonymous": false,
      "inputs": [
        {
          "indexed": false,
          "internalType": "address",
          "name": "from",
          "type": "address"
        },
        {
          "indexed": false,
          "internalType": "address",
          "name": "to",
          "type": "address"
        },
        {
          "indexed": false,
          "internalType": "uint256",
          "name": "value",
          "type": "uint256"
        }
      ],
      "name": "Transfer",
      "type": "event"
    },
    {
      "inputs": [],
      "name": "activeContract",
      "outputs": [],
      "stateMutability": "nonpayable",
      "type": "function"
    },
    {
      "inputs": [
        {
          "internalType": "uint256",
          "name": "value",
          "type": "uint256"
        }
      ],
      "name": "autoBurn",
      "outputs": [],
      "stateMutability": "nonpayable",
      "type": "function"
    },
    {
      "inputs": [
        {
          "internalType": "address",
          "name": "tokenOwner",
          "type": "address"
        }
      ],
      "name": "balanceOf",
      "outputs": [
        {
          "internalType": "uint256",
          "name": "",
          "type": "uint256"
        }
      ],
      "stateMutability": "view",
      "type": "function"
    },
    {
      "inputs": [
        {
          "internalType": "uint256",
          "name": "value",
          "type": "uint256"
        }
      ],
      "name": "burn",
      "outputs": [
        {
          "internalType": "bool",
          "name": "",
          "type": "bool"
        }
      ],
      "stateMutability": "nonpayable",
      "type": "function"
    },
    {
      "inputs": [],
      "name": "cancelContract",
      "outputs": [],
      "stateMutability": "nonpayable",
      "type": "function"
    },
    {
      "inputs": [],
      "name": "decimals",
      "outputs": [
        {
          "internalType": "uint8",
          "name": "",
          "type": "uint8"
        }
      ],
      "stateMutability": "view",
      "type": "function"
    },
    {
      "inputs": [],
      "name": "kill",
      "outputs": [],
      "stateMutability": "nonpayable",
      "type": "function"
    },
    {
      "inputs": [],
      "name": "mintToken",
      "outputs": [],
      "stateMutability": "nonpayable",
      "type": "function"
    },
    {
      "inputs": [],
      "name": "name",
      "outputs": [
        {
          "internalType": "string",
          "name": "",
          "type": "string"
        }
      ],
      "stateMutability": "view",
      "type": "function"
    },
    {
      "inputs": [],
      "name": "pauseContract",
      "outputs": [],
      "stateMutability": "nonpayable",
      "type": "function"
    },
    {
      "inputs": [],
      "name": "state",
      "outputs": [
        {
          "internalType": "enum CryptoToken.Status",
          "name": "",
          "type": "uint8"
        }
      ],
      "stateMutability": "view",
      "type": "function"
    },
    {
      "inputs": [],
      "name": "symbol",
      "outputs": [
        {
          "internalType": "string",
          "name": "",
          "type": "string"
        }
      ],
      "stateMutability": "view",
      "type": "function"
    },
    {
      "inputs": [],
      "name": "totalSupply",
      "outputs": [
        {
          "internalType": "uint256",
          "name": "",
          "type": "uint256"
        }
      ],
      "stateMutability": "view",
      "type": "function"
    },
    {
      "inputs": [
        {
          "internalType": "address",
          "name": "receiver",
          "type": "address"
        },
        {
          "internalType": "uint256",
          "name": "quantity",
          "type": "uint256"
        }
      ],
      "name": "transfer",
      "outputs": [
        {
          "internalType": "bool",
          "name": "",
          "type": "bool"
        }
      ],
      "stateMutability": "nonpayable",
      "type": "function"
    }
  ],
  "bytecode": "0x608060405234801561001057600080fd5b506000606490508060008190555033600260006101000a81548173ffffffffffffffffffffffffffffffffffffffff021916908373ffffffffffffffffffffffffffffffffffffffff16021790555060005460056000600260009054906101000a900473ffffffffffffffffffffffffffffffffffffffff1673ffffffffffffffffffffffffffffffffffffffff1673ffffffffffffffffffffffffffffffffffffffff168152602001908152602001600020819055506003600260009054906101000a900473ffffffffffffffffffffffffffffffffffffffff169080600181540180825580915050600190039060005260206000200160009091909190916101000a81548173ffffffffffffffffffffffffffffffffffffffff021916908373ffffffffffffffffffffffffffffffffffffffff1602179055506000600460146101000a81548160ff02191690836003811115610198577f4e487b7100000000000000000000000000000000000000000000000000000000600052602160045260246000fd5b021790555050611e4b806101ad6000396000f3fe608060405234801561001057600080fd5b50600436106100ea5760003560e01c8063439766ce1161008c57806395d89b411161006657806395d89b41146101ed578063a9059cbb1461020b578063c19d93fb1461023b578063de4a038614610259576100ea565b8063439766ce1461019757806370a08231146101a15780637c70885e146101d1576100ea565b80632b68bb2d116100c85780632b68bb2d14610135578063313ce5671461013f57806341c0e1b51461015d57806342966c6814610167576100ea565b806306fdde03146100ef57806318160ddd1461010d5780632004ffd91461012b575b600080fd5b6100f7610263565b60405161010491906119eb565b60405180910390f35b61011561029c565b6040516101229190611a8d565b60405180910390f35b610133610367565b005b61013d610606565b005b6101476106e9565b6040516101549190611ad1565b60405180910390f35b6101656106ee565b005b610181600480360381019061017c91906117c7565b6108cc565b60405161018e91906119b5565b60405180910390f35b61019f610e6e565b005b6101bb60048036038101906101b69190611762565b610f51565b6040516101c89190611a8d565b60405180910390f35b6101eb60048036038101906101e691906117c7565b61105b565b005b6101f56111c3565b60405161020291906119eb565b60405180910390f35b6102256004803603810190610220919061178b565b6111fc565b60405161023291906119b5565b60405180910390f35b610243611629565b60405161025091906119d0565b60405180910390f35b610261611640565b005b6040518060400160405280600b81526020017f43727970746f546f6b656e00000000000000000000000000000000000000000081525081565b60008060038111156102d7577f4e487b7100000000000000000000000000000000000000000000000000000000600052602160045260246000fd5b600460149054906101000a900460ff16600381111561031f577f4e487b7100000000000000000000000000000000000000000000000000000000600052602160045260246000fd5b1461035f576040517f08c379a000000000000000000000000000000000000000000000000000000000815260040161035690611a4d565b60405180910390fd5b600054905090565b600260009054906101000a900473ffffffffffffffffffffffffffffffffffffffff1673ffffffffffffffffffffffffffffffffffffffff163373ffffffffffffffffffffffffffffffffffffffff16146103f7576040517f08c379a00000000000000000000000000000000000000000000000000000000081526004016103ee90611a6d565b60405180910390fd5b60006003811115610431577f4e487b7100000000000000000000000000000000000000000000000000000000600052602160045260246000fd5b600460149054906101000a900460ff166003811115610479577f4e487b7100000000000000000000000000000000000000000000000000000000600052602160045260246000fd5b146104b9576040517f08c379a00000000000000000000000000000000000000000000000000000000081526004016104b090611a4d565b60405180910390fd5b60006032905060336104ec600260009054906101000a900473ffffffffffffffffffffffffffffffffffffffff16610f51565b101561060357806000808282546105039190611b08565b925050819055508060056000600260009054906101000a900473ffffffffffffffffffffffffffffffffffffffff1673ffffffffffffffffffffffffffffffffffffffff1673ffffffffffffffffffffffffffffffffffffffff168152602001908152602001600020600082825461057b9190611b08565b925050819055507fddf252ad1be2c89b69c2b068fc378daa952ba7f163c4a11628f55a4df523b3ef600260009054906101000a900473ffffffffffffffffffffffffffffffffffffffff16600260009054906101000a900473ffffffffffffffffffffffffffffffffffffffff1660326040516105fa93929190611947565b60405180910390a15b50565b600260009054906101000a900473ffffffffffffffffffffffffffffffffffffffff1673ffffffffffffffffffffffffffffffffffffffff163373ffffffffffffffffffffffffffffffffffffffff1614610696576040517f08c379a000000000000000000000000000000000000000000000000000000000815260040161068d90611a6d565b60405180910390fd5b6002600460146101000a81548160ff021916908360038111156106e2577f4e487b7100000000000000000000000000000000000000000000000000000000600052602160045260246000fd5b0217905550565b600381565b600260009054906101000a900473ffffffffffffffffffffffffffffffffffffffff1673ffffffffffffffffffffffffffffffffffffffff163373ffffffffffffffffffffffffffffffffffffffff161461077e576040517f08c379a000000000000000000000000000000000000000000000000000000000815260040161077590611a6d565b60405180910390fd5b600260038111156107b8577f4e487b7100000000000000000000000000000000000000000000000000000000600052602160045260246000fd5b600460149054906101000a900460ff166003811115610800577f4e487b7100000000000000000000000000000000000000000000000000000000600052602160045260246000fd5b14610840576040517f08c379a000000000000000000000000000000000000000000000000000000000815260040161083790611a2d565b60405180910390fd5b6003600460146101000a81548160ff0219169083600381111561088c577f4e487b7100000000000000000000000000000000000000000000000000000000600052602160045260246000fd5b0217905550600260009054906101000a900473ffffffffffffffffffffffffffffffffffffffff1673ffffffffffffffffffffffffffffffffffffffff16ff5b6000600260009054906101000a900473ffffffffffffffffffffffffffffffffffffffff1673ffffffffffffffffffffffffffffffffffffffff163373ffffffffffffffffffffffffffffffffffffffff161461095e576040517f08c379a000000000000000000000000000000000000000000000000000000000815260040161095590611a6d565b60405180910390fd5b60006003811115610998577f4e487b7100000000000000000000000000000000000000000000000000000000600052602160045260246000fd5b600460149054906101000a900460ff1660038111156109e0577f4e487b7100000000000000000000000000000000000000000000000000000000600052602160045260246000fd5b14610a20576040517f08c379a0000000000000000000000000000000000000000000000000000000008152600401610a1790611a4d565b60405180910390fd5b73f000000000000000000000000000000000000000600460006101000a81548173ffffffffffffffffffffffffffffffffffffffff021916908373ffffffffffffffffffffffffffffffffffffffff16021790555060005b600380549050811015610dd1576005600060038381548110610ac3577f4e487b7100000000000000000000000000000000000000000000000000000000600052603260045260246000fd5b9060005260206000200160009054906101000a900473ffffffffffffffffffffffffffffffffffffffff1673ffffffffffffffffffffffffffffffffffffffff1673ffffffffffffffffffffffffffffffffffffffff1681526020019081526020016000205473__$8af750303d7f290c4ae9ad683e018644cd$__6342318e3d9091856040518363ffffffff1660e01b8152600401610b63929190611aa8565b60206040518083038186803b158015610b7b57600080fd5b505af4158015610b8f573d6000803e3d6000fd5b505050506040513d601f19601f82011682018060405250810190610bb391906117f0565b6005600060038481548110610bf1577f4e487b7100000000000000000000000000000000000000000000000000000000600052603260045260246000fd5b9060005260206000200160009054906101000a900473ffffffffffffffffffffffffffffffffffffffff1673ffffffffffffffffffffffffffffffffffffffff1673ffffffffffffffffffffffffffffffffffffffff168152602001908152602001600020819055507fddf252ad1be2c89b69c2b068fc378daa952ba7f163c4a11628f55a4df523b3ef60038281548110610cb5577f4e487b7100000000000000000000000000000000000000000000000000000000600052603260045260246000fd5b9060005260206000200160009054906101000a900473ffffffffffffffffffffffffffffffffffffffff16600460009054906101000a900473ffffffffffffffffffffffffffffffffffffffff166005600060038681548110610d41577f4e487b7100000000000000000000000000000000000000000000000000000000600052603260045260246000fd5b9060005260206000200160009054906101000a900473ffffffffffffffffffffffffffffffffffffffff1673ffffffffffffffffffffffffffffffffffffffff1673ffffffffffffffffffffffffffffffffffffffff16815260200190815260200160002054604051610db69392919061197e565b60405180910390a18080610dc990611c51565b915050610a78565b5060005473__$8af750303d7f290c4ae9ad683e018644cd$__6342318e3d9091846040518363ffffffff1660e01b8152600401610e0f929190611aa8565b60206040518083038186803b158015610e2757600080fd5b505af4158015610e3b573d6000803e3d6000fd5b505050506040513d601f19601f82011682018060405250810190610e5f91906117f0565b60008190555060019050919050565b600260009054906101000a900473ffffffffffffffffffffffffffffffffffffffff1673ffffffffffffffffffffffffffffffffffffffff163373ffffffffffffffffffffffffffffffffffffffff1614610efe576040517f08c379a0000000000000000000000000000000000000000000000000000000008152600401610ef590611a6d565b60405180910390fd5b6001600460146101000a81548160ff02191690836003811115610f4a577f4e487b7100000000000000000000000000000000000000000000000000000000600052602160045260246000fd5b0217905550565b6000806003811115610f8c577f4e487b7100000000000000000000000000000000000000000000000000000000600052602160045260246000fd5b600460149054906101000a900460ff166003811115610fd4577f4e487b7100000000000000000000000000000000000000000000000000000000600052602160045260246000fd5b14611014576040517f08c379a000000000000000000000000000000000000000000000000000000000815260040161100b90611a4d565b60405180910390fd5b600560008373ffffffffffffffffffffffffffffffffffffffff1673ffffffffffffffffffffffffffffffffffffffff168152602001908152602001600020549050919050565b600260009054906101000a900473ffffffffffffffffffffffffffffffffffffffff1673ffffffffffffffffffffffffffffffffffffffff163373ffffffffffffffffffffffffffffffffffffffff16146110eb576040517f08c379a00000000000000000000000000000000000000000000000000000000081526004016110e290611a6d565b60405180910390fd5b60006003811115611125577f4e487b7100000000000000000000000000000000000000000000000000000000600052602160045260246000fd5b600460149054906101000a900460ff16600381111561116d577f4e487b7100000000000000000000000000000000000000000000000000000000600052602160045260246000fd5b146111ad576040517f08c379a00000000000000000000000000000000000000000000000000000000081526004016111a490611a4d565b60405180910390fd5b806001819055506111bf6001546108cc565b5050565b6040518060400160405280600381526020017f435259000000000000000000000000000000000000000000000000000000000081525081565b6000600260009054906101000a900473ffffffffffffffffffffffffffffffffffffffff1673ffffffffffffffffffffffffffffffffffffffff163373ffffffffffffffffffffffffffffffffffffffff161461128e576040517f08c379a000000000000000000000000000000000000000000000000000000000815260040161128590611a6d565b60405180910390fd5b600060038111156112c8577f4e487b7100000000000000000000000000000000000000000000000000000000600052602160045260246000fd5b600460149054906101000a900460ff166003811115611310577f4e487b7100000000000000000000000000000000000000000000000000000000600052602160045260246000fd5b14611350576040517f08c379a000000000000000000000000000000000000000000000000000000000815260040161134790611a4d565b60405180910390fd5b60056000600260009054906101000a900473ffffffffffffffffffffffffffffffffffffffff1673ffffffffffffffffffffffffffffffffffffffff1673ffffffffffffffffffffffffffffffffffffffff168152602001908152602001600020548211156113f4576040517f08c379a00000000000000000000000000000000000000000000000000000000081526004016113eb90611a0d565b60405180910390fd5b8160056000600260009054906101000a900473ffffffffffffffffffffffffffffffffffffffff1673ffffffffffffffffffffffffffffffffffffffff1673ffffffffffffffffffffffffffffffffffffffff168152602001908152602001600020546114619190611b5e565b60056000600260009054906101000a900473ffffffffffffffffffffffffffffffffffffffff1673ffffffffffffffffffffffffffffffffffffffff1673ffffffffffffffffffffffffffffffffffffffff1681526020019081526020016000208190555081600560008573ffffffffffffffffffffffffffffffffffffffff1673ffffffffffffffffffffffffffffffffffffffff168152602001908152602001600020546115119190611b08565b600560008573ffffffffffffffffffffffffffffffffffffffff1673ffffffffffffffffffffffffffffffffffffffff168152602001908152602001600020819055506003839080600181540180825580915050600190039060005260206000200160009091909190916101000a81548173ffffffffffffffffffffffffffffffffffffffff021916908373ffffffffffffffffffffffffffffffffffffffff1602179055506115c260015461105b565b7fddf252ad1be2c89b69c2b068fc378daa952ba7f163c4a11628f55a4df523b3ef600260009054906101000a900473ffffffffffffffffffffffffffffffffffffffff1684846040516116179392919061197e565b60405180910390a16001905092915050565b6000600460149054906101000a900460ff16905090565b600260009054906101000a900473ffffffffffffffffffffffffffffffffffffffff1673ffffffffffffffffffffffffffffffffffffffff163373ffffffffffffffffffffffffffffffffffffffff16146116d0576040517f08c379a00000000000000000000000000000000000000000000000000000000081526004016116c790611a6d565b60405180910390fd5b6000600460146101000a81548160ff0219169083600381111561171c577f4e487b7100000000000000000000000000000000000000000000000000000000600052602160045260246000fd5b0217905550565b60008135905061173281611de7565b92915050565b60008135905061174781611dfe565b92915050565b60008151905061175c81611dfe565b92915050565b60006020828403121561177457600080fd5b600061178284828501611723565b91505092915050565b6000806040838503121561179e57600080fd5b60006117ac85828601611723565b92505060206117bd85828601611738565b9150509250929050565b6000602082840312156117d957600080fd5b60006117e784828501611738565b91505092915050565b60006020828403121561180257600080fd5b60006118108482850161174d565b91505092915050565b61182281611b92565b82525050565b61183181611ba4565b82525050565b61184081611bfa565b82525050565b61184f81611c0c565b82525050565b600061186082611aec565b61186a8185611af7565b935061187a818560208601611c1e565b61188381611cf8565b840191505092915050565b600061189b602083611af7565b91506118a682611d09565b602082019050919050565b60006118be601683611af7565b91506118c982611d32565b602082019050919050565b60006118e1602483611af7565b91506118ec82611d5b565b604082019050919050565b6000611904601483611af7565b915061190f82611daa565b602082019050919050565b61192381611be3565b82525050565b61193281611be3565b82525050565b61194181611bed565b82525050565b600060608201905061195c6000830186611819565b6119696020830185611819565b6119766040830184611846565b949350505050565b60006060820190506119936000830186611819565b6119a06020830185611819565b6119ad604083018461191a565b949350505050565b60006020820190506119ca6000830184611828565b92915050565b60006020820190506119e56000830184611837565b92915050565b60006020820190508181036000830152611a058184611855565b905092915050565b60006020820190508181036000830152611a268161188e565b9050919050565b60006020820190508181036000830152611a46816118b1565b9050919050565b60006020820190508181036000830152611a66816118d4565b9050919050565b60006020820190508181036000830152611a86816118f7565b9050919050565b6000602082019050611aa2600083018461191a565b92915050565b6000604082019050611abd6000830185611929565b611aca6020830184611929565b9392505050565b6000602082019050611ae66000830184611938565b92915050565b600081519050919050565b600082825260208201905092915050565b6000611b1382611be3565b9150611b1e83611be3565b9250827fffffffffffffffffffffffffffffffffffffffffffffffffffffffffffffffff03821115611b5357611b52611c9a565b5b828201905092915050565b6000611b6982611be3565b9150611b7483611be3565b925082821015611b8757611b86611c9a565b5b828203905092915050565b6000611b9d82611bc3565b9050919050565b60008115159050919050565b6000819050611bbe82611dd3565b919050565b600073ffffffffffffffffffffffffffffffffffffffff82169050919050565b6000819050919050565b600060ff82169050919050565b6000611c0582611bb0565b9050919050565b6000611c1782611be3565b9050919050565b60005b83811015611c3c578082015181840152602081019050611c21565b83811115611c4b576000848401525b50505050565b6000611c5c82611be3565b91507fffffffffffffffffffffffffffffffffffffffffffffffffffffffffffffffff821415611c8f57611c8e611c9a565b5b600182019050919050565b7f4e487b7100000000000000000000000000000000000000000000000000000000600052601160045260246000fd5b7f4e487b7100000000000000000000000000000000000000000000000000000000600052602160045260246000fd5b6000601f19601f8301169050919050565b7f496e73756666696369656e742042616c616e636520746f205472616e73666572600082015250565b7f54686520636f6e74726163742069732061637469766500000000000000000000600082015250565b7f54686520436f6e7472616374206973206e6f7420617661696c61626c65206e6f60008201527f77203a2800000000000000000000000000000000000000000000000000000000602082015250565b7f53656e646572206973206e6f74206f776e657221000000000000000000000000600082015250565b60048110611de457611de3611cc9565b5b50565b611df081611b92565b8114611dfb57600080fd5b50565b611e0781611be3565b8114611e1257600080fd5b5056fea264697066735822122062a6717706b096ca00daa0c64d0ec229090d5d35868a3fd6c0917fd366bde60b64736f6c63430008040033",
  "linkReferences": {
    "contracts/libs.sol": {
      "Math": [
        {
          "length": 20,
          "start": 3288
        },
        {
          "length": 20,
          "start": 3972
        }
      ]
    }
  },
  "deployedLinkReferences": {
    "contracts/libs.sol": {
      "Math": [
        {
          "length": 20,
          "start": 2859
        },
        {
          "length": 20,
          "start": 3543
        }
      ]
    }
  }
}