{
  "_format": "hh-sol-artifact-1",
  "contractName": "CryptoToken",
  "sourceName": "contracts/token.sol",
  "abi": [
    {
      "inputs": [],
      "stateMutability": "nonpayable",
      "type": "constructor"
    },
    {
      "anonymous": false,
      "inputs": [
        {
          "indexed": false,
          "internalType": "address",
          "name": "owner",
          "type": "address"
        },
        {
          "indexed": false,
          "internalType": "address",
          "name": "spender",
          "type": "address"
        },
        {
          "indexed": false,
          "internalType": "uint256",
          "name": "value",
          "type": "uint256"
        }
      ],
      "name": "Approval",
      "type": "event"
    },
    {
      "anonymous": false,
      "inputs": [
        {
          "indexed": false,
          "internalType": "address",
          "name": "from",
          "type": "address"
        },
        {
          "indexed": false,
          "internalType": "address",
          "name": "to",
          "type": "address"
        },
        {
          "indexed": false,
          "internalType": "uint256",
          "name": "value",
          "type": "uint256"
        }
      ],
      "name": "Transfer",
      "type": "event"
    },
    {
      "inputs": [],
      "name": "activeContract",
      "outputs": [],
      "stateMutability": "nonpayable",
      "type": "function"
    },
    {
      "inputs": [
        {
          "internalType": "address",
          "name": "ownerToken",
          "type": "address"
        },
        {
          "internalType": "address",
          "name": "spender",
          "type": "address"
        }
      ],
      "name": "allowence",
      "outputs": [
        {
          "internalType": "uint256",
          "name": "",
          "type": "uint256"
        }
      ],
      "stateMutability": "view",
      "type": "function"
    },
    {
      "inputs": [
        {
          "internalType": "address",
          "name": "spender",
          "type": "address"
        },
        {
          "internalType": "uint256",
          "name": "numTokens",
          "type": "uint256"
        }
      ],
      "name": "approve",
      "outputs": [
        {
          "internalType": "bool",
          "name": "",
          "type": "bool"
        }
      ],
      "stateMutability": "nonpayable",
      "type": "function"
    },
    {
      "inputs": [
        {
          "internalType": "uint256",
          "name": "value",
          "type": "uint256"
        }
      ],
      "name": "autoBurn",
      "outputs": [],
      "stateMutability": "nonpayable",
      "type": "function"
    },
    {
      "inputs": [
        {
          "internalType": "address",
          "name": "tokenOwner",
          "type": "address"
        }
      ],
      "name": "balanceOf",
      "outputs": [
        {
          "internalType": "uint256",
          "name": "",
          "type": "uint256"
        }
      ],
      "stateMutability": "view",
      "type": "function"
    },
    {
      "inputs": [
        {
          "internalType": "uint256",
          "name": "value",
          "type": "uint256"
        }
      ],
      "name": "burn",
      "outputs": [
        {
          "internalType": "bool",
          "name": "",
          "type": "bool"
        }
      ],
      "stateMutability": "nonpayable",
      "type": "function"
    },
    {
      "inputs": [],
      "name": "cancelContract",
      "outputs": [],
      "stateMutability": "nonpayable",
      "type": "function"
    },
    {
      "inputs": [],
      "name": "decimals",
      "outputs": [
        {
          "internalType": "uint8",
          "name": "",
          "type": "uint8"
        }
      ],
      "stateMutability": "view",
      "type": "function"
    },
    {
      "inputs": [],
      "name": "getAddress",
      "outputs": [
        {
          "internalType": "address",
          "name": "",
          "type": "address"
        }
      ],
      "stateMutability": "view",
      "type": "function"
    },
    {
      "inputs": [],
      "name": "kill",
      "outputs": [],
      "stateMutability": "nonpayable",
      "type": "function"
    },
    {
      "inputs": [],
      "name": "mintToken",
      "outputs": [],
      "stateMutability": "nonpayable",
      "type": "function"
    },
    {
      "inputs": [],
      "name": "name",
      "outputs": [
        {
          "internalType": "string",
          "name": "",
          "type": "string"
        }
      ],
      "stateMutability": "view",
      "type": "function"
    },
    {
      "inputs": [],
      "name": "pauseContract",
      "outputs": [],
      "stateMutability": "nonpayable",
      "type": "function"
    },
    {
      "inputs": [],
      "name": "state",
      "outputs": [
        {
          "internalType": "enum CryptoToken.Status",
          "name": "",
          "type": "uint8"
        }
      ],
      "stateMutability": "view",
      "type": "function"
    },
    {
      "inputs": [],
      "name": "symbol",
      "outputs": [
        {
          "internalType": "string",
          "name": "",
          "type": "string"
        }
      ],
      "stateMutability": "view",
      "type": "function"
    },
    {
      "inputs": [],
      "name": "totalSupply",
      "outputs": [
        {
          "internalType": "uint256",
          "name": "",
          "type": "uint256"
        }
      ],
      "stateMutability": "view",
      "type": "function"
    },
    {
      "inputs": [
        {
          "internalType": "address",
          "name": "receiver",
          "type": "address"
        },
        {
          "internalType": "uint256",
          "name": "quantity",
          "type": "uint256"
        }
      ],
      "name": "transfer",
      "outputs": [
        {
          "internalType": "bool",
          "name": "",
          "type": "bool"
        }
      ],
      "stateMutability": "nonpayable",
      "type": "function"
    },
    {
      "inputs": [
        {
          "internalType": "address",
          "name": "sender",
          "type": "address"
        },
        {
          "internalType": "address",
          "name": "recipient",
          "type": "address"
        },
        {
          "internalType": "uint256",
          "name": "amount",
          "type": "uint256"
        }
      ],
      "name": "transferFrom",
      "outputs": [
        {
          "internalType": "bool",
          "name": "",
          "type": "bool"
        }
      ],
      "stateMutability": "nonpayable",
      "type": "function"
    }
  ],
  "bytecode": "0x608060405234801561001057600080fd5b506000606490508060008190555033600260006101000a81548173ffffffffffffffffffffffffffffffffffffffff021916908373ffffffffffffffffffffffffffffffffffffffff16021790555060005460056000600260009054906101000a900473ffffffffffffffffffffffffffffffffffffffff1673ffffffffffffffffffffffffffffffffffffffff1673ffffffffffffffffffffffffffffffffffffffff168152602001908152602001600020819055506003600260009054906101000a900473ffffffffffffffffffffffffffffffffffffffff169080600181540180825580915050600190039060005260206000200160009091909190916101000a81548173ffffffffffffffffffffffffffffffffffffffff021916908373ffffffffffffffffffffffffffffffffffffffff1602179055506000600460146101000a81548160ff02191690836003811115610198577f4e487b7100000000000000000000000000000000000000000000000000000000600052602160045260246000fd5b02179055505061250e806101ad6000396000f3fe608060405234801561001057600080fd5b50600436106101165760003560e01c806342966c68116100a257806395d89b411161007157806395d89b4114610297578063a77a8230146102b5578063a9059cbb146102e5578063c19d93fb14610315578063de4a03861461033357610116565b806342966c6814610211578063439766ce1461024157806370a082311461024b5780637c70885e1461027b57610116565b806323b872dd116100e957806323b872dd146101915780632b68bb2d146101c1578063313ce567146101cb57806338cc4831146101e957806341c0e1b51461020757610116565b806306fdde031461011b578063095ea7b31461013957806318160ddd146101695780632004ffd914610187575b600080fd5b61012361033d565b6040516101309190611fd0565b60405180910390f35b610153600480360381019061014e9190611d0f565b610376565b6040516101609190611f9a565b60405180910390f35b61017161043e565b60405161017e91906120b2565b60405180910390f35b61018f610509565b005b6101ab60048036038101906101a69190611cc0565b6107a8565b6040516101b89190611f9a565b60405180910390f35b6101c9610a70565b005b6101d3610b53565b6040516101e091906120f6565b60405180910390f35b6101f1610b58565b6040516101fe9190611f11565b60405180910390f35b61020f610b60565b005b61022b60048036038101906102269190611d4b565b610d3e565b6040516102389190611f9a565b60405180910390f35b6102496112e0565b005b61026560048036038101906102609190611c5b565b6113c3565b60405161027291906120b2565b60405180910390f35b61029560048036038101906102909190611d4b565b6114cd565b005b61029f611635565b6040516102ac9190611fd0565b60405180910390f35b6102cf60048036038101906102ca9190611c84565b61166e565b6040516102dc91906120b2565b60405180910390f35b6102ff60048036038101906102fa9190611d0f565b6116f5565b60405161030c9190611f9a565b60405180910390f35b61031d611b22565b60405161032a9190611fb5565b60405180910390f35b61033b611b39565b005b6040518060400160405280600b81526020017f43727970746f546f6b656e00000000000000000000000000000000000000000081525081565b600081600660003373ffffffffffffffffffffffffffffffffffffffff1673ffffffffffffffffffffffffffffffffffffffff16815260200190815260200160002060008573ffffffffffffffffffffffffffffffffffffffff1673ffffffffffffffffffffffffffffffffffffffff168152602001908152602001600020819055507f8c5be1e5ebec7d5bd14f71427d1e84f3dd0314c0f7b2291e5b200ac8c7c3b92533848460405161042c93929190611f63565b60405180910390a16001905092915050565b6000806003811115610479577f4e487b7100000000000000000000000000000000000000000000000000000000600052602160045260246000fd5b600460149054906101000a900460ff1660038111156104c1577f4e487b7100000000000000000000000000000000000000000000000000000000600052602160045260246000fd5b14610501576040517f08c379a00000000000000000000000000000000000000000000000000000000081526004016104f890612032565b60405180910390fd5b600054905090565b600260009054906101000a900473ffffffffffffffffffffffffffffffffffffffff1673ffffffffffffffffffffffffffffffffffffffff163373ffffffffffffffffffffffffffffffffffffffff1614610599576040517f08c379a000000000000000000000000000000000000000000000000000000000815260040161059090612072565b60405180910390fd5b600060038111156105d3577f4e487b7100000000000000000000000000000000000000000000000000000000600052602160045260246000fd5b600460149054906101000a900460ff16600381111561061b577f4e487b7100000000000000000000000000000000000000000000000000000000600052602160045260246000fd5b1461065b576040517f08c379a000000000000000000000000000000000000000000000000000000000815260040161065290612032565b60405180910390fd5b600060329050603361068e600260009054906101000a900473ffffffffffffffffffffffffffffffffffffffff166113c3565b10156107a557806000808282546106a5919061212d565b925050819055508060056000600260009054906101000a900473ffffffffffffffffffffffffffffffffffffffff1673ffffffffffffffffffffffffffffffffffffffff1673ffffffffffffffffffffffffffffffffffffffff168152602001908152602001600020600082825461071d919061212d565b925050819055507fddf252ad1be2c89b69c2b068fc378daa952ba7f163c4a11628f55a4df523b3ef600260009054906101000a900473ffffffffffffffffffffffffffffffffffffffff16600260009054906101000a900473ffffffffffffffffffffffffffffffffffffffff16603260405161079c93929190611f2c565b60405180910390a15b50565b6000600560008573ffffffffffffffffffffffffffffffffffffffff1673ffffffffffffffffffffffffffffffffffffffff1681526020019081526020016000205482111561082c576040517f08c379a000000000000000000000000000000000000000000000000000000000815260040161082390612052565b60405180910390fd5b600660008573ffffffffffffffffffffffffffffffffffffffff1673ffffffffffffffffffffffffffffffffffffffff16815260200190815260200160002060003373ffffffffffffffffffffffffffffffffffffffff1673ffffffffffffffffffffffffffffffffffffffff168152602001908152602001600020548211156108eb576040517f08c379a00000000000000000000000000000000000000000000000000000000081526004016108e290612092565b60405180910390fd5b81600560008673ffffffffffffffffffffffffffffffffffffffff1673ffffffffffffffffffffffffffffffffffffffff168152602001908152602001600020600082825461093a9190612183565b9250508190555081600660008673ffffffffffffffffffffffffffffffffffffffff1673ffffffffffffffffffffffffffffffffffffffff16815260200190815260200160002060003373ffffffffffffffffffffffffffffffffffffffff1673ffffffffffffffffffffffffffffffffffffffff16815260200190815260200160002060008282546109cd9190612183565b9250508190555081600560008573ffffffffffffffffffffffffffffffffffffffff1673ffffffffffffffffffffffffffffffffffffffff1681526020019081526020016000206000828254610a23919061212d565b925050819055507fddf252ad1be2c89b69c2b068fc378daa952ba7f163c4a11628f55a4df523b3ef848484604051610a5d93929190611f63565b60405180910390a1600190509392505050565b600260009054906101000a900473ffffffffffffffffffffffffffffffffffffffff1673ffffffffffffffffffffffffffffffffffffffff163373ffffffffffffffffffffffffffffffffffffffff1614610b00576040517f08c379a0000000000000000000000000000000000000000000000000000000008152600401610af790612072565b60405180910390fd5b6002600460146101000a81548160ff02191690836003811115610b4c577f4e487b7100000000000000000000000000000000000000000000000000000000600052602160045260246000fd5b0217905550565b600381565b600033905090565b600260009054906101000a900473ffffffffffffffffffffffffffffffffffffffff1673ffffffffffffffffffffffffffffffffffffffff163373ffffffffffffffffffffffffffffffffffffffff1614610bf0576040517f08c379a0000000000000000000000000000000000000000000000000000000008152600401610be790612072565b60405180910390fd5b60026003811115610c2a577f4e487b7100000000000000000000000000000000000000000000000000000000600052602160045260246000fd5b600460149054906101000a900460ff166003811115610c72577f4e487b7100000000000000000000000000000000000000000000000000000000600052602160045260246000fd5b14610cb2576040517f08c379a0000000000000000000000000000000000000000000000000000000008152600401610ca990612012565b60405180910390fd5b6003600460146101000a81548160ff02191690836003811115610cfe577f4e487b7100000000000000000000000000000000000000000000000000000000600052602160045260246000fd5b0217905550600260009054906101000a900473ffffffffffffffffffffffffffffffffffffffff1673ffffffffffffffffffffffffffffffffffffffff16ff5b6000600260009054906101000a900473ffffffffffffffffffffffffffffffffffffffff1673ffffffffffffffffffffffffffffffffffffffff163373ffffffffffffffffffffffffffffffffffffffff1614610dd0576040517f08c379a0000000000000000000000000000000000000000000000000000000008152600401610dc790612072565b60405180910390fd5b60006003811115610e0a577f4e487b7100000000000000000000000000000000000000000000000000000000600052602160045260246000fd5b600460149054906101000a900460ff166003811115610e52577f4e487b7100000000000000000000000000000000000000000000000000000000600052602160045260246000fd5b14610e92576040517f08c379a0000000000000000000000000000000000000000000000000000000008152600401610e8990612032565b60405180910390fd5b73f000000000000000000000000000000000000000600460006101000a81548173ffffffffffffffffffffffffffffffffffffffff021916908373ffffffffffffffffffffffffffffffffffffffff16021790555060005b600380549050811015611243576005600060038381548110610f35577f4e487b7100000000000000000000000000000000000000000000000000000000600052603260045260246000fd5b9060005260206000200160009054906101000a900473ffffffffffffffffffffffffffffffffffffffff1673ffffffffffffffffffffffffffffffffffffffff1673ffffffffffffffffffffffffffffffffffffffff1681526020019081526020016000205473__$8af750303d7f290c4ae9ad683e018644cd$__6342318e3d9091856040518363ffffffff1660e01b8152600401610fd59291906120cd565b60206040518083038186803b158015610fed57600080fd5b505af4158015611001573d6000803e3d6000fd5b505050506040513d601f19601f820116820180604052508101906110259190611d74565b6005600060038481548110611063577f4e487b7100000000000000000000000000000000000000000000000000000000600052603260045260246000fd5b9060005260206000200160009054906101000a900473ffffffffffffffffffffffffffffffffffffffff1673ffffffffffffffffffffffffffffffffffffffff1673ffffffffffffffffffffffffffffffffffffffff168152602001908152602001600020819055507fddf252ad1be2c89b69c2b068fc378daa952ba7f163c4a11628f55a4df523b3ef60038281548110611127577f4e487b7100000000000000000000000000000000000000000000000000000000600052603260045260246000fd5b9060005260206000200160009054906101000a900473ffffffffffffffffffffffffffffffffffffffff16600460009054906101000a900473ffffffffffffffffffffffffffffffffffffffff1660056000600386815481106111b3577f4e487b7100000000000000000000000000000000000000000000000000000000600052603260045260246000fd5b9060005260206000200160009054906101000a900473ffffffffffffffffffffffffffffffffffffffff1673ffffffffffffffffffffffffffffffffffffffff1673ffffffffffffffffffffffffffffffffffffffff1681526020019081526020016000205460405161122893929190611f63565b60405180910390a1808061123b90612276565b915050610eea565b5060005473__$8af750303d7f290c4ae9ad683e018644cd$__6342318e3d9091846040518363ffffffff1660e01b81526004016112819291906120cd565b60206040518083038186803b15801561129957600080fd5b505af41580156112ad573d6000803e3d6000fd5b505050506040513d601f19601f820116820180604052508101906112d19190611d74565b60008190555060019050919050565b600260009054906101000a900473ffffffffffffffffffffffffffffffffffffffff1673ffffffffffffffffffffffffffffffffffffffff163373ffffffffffffffffffffffffffffffffffffffff1614611370576040517f08c379a000000000000000000000000000000000000000000000000000000000815260040161136790612072565b60405180910390fd5b6001600460146101000a81548160ff021916908360038111156113bc577f4e487b7100000000000000000000000000000000000000000000000000000000600052602160045260246000fd5b0217905550565b60008060038111156113fe577f4e487b7100000000000000000000000000000000000000000000000000000000600052602160045260246000fd5b600460149054906101000a900460ff166003811115611446577f4e487b7100000000000000000000000000000000000000000000000000000000600052602160045260246000fd5b14611486576040517f08c379a000000000000000000000000000000000000000000000000000000000815260040161147d90612032565b60405180910390fd5b600560008373ffffffffffffffffffffffffffffffffffffffff1673ffffffffffffffffffffffffffffffffffffffff168152602001908152602001600020549050919050565b600260009054906101000a900473ffffffffffffffffffffffffffffffffffffffff1673ffffffffffffffffffffffffffffffffffffffff163373ffffffffffffffffffffffffffffffffffffffff161461155d576040517f08c379a000000000000000000000000000000000000000000000000000000000815260040161155490612072565b60405180910390fd5b60006003811115611597577f4e487b7100000000000000000000000000000000000000000000000000000000600052602160045260246000fd5b600460149054906101000a900460ff1660038111156115df577f4e487b7100000000000000000000000000000000000000000000000000000000600052602160045260246000fd5b1461161f576040517f08c379a000000000000000000000000000000000000000000000000000000000815260040161161690612032565b60405180910390fd5b80600181905550611631600154610d3e565b5050565b6040518060400160405280600381526020017f435259000000000000000000000000000000000000000000000000000000000081525081565b6000600660008473ffffffffffffffffffffffffffffffffffffffff1673ffffffffffffffffffffffffffffffffffffffff16815260200190815260200160002060008373ffffffffffffffffffffffffffffffffffffffff1673ffffffffffffffffffffffffffffffffffffffff16815260200190815260200160002054905092915050565b6000600260009054906101000a900473ffffffffffffffffffffffffffffffffffffffff1673ffffffffffffffffffffffffffffffffffffffff163373ffffffffffffffffffffffffffffffffffffffff1614611787576040517f08c379a000000000000000000000000000000000000000000000000000000000815260040161177e90612072565b60405180910390fd5b600060038111156117c1577f4e487b7100000000000000000000000000000000000000000000000000000000600052602160045260246000fd5b600460149054906101000a900460ff166003811115611809577f4e487b7100000000000000000000000000000000000000000000000000000000600052602160045260246000fd5b14611849576040517f08c379a000000000000000000000000000000000000000000000000000000000815260040161184090612032565b60405180910390fd5b60056000600260009054906101000a900473ffffffffffffffffffffffffffffffffffffffff1673ffffffffffffffffffffffffffffffffffffffff1673ffffffffffffffffffffffffffffffffffffffff168152602001908152602001600020548211156118ed576040517f08c379a00000000000000000000000000000000000000000000000000000000081526004016118e490611ff2565b60405180910390fd5b8160056000600260009054906101000a900473ffffffffffffffffffffffffffffffffffffffff1673ffffffffffffffffffffffffffffffffffffffff1673ffffffffffffffffffffffffffffffffffffffff1681526020019081526020016000205461195a9190612183565b60056000600260009054906101000a900473ffffffffffffffffffffffffffffffffffffffff1673ffffffffffffffffffffffffffffffffffffffff1673ffffffffffffffffffffffffffffffffffffffff1681526020019081526020016000208190555081600560008573ffffffffffffffffffffffffffffffffffffffff1673ffffffffffffffffffffffffffffffffffffffff16815260200190815260200160002054611a0a919061212d565b600560008573ffffffffffffffffffffffffffffffffffffffff1673ffffffffffffffffffffffffffffffffffffffff168152602001908152602001600020819055506003839080600181540180825580915050600190039060005260206000200160009091909190916101000a81548173ffffffffffffffffffffffffffffffffffffffff021916908373ffffffffffffffffffffffffffffffffffffffff160217905550611abb6001546114cd565b7fddf252ad1be2c89b69c2b068fc378daa952ba7f163c4a11628f55a4df523b3ef600260009054906101000a900473ffffffffffffffffffffffffffffffffffffffff168484604051611b1093929190611f63565b60405180910390a16001905092915050565b6000600460149054906101000a900460ff16905090565b600260009054906101000a900473ffffffffffffffffffffffffffffffffffffffff1673ffffffffffffffffffffffffffffffffffffffff163373ffffffffffffffffffffffffffffffffffffffff1614611bc9576040517f08c379a0000000000000000000000000000000000000000000000000000000008152600401611bc090612072565b60405180910390fd5b6000600460146101000a81548160ff02191690836003811115611c15577f4e487b7100000000000000000000000000000000000000000000000000000000600052602160045260246000fd5b0217905550565b600081359050611c2b816124aa565b92915050565b600081359050611c40816124c1565b92915050565b600081519050611c55816124c1565b92915050565b600060208284031215611c6d57600080fd5b6000611c7b84828501611c1c565b91505092915050565b60008060408385031215611c9757600080fd5b6000611ca585828601611c1c565b9250506020611cb685828601611c1c565b9150509250929050565b600080600060608486031215611cd557600080fd5b6000611ce386828701611c1c565b9350506020611cf486828701611c1c565b9250506040611d0586828701611c31565b9150509250925092565b60008060408385031215611d2257600080fd5b6000611d3085828601611c1c565b9250506020611d4185828601611c31565b9150509250929050565b600060208284031215611d5d57600080fd5b6000611d6b84828501611c31565b91505092915050565b600060208284031215611d8657600080fd5b6000611d9484828501611c46565b91505092915050565b611da6816121b7565b82525050565b611db5816121c9565b82525050565b611dc48161221f565b82525050565b611dd381612231565b82525050565b6000611de482612111565b611dee818561211c565b9350611dfe818560208601612243565b611e078161231d565b840191505092915050565b6000611e1f60208361211c565b9150611e2a8261232e565b602082019050919050565b6000611e4260168361211c565b9150611e4d82612357565b602082019050919050565b6000611e6560248361211c565b9150611e7082612380565b604082019050919050565b6000611e8860278361211c565b9150611e93826123cf565b604082019050919050565b6000611eab60148361211c565b9150611eb68261241e565b602082019050919050565b6000611ece60288361211c565b9150611ed982612447565b604082019050919050565b611eed81612208565b82525050565b611efc81612208565b82525050565b611f0b81612212565b82525050565b6000602082019050611f266000830184611d9d565b92915050565b6000606082019050611f416000830186611d9d565b611f4e6020830185611d9d565b611f5b6040830184611dca565b949350505050565b6000606082019050611f786000830186611d9d565b611f856020830185611d9d565b611f926040830184611ee4565b949350505050565b6000602082019050611faf6000830184611dac565b92915050565b6000602082019050611fca6000830184611dbb565b92915050565b60006020820190508181036000830152611fea8184611dd9565b905092915050565b6000602082019050818103600083015261200b81611e12565b9050919050565b6000602082019050818103600083015261202b81611e35565b9050919050565b6000602082019050818103600083015261204b81611e58565b9050919050565b6000602082019050818103600083015261206b81611e7b565b9050919050565b6000602082019050818103600083015261208b81611e9e565b9050919050565b600060208201905081810360008301526120ab81611ec1565b9050919050565b60006020820190506120c76000830184611ee4565b92915050565b60006040820190506120e26000830185611ef3565b6120ef6020830184611ef3565b9392505050565b600060208201905061210b6000830184611f02565b92915050565b600081519050919050565b600082825260208201905092915050565b600061213882612208565b915061214383612208565b9250827fffffffffffffffffffffffffffffffffffffffffffffffffffffffffffffffff03821115612178576121776122bf565b5b828201905092915050565b600061218e82612208565b915061219983612208565b9250828210156121ac576121ab6122bf565b5b828203905092915050565b60006121c2826121e8565b9050919050565b60008115159050919050565b60008190506121e382612496565b919050565b600073ffffffffffffffffffffffffffffffffffffffff82169050919050565b6000819050919050565b600060ff82169050919050565b600061222a826121d5565b9050919050565b600061223c82612208565b9050919050565b60005b83811015612261578082015181840152602081019050612246565b83811115612270576000848401525b50505050565b600061228182612208565b91507fffffffffffffffffffffffffffffffffffffffffffffffffffffffffffffffff8214156122b4576122b36122bf565b5b600182019050919050565b7f4e487b7100000000000000000000000000000000000000000000000000000000600052601160045260246000fd5b7f4e487b7100000000000000000000000000000000000000000000000000000000600052602160045260246000fd5b6000601f19601f8301169050919050565b7f496e73756666696369656e742042616c616e636520746f205472616e73666572600082015250565b7f54686520636f6e74726163742069732061637469766500000000000000000000600082015250565b7f54686520436f6e7472616374206973206e6f7420617661696c61626c65206e6f60008201527f77203a2800000000000000000000000000000000000000000000000000000000602082015250565b7f53656e64657220496e73756666696369656e742042616c616e636520746f205460008201527f72616e7366657200000000000000000000000000000000000000000000000000602082015250565b7f53656e646572206973206e6f74206f776e657221000000000000000000000000600082015250565b7f416c6c6f77656420496e73756666696369656e742042616c616e636520746f2060008201527f5472616e73666572000000000000000000000000000000000000000000000000602082015250565b600481106124a7576124a66122ee565b5b50565b6124b3816121b7565b81146124be57600080fd5b50565b6124ca81612208565b81146124d557600080fd5b5056fea2646970667358221220cc1f9e5069fb5939632bc05c54c42f18dd7bfdf4091ad7eb6b765a36813e5aa164736f6c63430008040033",
  "linkReferences": {
    "contracts/libs.sol": {
      "Math": [
        {
          "length": 20,
          "start": 4426
        },
        {
          "length": 20,
          "start": 5110
        }
      ]
    }
  },
  "deployedLinkReferences": {
    "contracts/libs.sol": {
      "Math": [
        {
          "length": 20,
          "start": 3997
        },
        {
          "length": 20,
          "start": 4681
        }
      ]
    }
  }
}