{
  "_format": "hh-sol-artifact-1",
  "contractName": "CryptoToken",
  "sourceName": "contracts/token.sol",
  "abi": [
    {
      "inputs": [],
      "stateMutability": "nonpayable",
      "type": "constructor"
    },
    {
      "anonymous": false,
      "inputs": [
        {
          "indexed": false,
          "internalType": "address",
          "name": "owner",
          "type": "address"
        },
        {
          "indexed": false,
          "internalType": "address",
          "name": "spender",
          "type": "address"
        },
        {
          "indexed": false,
          "internalType": "uint256",
          "name": "value",
          "type": "uint256"
        }
      ],
      "name": "Approval",
      "type": "event"
    },
    {
      "anonymous": false,
      "inputs": [
        {
          "indexed": false,
          "internalType": "address",
          "name": "from",
          "type": "address"
        },
        {
          "indexed": false,
          "internalType": "address",
          "name": "to",
          "type": "address"
        },
        {
          "indexed": false,
          "internalType": "uint256",
          "name": "value",
          "type": "uint256"
        }
      ],
      "name": "Transfer",
      "type": "event"
    },
    {
      "inputs": [],
      "name": "activeContract",
      "outputs": [],
      "stateMutability": "nonpayable",
      "type": "function"
    },
    {
      "inputs": [
        {
          "internalType": "address",
          "name": "ownerToken",
          "type": "address"
        },
        {
          "internalType": "address",
          "name": "spender",
          "type": "address"
        }
      ],
      "name": "allowence",
      "outputs": [
        {
          "internalType": "uint256",
          "name": "",
          "type": "uint256"
        }
      ],
      "stateMutability": "view",
      "type": "function"
    },
    {
      "inputs": [
        {
          "internalType": "address",
          "name": "spender",
          "type": "address"
        },
        {
          "internalType": "uint256",
          "name": "numTokens",
          "type": "uint256"
        }
      ],
      "name": "approve",
      "outputs": [
        {
          "internalType": "bool",
          "name": "",
          "type": "bool"
        }
      ],
      "stateMutability": "nonpayable",
      "type": "function"
    },
    {
      "inputs": [
        {
          "internalType": "uint256",
          "name": "value",
          "type": "uint256"
        }
      ],
      "name": "autoBurn",
      "outputs": [],
      "stateMutability": "nonpayable",
      "type": "function"
    },
    {
      "inputs": [
        {
          "internalType": "address",
          "name": "tokenOwner",
          "type": "address"
        }
      ],
      "name": "balanceOf",
      "outputs": [
        {
          "internalType": "uint256",
          "name": "",
          "type": "uint256"
        }
      ],
      "stateMutability": "view",
      "type": "function"
    },
    {
      "inputs": [
        {
          "internalType": "uint256",
          "name": "value",
          "type": "uint256"
        }
      ],
      "name": "burn",
      "outputs": [
        {
          "internalType": "bool",
          "name": "",
          "type": "bool"
        }
      ],
      "stateMutability": "nonpayable",
      "type": "function"
    },
    {
      "inputs": [],
      "name": "cancelContract",
      "outputs": [],
      "stateMutability": "nonpayable",
      "type": "function"
    },
    {
      "inputs": [],
      "name": "decimals",
      "outputs": [
        {
          "internalType": "uint8",
          "name": "",
          "type": "uint8"
        }
      ],
      "stateMutability": "view",
      "type": "function"
    },
    {
      "inputs": [],
      "name": "kill",
      "outputs": [],
      "stateMutability": "nonpayable",
      "type": "function"
    },
    {
      "inputs": [],
      "name": "mintToken",
      "outputs": [],
      "stateMutability": "nonpayable",
      "type": "function"
    },
    {
      "inputs": [],
      "name": "name",
      "outputs": [
        {
          "internalType": "string",
          "name": "",
          "type": "string"
        }
      ],
      "stateMutability": "view",
      "type": "function"
    },
    {
      "inputs": [],
      "name": "pauseContract",
      "outputs": [],
      "stateMutability": "nonpayable",
      "type": "function"
    },
    {
      "inputs": [],
      "name": "state",
      "outputs": [
        {
          "internalType": "enum CryptoToken.Status",
          "name": "",
          "type": "uint8"
        }
      ],
      "stateMutability": "view",
      "type": "function"
    },
    {
      "inputs": [],
      "name": "symbol",
      "outputs": [
        {
          "internalType": "string",
          "name": "",
          "type": "string"
        }
      ],
      "stateMutability": "view",
      "type": "function"
    },
    {
      "inputs": [],
      "name": "totalSupply",
      "outputs": [
        {
          "internalType": "uint256",
          "name": "",
          "type": "uint256"
        }
      ],
      "stateMutability": "view",
      "type": "function"
    },
    {
      "inputs": [
        {
          "internalType": "address",
          "name": "receiver",
          "type": "address"
        },
        {
          "internalType": "uint256",
          "name": "quantity",
          "type": "uint256"
        }
      ],
      "name": "transfer",
      "outputs": [
        {
          "internalType": "bool",
          "name": "",
          "type": "bool"
        }
      ],
      "stateMutability": "nonpayable",
      "type": "function"
    },
    {
      "inputs": [
        {
          "internalType": "address",
          "name": "sender",
          "type": "address"
        },
        {
          "internalType": "address",
          "name": "recipient",
          "type": "address"
        },
        {
          "internalType": "uint256",
          "name": "amount",
          "type": "uint256"
        }
      ],
      "name": "transferFrom",
      "outputs": [
        {
          "internalType": "bool",
          "name": "",
          "type": "bool"
        }
      ],
      "stateMutability": "nonpayable",
      "type": "function"
    }
  ],
  "bytecode": "0x608060405234801561001057600080fd5b506000606490508060008190555033600260006101000a81548173ffffffffffffffffffffffffffffffffffffffff021916908373ffffffffffffffffffffffffffffffffffffffff16021790555060005460056000600260009054906101000a900473ffffffffffffffffffffffffffffffffffffffff1673ffffffffffffffffffffffffffffffffffffffff1673ffffffffffffffffffffffffffffffffffffffff168152602001908152602001600020819055506003600260009054906101000a900473ffffffffffffffffffffffffffffffffffffffff169080600181540180825580915050600190039060005260206000200160009091909190916101000a81548173ffffffffffffffffffffffffffffffffffffffff021916908373ffffffffffffffffffffffffffffffffffffffff1602179055506000600460146101000a81548160ff02191690836003811115610198577f4e487b7100000000000000000000000000000000000000000000000000000000600052602160045260246000fd5b0217905550506124c2806101ad6000396000f3fe608060405234801561001057600080fd5b506004361061010b5760003560e01c806342966c68116100a257806395d89b411161007157806395d89b411461026e578063a77a82301461028c578063a9059cbb146102bc578063c19d93fb146102ec578063de4a03861461030a5761010b565b806342966c68146101e8578063439766ce1461021857806370a08231146102225780637c70885e146102525761010b565b806323b872dd116100de57806323b872dd146101865780632b68bb2d146101b6578063313ce567146101c057806341c0e1b5146101de5761010b565b806306fdde0314610110578063095ea7b31461012e57806318160ddd1461015e5780632004ffd91461017c575b600080fd5b610118610314565b6040516101259190611f84565b60405180910390f35b61014860048036038101906101439190611cde565b61034d565b6040516101559190611f4e565b60405180910390f35b610166610415565b6040516101739190612066565b60405180910390f35b6101846104e0565b005b6101a0600480360381019061019b9190611c8f565b61077f565b6040516101ad9190611f4e565b60405180910390f35b6101be610a47565b005b6101c8610b2a565b6040516101d591906120aa565b60405180910390f35b6101e6610b2f565b005b61020260048036038101906101fd9190611d1a565b610d0d565b60405161020f9190611f4e565b60405180910390f35b6102206112af565b005b61023c60048036038101906102379190611c2a565b611392565b6040516102499190612066565b60405180910390f35b61026c60048036038101906102679190611d1a565b61149c565b005b610276611604565b6040516102839190611f84565b60405180910390f35b6102a660048036038101906102a19190611c53565b61163d565b6040516102b39190612066565b60405180910390f35b6102d660048036038101906102d19190611cde565b6116c4565b6040516102e39190611f4e565b60405180910390f35b6102f4611af1565b6040516103019190611f69565b60405180910390f35b610312611b08565b005b6040518060400160405280600b81526020017f43727970746f546f6b656e00000000000000000000000000000000000000000081525081565b600081600660003373ffffffffffffffffffffffffffffffffffffffff1673ffffffffffffffffffffffffffffffffffffffff16815260200190815260200160002060008573ffffffffffffffffffffffffffffffffffffffff1673ffffffffffffffffffffffffffffffffffffffff168152602001908152602001600020819055507f8c5be1e5ebec7d5bd14f71427d1e84f3dd0314c0f7b2291e5b200ac8c7c3b92533848460405161040393929190611f17565b60405180910390a16001905092915050565b6000806003811115610450577f4e487b7100000000000000000000000000000000000000000000000000000000600052602160045260246000fd5b600460149054906101000a900460ff166003811115610498577f4e487b7100000000000000000000000000000000000000000000000000000000600052602160045260246000fd5b146104d8576040517f08c379a00000000000000000000000000000000000000000000000000000000081526004016104cf90611fe6565b60405180910390fd5b600054905090565b600260009054906101000a900473ffffffffffffffffffffffffffffffffffffffff1673ffffffffffffffffffffffffffffffffffffffff163373ffffffffffffffffffffffffffffffffffffffff1614610570576040517f08c379a000000000000000000000000000000000000000000000000000000000815260040161056790612026565b60405180910390fd5b600060038111156105aa577f4e487b7100000000000000000000000000000000000000000000000000000000600052602160045260246000fd5b600460149054906101000a900460ff1660038111156105f2577f4e487b7100000000000000000000000000000000000000000000000000000000600052602160045260246000fd5b14610632576040517f08c379a000000000000000000000000000000000000000000000000000000000815260040161062990611fe6565b60405180910390fd5b6000603290506033610665600260009054906101000a900473ffffffffffffffffffffffffffffffffffffffff16611392565b101561077c578060008082825461067c91906120e1565b925050819055508060056000600260009054906101000a900473ffffffffffffffffffffffffffffffffffffffff1673ffffffffffffffffffffffffffffffffffffffff1673ffffffffffffffffffffffffffffffffffffffff16815260200190815260200160002060008282546106f491906120e1565b925050819055507fddf252ad1be2c89b69c2b068fc378daa952ba7f163c4a11628f55a4df523b3ef600260009054906101000a900473ffffffffffffffffffffffffffffffffffffffff16600260009054906101000a900473ffffffffffffffffffffffffffffffffffffffff16603260405161077393929190611ee0565b60405180910390a15b50565b6000600560008573ffffffffffffffffffffffffffffffffffffffff1673ffffffffffffffffffffffffffffffffffffffff16815260200190815260200160002054821115610803576040517f08c379a00000000000000000000000000000000000000000000000000000000081526004016107fa90612006565b60405180910390fd5b600660008573ffffffffffffffffffffffffffffffffffffffff1673ffffffffffffffffffffffffffffffffffffffff16815260200190815260200160002060003373ffffffffffffffffffffffffffffffffffffffff1673ffffffffffffffffffffffffffffffffffffffff168152602001908152602001600020548211156108c2576040517f08c379a00000000000000000000000000000000000000000000000000000000081526004016108b990612046565b60405180910390fd5b81600560008673ffffffffffffffffffffffffffffffffffffffff1673ffffffffffffffffffffffffffffffffffffffff16815260200190815260200160002060008282546109119190612137565b9250508190555081600660008673ffffffffffffffffffffffffffffffffffffffff1673ffffffffffffffffffffffffffffffffffffffff16815260200190815260200160002060003373ffffffffffffffffffffffffffffffffffffffff1673ffffffffffffffffffffffffffffffffffffffff16815260200190815260200160002060008282546109a49190612137565b9250508190555081600560008573ffffffffffffffffffffffffffffffffffffffff1673ffffffffffffffffffffffffffffffffffffffff16815260200190815260200160002060008282546109fa91906120e1565b925050819055507fddf252ad1be2c89b69c2b068fc378daa952ba7f163c4a11628f55a4df523b3ef848484604051610a3493929190611f17565b60405180910390a1600190509392505050565b600260009054906101000a900473ffffffffffffffffffffffffffffffffffffffff1673ffffffffffffffffffffffffffffffffffffffff163373ffffffffffffffffffffffffffffffffffffffff1614610ad7576040517f08c379a0000000000000000000000000000000000000000000000000000000008152600401610ace90612026565b60405180910390fd5b6002600460146101000a81548160ff02191690836003811115610b23577f4e487b7100000000000000000000000000000000000000000000000000000000600052602160045260246000fd5b0217905550565b600381565b600260009054906101000a900473ffffffffffffffffffffffffffffffffffffffff1673ffffffffffffffffffffffffffffffffffffffff163373ffffffffffffffffffffffffffffffffffffffff1614610bbf576040517f08c379a0000000000000000000000000000000000000000000000000000000008152600401610bb690612026565b60405180910390fd5b60026003811115610bf9577f4e487b7100000000000000000000000000000000000000000000000000000000600052602160045260246000fd5b600460149054906101000a900460ff166003811115610c41577f4e487b7100000000000000000000000000000000000000000000000000000000600052602160045260246000fd5b14610c81576040517f08c379a0000000000000000000000000000000000000000000000000000000008152600401610c7890611fc6565b60405180910390fd5b6003600460146101000a81548160ff02191690836003811115610ccd577f4e487b7100000000000000000000000000000000000000000000000000000000600052602160045260246000fd5b0217905550600260009054906101000a900473ffffffffffffffffffffffffffffffffffffffff1673ffffffffffffffffffffffffffffffffffffffff16ff5b6000600260009054906101000a900473ffffffffffffffffffffffffffffffffffffffff1673ffffffffffffffffffffffffffffffffffffffff163373ffffffffffffffffffffffffffffffffffffffff1614610d9f576040517f08c379a0000000000000000000000000000000000000000000000000000000008152600401610d9690612026565b60405180910390fd5b60006003811115610dd9577f4e487b7100000000000000000000000000000000000000000000000000000000600052602160045260246000fd5b600460149054906101000a900460ff166003811115610e21577f4e487b7100000000000000000000000000000000000000000000000000000000600052602160045260246000fd5b14610e61576040517f08c379a0000000000000000000000000000000000000000000000000000000008152600401610e5890611fe6565b60405180910390fd5b73f000000000000000000000000000000000000000600460006101000a81548173ffffffffffffffffffffffffffffffffffffffff021916908373ffffffffffffffffffffffffffffffffffffffff16021790555060005b600380549050811015611212576005600060038381548110610f04577f4e487b7100000000000000000000000000000000000000000000000000000000600052603260045260246000fd5b9060005260206000200160009054906101000a900473ffffffffffffffffffffffffffffffffffffffff1673ffffffffffffffffffffffffffffffffffffffff1673ffffffffffffffffffffffffffffffffffffffff1681526020019081526020016000205473__$8af750303d7f290c4ae9ad683e018644cd$__6342318e3d9091856040518363ffffffff1660e01b8152600401610fa4929190612081565b60206040518083038186803b158015610fbc57600080fd5b505af4158015610fd0573d6000803e3d6000fd5b505050506040513d601f19601f82011682018060405250810190610ff49190611d43565b6005600060038481548110611032577f4e487b7100000000000000000000000000000000000000000000000000000000600052603260045260246000fd5b9060005260206000200160009054906101000a900473ffffffffffffffffffffffffffffffffffffffff1673ffffffffffffffffffffffffffffffffffffffff1673ffffffffffffffffffffffffffffffffffffffff168152602001908152602001600020819055507fddf252ad1be2c89b69c2b068fc378daa952ba7f163c4a11628f55a4df523b3ef600382815481106110f6577f4e487b7100000000000000000000000000000000000000000000000000000000600052603260045260246000fd5b9060005260206000200160009054906101000a900473ffffffffffffffffffffffffffffffffffffffff16600460009054906101000a900473ffffffffffffffffffffffffffffffffffffffff166005600060038681548110611182577f4e487b7100000000000000000000000000000000000000000000000000000000600052603260045260246000fd5b9060005260206000200160009054906101000a900473ffffffffffffffffffffffffffffffffffffffff1673ffffffffffffffffffffffffffffffffffffffff1673ffffffffffffffffffffffffffffffffffffffff168152602001908152602001600020546040516111f793929190611f17565b60405180910390a1808061120a9061222a565b915050610eb9565b5060005473__$8af750303d7f290c4ae9ad683e018644cd$__6342318e3d9091846040518363ffffffff1660e01b8152600401611250929190612081565b60206040518083038186803b15801561126857600080fd5b505af415801561127c573d6000803e3d6000fd5b505050506040513d601f19601f820116820180604052508101906112a09190611d43565b60008190555060019050919050565b600260009054906101000a900473ffffffffffffffffffffffffffffffffffffffff1673ffffffffffffffffffffffffffffffffffffffff163373ffffffffffffffffffffffffffffffffffffffff161461133f576040517f08c379a000000000000000000000000000000000000000000000000000000000815260040161133690612026565b60405180910390fd5b6001600460146101000a81548160ff0219169083600381111561138b577f4e487b7100000000000000000000000000000000000000000000000000000000600052602160045260246000fd5b0217905550565b60008060038111156113cd577f4e487b7100000000000000000000000000000000000000000000000000000000600052602160045260246000fd5b600460149054906101000a900460ff166003811115611415577f4e487b7100000000000000000000000000000000000000000000000000000000600052602160045260246000fd5b14611455576040517f08c379a000000000000000000000000000000000000000000000000000000000815260040161144c90611fe6565b60405180910390fd5b600560008373ffffffffffffffffffffffffffffffffffffffff1673ffffffffffffffffffffffffffffffffffffffff168152602001908152602001600020549050919050565b600260009054906101000a900473ffffffffffffffffffffffffffffffffffffffff1673ffffffffffffffffffffffffffffffffffffffff163373ffffffffffffffffffffffffffffffffffffffff161461152c576040517f08c379a000000000000000000000000000000000000000000000000000000000815260040161152390612026565b60405180910390fd5b60006003811115611566577f4e487b7100000000000000000000000000000000000000000000000000000000600052602160045260246000fd5b600460149054906101000a900460ff1660038111156115ae577f4e487b7100000000000000000000000000000000000000000000000000000000600052602160045260246000fd5b146115ee576040517f08c379a00000000000000000000000000000000000000000000000000000000081526004016115e590611fe6565b60405180910390fd5b80600181905550611600600154610d0d565b5050565b6040518060400160405280600381526020017f435259000000000000000000000000000000000000000000000000000000000081525081565b6000600660008473ffffffffffffffffffffffffffffffffffffffff1673ffffffffffffffffffffffffffffffffffffffff16815260200190815260200160002060008373ffffffffffffffffffffffffffffffffffffffff1673ffffffffffffffffffffffffffffffffffffffff16815260200190815260200160002054905092915050565b6000600260009054906101000a900473ffffffffffffffffffffffffffffffffffffffff1673ffffffffffffffffffffffffffffffffffffffff163373ffffffffffffffffffffffffffffffffffffffff1614611756576040517f08c379a000000000000000000000000000000000000000000000000000000000815260040161174d90612026565b60405180910390fd5b60006003811115611790577f4e487b7100000000000000000000000000000000000000000000000000000000600052602160045260246000fd5b600460149054906101000a900460ff1660038111156117d8577f4e487b7100000000000000000000000000000000000000000000000000000000600052602160045260246000fd5b14611818576040517f08c379a000000000000000000000000000000000000000000000000000000000815260040161180f90611fe6565b60405180910390fd5b60056000600260009054906101000a900473ffffffffffffffffffffffffffffffffffffffff1673ffffffffffffffffffffffffffffffffffffffff1673ffffffffffffffffffffffffffffffffffffffff168152602001908152602001600020548211156118bc576040517f08c379a00000000000000000000000000000000000000000000000000000000081526004016118b390611fa6565b60405180910390fd5b8160056000600260009054906101000a900473ffffffffffffffffffffffffffffffffffffffff1673ffffffffffffffffffffffffffffffffffffffff1673ffffffffffffffffffffffffffffffffffffffff168152602001908152602001600020546119299190612137565b60056000600260009054906101000a900473ffffffffffffffffffffffffffffffffffffffff1673ffffffffffffffffffffffffffffffffffffffff1673ffffffffffffffffffffffffffffffffffffffff1681526020019081526020016000208190555081600560008573ffffffffffffffffffffffffffffffffffffffff1673ffffffffffffffffffffffffffffffffffffffff168152602001908152602001600020546119d991906120e1565b600560008573ffffffffffffffffffffffffffffffffffffffff1673ffffffffffffffffffffffffffffffffffffffff168152602001908152602001600020819055506003839080600181540180825580915050600190039060005260206000200160009091909190916101000a81548173ffffffffffffffffffffffffffffffffffffffff021916908373ffffffffffffffffffffffffffffffffffffffff160217905550611a8a60015461149c565b7fddf252ad1be2c89b69c2b068fc378daa952ba7f163c4a11628f55a4df523b3ef600260009054906101000a900473ffffffffffffffffffffffffffffffffffffffff168484604051611adf93929190611f17565b60405180910390a16001905092915050565b6000600460149054906101000a900460ff16905090565b600260009054906101000a900473ffffffffffffffffffffffffffffffffffffffff1673ffffffffffffffffffffffffffffffffffffffff163373ffffffffffffffffffffffffffffffffffffffff1614611b98576040517f08c379a0000000000000000000000000000000000000000000000000000000008152600401611b8f90612026565b60405180910390fd5b6000600460146101000a81548160ff02191690836003811115611be4577f4e487b7100000000000000000000000000000000000000000000000000000000600052602160045260246000fd5b0217905550565b600081359050611bfa8161245e565b92915050565b600081359050611c0f81612475565b92915050565b600081519050611c2481612475565b92915050565b600060208284031215611c3c57600080fd5b6000611c4a84828501611beb565b91505092915050565b60008060408385031215611c6657600080fd5b6000611c7485828601611beb565b9250506020611c8585828601611beb565b9150509250929050565b600080600060608486031215611ca457600080fd5b6000611cb286828701611beb565b9350506020611cc386828701611beb565b9250506040611cd486828701611c00565b9150509250925092565b60008060408385031215611cf157600080fd5b6000611cff85828601611beb565b9250506020611d1085828601611c00565b9150509250929050565b600060208284031215611d2c57600080fd5b6000611d3a84828501611c00565b91505092915050565b600060208284031215611d5557600080fd5b6000611d6384828501611c15565b91505092915050565b611d758161216b565b82525050565b611d848161217d565b82525050565b611d93816121d3565b82525050565b611da2816121e5565b82525050565b6000611db3826120c5565b611dbd81856120d0565b9350611dcd8185602086016121f7565b611dd6816122d1565b840191505092915050565b6000611dee6020836120d0565b9150611df9826122e2565b602082019050919050565b6000611e116016836120d0565b9150611e1c8261230b565b602082019050919050565b6000611e346024836120d0565b9150611e3f82612334565b604082019050919050565b6000611e576027836120d0565b9150611e6282612383565b604082019050919050565b6000611e7a6014836120d0565b9150611e85826123d2565b602082019050919050565b6000611e9d6028836120d0565b9150611ea8826123fb565b604082019050919050565b611ebc816121bc565b82525050565b611ecb816121bc565b82525050565b611eda816121c6565b82525050565b6000606082019050611ef56000830186611d6c565b611f026020830185611d6c565b611f0f6040830184611d99565b949350505050565b6000606082019050611f2c6000830186611d6c565b611f396020830185611d6c565b611f466040830184611eb3565b949350505050565b6000602082019050611f636000830184611d7b565b92915050565b6000602082019050611f7e6000830184611d8a565b92915050565b60006020820190508181036000830152611f9e8184611da8565b905092915050565b60006020820190508181036000830152611fbf81611de1565b9050919050565b60006020820190508181036000830152611fdf81611e04565b9050919050565b60006020820190508181036000830152611fff81611e27565b9050919050565b6000602082019050818103600083015261201f81611e4a565b9050919050565b6000602082019050818103600083015261203f81611e6d565b9050919050565b6000602082019050818103600083015261205f81611e90565b9050919050565b600060208201905061207b6000830184611eb3565b92915050565b60006040820190506120966000830185611ec2565b6120a36020830184611ec2565b9392505050565b60006020820190506120bf6000830184611ed1565b92915050565b600081519050919050565b600082825260208201905092915050565b60006120ec826121bc565b91506120f7836121bc565b9250827fffffffffffffffffffffffffffffffffffffffffffffffffffffffffffffffff0382111561212c5761212b612273565b5b828201905092915050565b6000612142826121bc565b915061214d836121bc565b9250828210156121605761215f612273565b5b828203905092915050565b60006121768261219c565b9050919050565b60008115159050919050565b60008190506121978261244a565b919050565b600073ffffffffffffffffffffffffffffffffffffffff82169050919050565b6000819050919050565b600060ff82169050919050565b60006121de82612189565b9050919050565b60006121f0826121bc565b9050919050565b60005b838110156122155780820151818401526020810190506121fa565b83811115612224576000848401525b50505050565b6000612235826121bc565b91507fffffffffffffffffffffffffffffffffffffffffffffffffffffffffffffffff82141561226857612267612273565b5b600182019050919050565b7f4e487b7100000000000000000000000000000000000000000000000000000000600052601160045260246000fd5b7f4e487b7100000000000000000000000000000000000000000000000000000000600052602160045260246000fd5b6000601f19601f8301169050919050565b7f496e73756666696369656e742042616c616e636520746f205472616e73666572600082015250565b7f54686520636f6e74726163742069732061637469766500000000000000000000600082015250565b7f54686520436f6e7472616374206973206e6f7420617661696c61626c65206e6f60008201527f77203a2800000000000000000000000000000000000000000000000000000000602082015250565b7f53656e64657220496e73756666696369656e742042616c616e636520746f205460008201527f72616e7366657200000000000000000000000000000000000000000000000000602082015250565b7f53656e646572206973206e6f74206f776e657221000000000000000000000000600082015250565b7f416c6c6f77656420496e73756666696369656e742042616c616e636520746f2060008201527f5472616e73666572000000000000000000000000000000000000000000000000602082015250565b6004811061245b5761245a6122a2565b5b50565b6124678161216b565b811461247257600080fd5b50565b61247e816121bc565b811461248957600080fd5b5056fea2646970667358221220cf241f89362d07d5e8d9fbdd135a528d73884ad120828dfe77cf6afe84c72fa964736f6c63430008040033",
  "linkReferences": {
    "contracts/libs.sol": {
      "Math": [
        {
          "length": 20,
          "start": 4377
        },
        {
          "length": 20,
          "start": 5061
        }
      ]
    }
  },
  "deployedLinkReferences": {
    "contracts/libs.sol": {
      "Math": [
        {
          "length": 20,
          "start": 3948
        },
        {
          "length": 20,
          "start": 4632
        }
      ]
    }
  }
}