{
  "_format": "hh-sol-artifact-1",
  "contractName": "CryptoToken",
  "sourceName": "contracts/token.sol",
  "abi": [
    {
      "inputs": [],
      "stateMutability": "nonpayable",
      "type": "constructor"
    },
    {
      "anonymous": false,
      "inputs": [
        {
          "indexed": false,
          "internalType": "address",
          "name": "owner",
          "type": "address"
        },
        {
          "indexed": false,
          "internalType": "address",
          "name": "spender",
          "type": "address"
        },
        {
          "indexed": false,
          "internalType": "uint256",
          "name": "value",
          "type": "uint256"
        }
      ],
      "name": "Approval",
      "type": "event"
    },
    {
      "anonymous": false,
      "inputs": [
        {
          "indexed": false,
          "internalType": "address",
          "name": "from",
          "type": "address"
        },
        {
          "indexed": false,
          "internalType": "address",
          "name": "to",
          "type": "address"
        },
        {
          "indexed": false,
          "internalType": "uint256",
          "name": "value",
          "type": "uint256"
        }
      ],
      "name": "Transfer",
      "type": "event"
    },
    {
      "inputs": [],
      "name": "activeContract",
      "outputs": [],
      "stateMutability": "nonpayable",
      "type": "function"
    },
    {
      "inputs": [
        {
          "internalType": "address",
          "name": "ownerToken",
          "type": "address"
        },
        {
          "internalType": "address",
          "name": "spender",
          "type": "address"
        }
      ],
      "name": "allowence",
      "outputs": [
        {
          "internalType": "uint256",
          "name": "",
          "type": "uint256"
        }
      ],
      "stateMutability": "view",
      "type": "function"
    },
    {
      "inputs": [
        {
          "internalType": "address",
          "name": "spender",
          "type": "address"
        },
        {
          "internalType": "uint256",
          "name": "numTokens",
          "type": "uint256"
        }
      ],
      "name": "approve",
      "outputs": [
        {
          "internalType": "bool",
          "name": "",
          "type": "bool"
        }
      ],
      "stateMutability": "nonpayable",
      "type": "function"
    },
    {
      "inputs": [
        {
          "internalType": "uint256",
          "name": "value",
          "type": "uint256"
        }
      ],
      "name": "autoBurn",
      "outputs": [],
      "stateMutability": "nonpayable",
      "type": "function"
    },
    {
      "inputs": [
        {
          "internalType": "address",
          "name": "tokenOwner",
          "type": "address"
        }
      ],
      "name": "balanceOf",
      "outputs": [
        {
          "internalType": "uint256",
          "name": "",
          "type": "uint256"
        }
      ],
      "stateMutability": "view",
      "type": "function"
    },
    {
      "inputs": [
        {
          "internalType": "uint256",
          "name": "value",
          "type": "uint256"
        }
      ],
      "name": "burn",
      "outputs": [
        {
          "internalType": "bool",
          "name": "",
          "type": "bool"
        }
      ],
      "stateMutability": "nonpayable",
      "type": "function"
    },
    {
      "inputs": [],
      "name": "cancelContract",
      "outputs": [],
      "stateMutability": "nonpayable",
      "type": "function"
    },
    {
      "inputs": [],
      "name": "decimals",
      "outputs": [
        {
          "internalType": "uint8",
          "name": "",
          "type": "uint8"
        }
      ],
      "stateMutability": "view",
      "type": "function"
    },
    {
      "inputs": [],
      "name": "getOwner",
      "outputs": [
        {
          "internalType": "address",
          "name": "",
          "type": "address"
        }
      ],
      "stateMutability": "view",
      "type": "function"
    },
    {
      "inputs": [],
      "name": "kill",
      "outputs": [],
      "stateMutability": "nonpayable",
      "type": "function"
    },
    {
      "inputs": [],
      "name": "mintToken",
      "outputs": [],
      "stateMutability": "nonpayable",
      "type": "function"
    },
    {
      "inputs": [],
      "name": "name",
      "outputs": [
        {
          "internalType": "string",
          "name": "",
          "type": "string"
        }
      ],
      "stateMutability": "view",
      "type": "function"
    },
    {
      "inputs": [],
      "name": "pauseContract",
      "outputs": [],
      "stateMutability": "nonpayable",
      "type": "function"
    },
    {
      "inputs": [],
      "name": "state",
      "outputs": [
        {
          "internalType": "enum CryptoToken.Status",
          "name": "",
          "type": "uint8"
        }
      ],
      "stateMutability": "view",
      "type": "function"
    },
    {
      "inputs": [],
      "name": "symbol",
      "outputs": [
        {
          "internalType": "string",
          "name": "",
          "type": "string"
        }
      ],
      "stateMutability": "view",
      "type": "function"
    },
    {
      "inputs": [],
      "name": "totalSupply",
      "outputs": [
        {
          "internalType": "uint256",
          "name": "",
          "type": "uint256"
        }
      ],
      "stateMutability": "view",
      "type": "function"
    },
    {
      "inputs": [
        {
          "internalType": "address",
          "name": "receiver",
          "type": "address"
        },
        {
          "internalType": "uint256",
          "name": "quantity",
          "type": "uint256"
        }
      ],
      "name": "transfer",
      "outputs": [
        {
          "internalType": "bool",
          "name": "",
          "type": "bool"
        }
      ],
      "stateMutability": "nonpayable",
      "type": "function"
    },
    {
      "inputs": [
        {
          "internalType": "address",
          "name": "from",
          "type": "address"
        },
        {
          "internalType": "address",
          "name": "to",
          "type": "address"
        },
        {
          "internalType": "uint256",
          "name": "amount",
          "type": "uint256"
        }
      ],
      "name": "transferFrom",
      "outputs": [
        {
          "internalType": "bool",
          "name": "",
          "type": "bool"
        }
      ],
      "stateMutability": "nonpayable",
      "type": "function"
    }
  ],
  "bytecode": "0x608060405234801561001057600080fd5b5060006103e890508060008190555033600260006101000a81548173ffffffffffffffffffffffffffffffffffffffff021916908373ffffffffffffffffffffffffffffffffffffffff16021790555060005460056000600260009054906101000a900473ffffffffffffffffffffffffffffffffffffffff1673ffffffffffffffffffffffffffffffffffffffff1673ffffffffffffffffffffffffffffffffffffffff168152602001908152602001600020819055506003600260009054906101000a900473ffffffffffffffffffffffffffffffffffffffff169080600181540180825580915050600190039060005260206000200160009091909190916101000a81548173ffffffffffffffffffffffffffffffffffffffff021916908373ffffffffffffffffffffffffffffffffffffffff1602179055506000600460146101000a81548160ff02191690836003811115610199577f4e487b7100000000000000000000000000000000000000000000000000000000600052602160045260246000fd5b0217905550506125c3806101ae6000396000f3fe608060405234801561001057600080fd5b50600436106101165760003560e01c8063439766ce116100a257806395d89b411161007157806395d89b4114610297578063a77a8230146102b5578063a9059cbb146102e5578063c19d93fb14610315578063de4a03861461033357610116565b8063439766ce1461022357806370a082311461022d5780637c70885e1461025d578063893d20e81461027957610116565b806323b872dd116100e957806323b872dd146101915780632b68bb2d146101c1578063313ce567146101cb57806341c0e1b5146101e957806342966c68146101f357610116565b806306fdde031461011b578063095ea7b31461013957806318160ddd146101695780632004ffd914610187575b600080fd5b61012361033d565b6040516101309190612085565b60405180910390f35b610153600480360381019061014e9190611dc4565b610376565b604051610160919061204f565b60405180910390f35b6101716104ce565b60405161017e9190612167565b60405180910390f35b61018f610599565b005b6101ab60048036038101906101a69190611d75565b61083b565b6040516101b8919061204f565b60405180910390f35b6101c9610b03565b005b6101d3610be6565b6040516101e091906121ab565b60405180910390f35b6101f1610beb565b005b61020d60048036038101906102089190611e00565b610dc9565b60405161021a919061204f565b60405180910390f35b61022b61136b565b005b61024760048036038101906102429190611d10565b61144e565b6040516102549190612167565b60405180910390f35b61027760048036038101906102729190611e00565b611558565b005b6102816116c0565b60405161028e9190611fc6565b60405180910390f35b61029f6116ea565b6040516102ac9190612085565b60405180910390f35b6102cf60048036038101906102ca9190611d39565b611723565b6040516102dc9190612167565b60405180910390f35b6102ff60048036038101906102fa9190611dc4565b6117aa565b60405161030c919061204f565b60405180910390f35b61031d611bd7565b60405161032a919061206a565b60405180910390f35b61033b611bee565b005b6040518060400160405280600b81526020017f43727970746f546f6b656e00000000000000000000000000000000000000000081525081565b6000600260009054906101000a900473ffffffffffffffffffffffffffffffffffffffff1673ffffffffffffffffffffffffffffffffffffffff163373ffffffffffffffffffffffffffffffffffffffff1614610408576040517f08c379a00000000000000000000000000000000000000000000000000000000081526004016103ff90612127565b60405180910390fd5b81600660003373ffffffffffffffffffffffffffffffffffffffff1673ffffffffffffffffffffffffffffffffffffffff16815260200190815260200160002060008573ffffffffffffffffffffffffffffffffffffffff1673ffffffffffffffffffffffffffffffffffffffff168152602001908152602001600020819055507f8c5be1e5ebec7d5bd14f71427d1e84f3dd0314c0f7b2291e5b200ac8c7c3b9253384846040516104bc93929190612018565b60405180910390a16001905092915050565b6000806003811115610509577f4e487b7100000000000000000000000000000000000000000000000000000000600052602160045260246000fd5b600460149054906101000a900460ff166003811115610551577f4e487b7100000000000000000000000000000000000000000000000000000000600052602160045260246000fd5b14610591576040517f08c379a0000000000000000000000000000000000000000000000000000000008152600401610588906120e7565b60405180910390fd5b600054905090565b600260009054906101000a900473ffffffffffffffffffffffffffffffffffffffff1673ffffffffffffffffffffffffffffffffffffffff163373ffffffffffffffffffffffffffffffffffffffff1614610629576040517f08c379a000000000000000000000000000000000000000000000000000000000815260040161062090612127565b60405180910390fd5b60006003811115610663577f4e487b7100000000000000000000000000000000000000000000000000000000600052602160045260246000fd5b600460149054906101000a900460ff1660038111156106ab577f4e487b7100000000000000000000000000000000000000000000000000000000600052602160045260246000fd5b146106eb576040517f08c379a00000000000000000000000000000000000000000000000000000000081526004016106e2906120e7565b60405180910390fd5b60006103e890506103e9610720600260009054906101000a900473ffffffffffffffffffffffffffffffffffffffff1661144e565b1015610838578060008082825461073791906121e2565b925050819055508060056000600260009054906101000a900473ffffffffffffffffffffffffffffffffffffffff1673ffffffffffffffffffffffffffffffffffffffff1673ffffffffffffffffffffffffffffffffffffffff16815260200190815260200160002060008282546107af91906121e2565b925050819055507fddf252ad1be2c89b69c2b068fc378daa952ba7f163c4a11628f55a4df523b3ef600260009054906101000a900473ffffffffffffffffffffffffffffffffffffffff16600260009054906101000a900473ffffffffffffffffffffffffffffffffffffffff166103e860405161082f93929190611fe1565b60405180910390a15b50565b6000600560008573ffffffffffffffffffffffffffffffffffffffff1673ffffffffffffffffffffffffffffffffffffffff168152602001908152602001600020548211156108bf576040517f08c379a00000000000000000000000000000000000000000000000000000000081526004016108b690612107565b60405180910390fd5b600660008573ffffffffffffffffffffffffffffffffffffffff1673ffffffffffffffffffffffffffffffffffffffff16815260200190815260200160002060003373ffffffffffffffffffffffffffffffffffffffff1673ffffffffffffffffffffffffffffffffffffffff1681526020019081526020016000205482111561097e576040517f08c379a000000000000000000000000000000000000000000000000000000000815260040161097590612147565b60405180910390fd5b81600560008673ffffffffffffffffffffffffffffffffffffffff1673ffffffffffffffffffffffffffffffffffffffff16815260200190815260200160002060008282546109cd9190612238565b9250508190555081600660008673ffffffffffffffffffffffffffffffffffffffff1673ffffffffffffffffffffffffffffffffffffffff16815260200190815260200160002060003373ffffffffffffffffffffffffffffffffffffffff1673ffffffffffffffffffffffffffffffffffffffff1681526020019081526020016000206000828254610a609190612238565b9250508190555081600560008573ffffffffffffffffffffffffffffffffffffffff1673ffffffffffffffffffffffffffffffffffffffff1681526020019081526020016000206000828254610ab691906121e2565b925050819055507fddf252ad1be2c89b69c2b068fc378daa952ba7f163c4a11628f55a4df523b3ef848484604051610af093929190612018565b60405180910390a1600190509392505050565b600260009054906101000a900473ffffffffffffffffffffffffffffffffffffffff1673ffffffffffffffffffffffffffffffffffffffff163373ffffffffffffffffffffffffffffffffffffffff1614610b93576040517f08c379a0000000000000000000000000000000000000000000000000000000008152600401610b8a90612127565b60405180910390fd5b6002600460146101000a81548160ff02191690836003811115610bdf577f4e487b7100000000000000000000000000000000000000000000000000000000600052602160045260246000fd5b0217905550565b600381565b600260009054906101000a900473ffffffffffffffffffffffffffffffffffffffff1673ffffffffffffffffffffffffffffffffffffffff163373ffffffffffffffffffffffffffffffffffffffff1614610c7b576040517f08c379a0000000000000000000000000000000000000000000000000000000008152600401610c7290612127565b60405180910390fd5b60026003811115610cb5577f4e487b7100000000000000000000000000000000000000000000000000000000600052602160045260246000fd5b600460149054906101000a900460ff166003811115610cfd577f4e487b7100000000000000000000000000000000000000000000000000000000600052602160045260246000fd5b14610d3d576040517f08c379a0000000000000000000000000000000000000000000000000000000008152600401610d34906120c7565b60405180910390fd5b6003600460146101000a81548160ff02191690836003811115610d89577f4e487b7100000000000000000000000000000000000000000000000000000000600052602160045260246000fd5b0217905550600260009054906101000a900473ffffffffffffffffffffffffffffffffffffffff1673ffffffffffffffffffffffffffffffffffffffff16ff5b6000600260009054906101000a900473ffffffffffffffffffffffffffffffffffffffff1673ffffffffffffffffffffffffffffffffffffffff163373ffffffffffffffffffffffffffffffffffffffff1614610e5b576040517f08c379a0000000000000000000000000000000000000000000000000000000008152600401610e5290612127565b60405180910390fd5b60006003811115610e95577f4e487b7100000000000000000000000000000000000000000000000000000000600052602160045260246000fd5b600460149054906101000a900460ff166003811115610edd577f4e487b7100000000000000000000000000000000000000000000000000000000600052602160045260246000fd5b14610f1d576040517f08c379a0000000000000000000000000000000000000000000000000000000008152600401610f14906120e7565b60405180910390fd5b73f000000000000000000000000000000000000000600460006101000a81548173ffffffffffffffffffffffffffffffffffffffff021916908373ffffffffffffffffffffffffffffffffffffffff16021790555060005b6003805490508110156112ce576005600060038381548110610fc0577f4e487b7100000000000000000000000000000000000000000000000000000000600052603260045260246000fd5b9060005260206000200160009054906101000a900473ffffffffffffffffffffffffffffffffffffffff1673ffffffffffffffffffffffffffffffffffffffff1673ffffffffffffffffffffffffffffffffffffffff1681526020019081526020016000205473__$8af750303d7f290c4ae9ad683e018644cd$__6342318e3d9091856040518363ffffffff1660e01b8152600401611060929190612182565b60206040518083038186803b15801561107857600080fd5b505af415801561108c573d6000803e3d6000fd5b505050506040513d601f19601f820116820180604052508101906110b09190611e29565b60056000600384815481106110ee577f4e487b7100000000000000000000000000000000000000000000000000000000600052603260045260246000fd5b9060005260206000200160009054906101000a900473ffffffffffffffffffffffffffffffffffffffff1673ffffffffffffffffffffffffffffffffffffffff1673ffffffffffffffffffffffffffffffffffffffff168152602001908152602001600020819055507fddf252ad1be2c89b69c2b068fc378daa952ba7f163c4a11628f55a4df523b3ef600382815481106111b2577f4e487b7100000000000000000000000000000000000000000000000000000000600052603260045260246000fd5b9060005260206000200160009054906101000a900473ffffffffffffffffffffffffffffffffffffffff16600460009054906101000a900473ffffffffffffffffffffffffffffffffffffffff16600560006003868154811061123e577f4e487b7100000000000000000000000000000000000000000000000000000000600052603260045260246000fd5b9060005260206000200160009054906101000a900473ffffffffffffffffffffffffffffffffffffffff1673ffffffffffffffffffffffffffffffffffffffff1673ffffffffffffffffffffffffffffffffffffffff168152602001908152602001600020546040516112b393929190612018565b60405180910390a180806112c69061232b565b915050610f75565b5060005473__$8af750303d7f290c4ae9ad683e018644cd$__6342318e3d9091846040518363ffffffff1660e01b815260040161130c929190612182565b60206040518083038186803b15801561132457600080fd5b505af4158015611338573d6000803e3d6000fd5b505050506040513d601f19601f8201168201806040525081019061135c9190611e29565b60008190555060019050919050565b600260009054906101000a900473ffffffffffffffffffffffffffffffffffffffff1673ffffffffffffffffffffffffffffffffffffffff163373ffffffffffffffffffffffffffffffffffffffff16146113fb576040517f08c379a00000000000000000000000000000000000000000000000000000000081526004016113f290612127565b60405180910390fd5b6001600460146101000a81548160ff02191690836003811115611447577f4e487b7100000000000000000000000000000000000000000000000000000000600052602160045260246000fd5b0217905550565b6000806003811115611489577f4e487b7100000000000000000000000000000000000000000000000000000000600052602160045260246000fd5b600460149054906101000a900460ff1660038111156114d1577f4e487b7100000000000000000000000000000000000000000000000000000000600052602160045260246000fd5b14611511576040517f08c379a0000000000000000000000000000000000000000000000000000000008152600401611508906120e7565b60405180910390fd5b600560008373ffffffffffffffffffffffffffffffffffffffff1673ffffffffffffffffffffffffffffffffffffffff168152602001908152602001600020549050919050565b600260009054906101000a900473ffffffffffffffffffffffffffffffffffffffff1673ffffffffffffffffffffffffffffffffffffffff163373ffffffffffffffffffffffffffffffffffffffff16146115e8576040517f08c379a00000000000000000000000000000000000000000000000000000000081526004016115df90612127565b60405180910390fd5b60006003811115611622577f4e487b7100000000000000000000000000000000000000000000000000000000600052602160045260246000fd5b600460149054906101000a900460ff16600381111561166a577f4e487b7100000000000000000000000000000000000000000000000000000000600052602160045260246000fd5b146116aa576040517f08c379a00000000000000000000000000000000000000000000000000000000081526004016116a1906120e7565b60405180910390fd5b806001819055506116bc600154610dc9565b5050565b6000600260009054906101000a900473ffffffffffffffffffffffffffffffffffffffff16905090565b6040518060400160405280600381526020017f435259000000000000000000000000000000000000000000000000000000000081525081565b6000600660008473ffffffffffffffffffffffffffffffffffffffff1673ffffffffffffffffffffffffffffffffffffffff16815260200190815260200160002060008373ffffffffffffffffffffffffffffffffffffffff1673ffffffffffffffffffffffffffffffffffffffff16815260200190815260200160002054905092915050565b6000600260009054906101000a900473ffffffffffffffffffffffffffffffffffffffff1673ffffffffffffffffffffffffffffffffffffffff163373ffffffffffffffffffffffffffffffffffffffff161461183c576040517f08c379a000000000000000000000000000000000000000000000000000000000815260040161183390612127565b60405180910390fd5b60006003811115611876577f4e487b7100000000000000000000000000000000000000000000000000000000600052602160045260246000fd5b600460149054906101000a900460ff1660038111156118be577f4e487b7100000000000000000000000000000000000000000000000000000000600052602160045260246000fd5b146118fe576040517f08c379a00000000000000000000000000000000000000000000000000000000081526004016118f5906120e7565b60405180910390fd5b60056000600260009054906101000a900473ffffffffffffffffffffffffffffffffffffffff1673ffffffffffffffffffffffffffffffffffffffff1673ffffffffffffffffffffffffffffffffffffffff168152602001908152602001600020548211156119a2576040517f08c379a0000000000000000000000000000000000000000000000000000000008152600401611999906120a7565b60405180910390fd5b8160056000600260009054906101000a900473ffffffffffffffffffffffffffffffffffffffff1673ffffffffffffffffffffffffffffffffffffffff1673ffffffffffffffffffffffffffffffffffffffff16815260200190815260200160002054611a0f9190612238565b60056000600260009054906101000a900473ffffffffffffffffffffffffffffffffffffffff1673ffffffffffffffffffffffffffffffffffffffff1673ffffffffffffffffffffffffffffffffffffffff1681526020019081526020016000208190555081600560008573ffffffffffffffffffffffffffffffffffffffff1673ffffffffffffffffffffffffffffffffffffffff16815260200190815260200160002054611abf91906121e2565b600560008573ffffffffffffffffffffffffffffffffffffffff1673ffffffffffffffffffffffffffffffffffffffff168152602001908152602001600020819055506003839080600181540180825580915050600190039060005260206000200160009091909190916101000a81548173ffffffffffffffffffffffffffffffffffffffff021916908373ffffffffffffffffffffffffffffffffffffffff160217905550611b70600154611558565b7fddf252ad1be2c89b69c2b068fc378daa952ba7f163c4a11628f55a4df523b3ef600260009054906101000a900473ffffffffffffffffffffffffffffffffffffffff168484604051611bc593929190612018565b60405180910390a16001905092915050565b6000600460149054906101000a900460ff16905090565b600260009054906101000a900473ffffffffffffffffffffffffffffffffffffffff1673ffffffffffffffffffffffffffffffffffffffff163373ffffffffffffffffffffffffffffffffffffffff1614611c7e576040517f08c379a0000000000000000000000000000000000000000000000000000000008152600401611c7590612127565b60405180910390fd5b6000600460146101000a81548160ff02191690836003811115611cca577f4e487b7100000000000000000000000000000000000000000000000000000000600052602160045260246000fd5b0217905550565b600081359050611ce08161255f565b92915050565b600081359050611cf581612576565b92915050565b600081519050611d0a81612576565b92915050565b600060208284031215611d2257600080fd5b6000611d3084828501611cd1565b91505092915050565b60008060408385031215611d4c57600080fd5b6000611d5a85828601611cd1565b9250506020611d6b85828601611cd1565b9150509250929050565b600080600060608486031215611d8a57600080fd5b6000611d9886828701611cd1565b9350506020611da986828701611cd1565b9250506040611dba86828701611ce6565b9150509250925092565b60008060408385031215611dd757600080fd5b6000611de585828601611cd1565b9250506020611df685828601611ce6565b9150509250929050565b600060208284031215611e1257600080fd5b6000611e2084828501611ce6565b91505092915050565b600060208284031215611e3b57600080fd5b6000611e4984828501611cfb565b91505092915050565b611e5b8161226c565b82525050565b611e6a8161227e565b82525050565b611e79816122d4565b82525050565b611e88816122e6565b82525050565b6000611e99826121c6565b611ea381856121d1565b9350611eb38185602086016122f8565b611ebc816123d2565b840191505092915050565b6000611ed46020836121d1565b9150611edf826123e3565b602082019050919050565b6000611ef76016836121d1565b9150611f028261240c565b602082019050919050565b6000611f1a6024836121d1565b9150611f2582612435565b604082019050919050565b6000611f3d6027836121d1565b9150611f4882612484565b604082019050919050565b6000611f606014836121d1565b9150611f6b826124d3565b602082019050919050565b6000611f836028836121d1565b9150611f8e826124fc565b604082019050919050565b611fa2816122bd565b82525050565b611fb1816122bd565b82525050565b611fc0816122c7565b82525050565b6000602082019050611fdb6000830184611e52565b92915050565b6000606082019050611ff66000830186611e52565b6120036020830185611e52565b6120106040830184611e7f565b949350505050565b600060608201905061202d6000830186611e52565b61203a6020830185611e52565b6120476040830184611f99565b949350505050565b60006020820190506120646000830184611e61565b92915050565b600060208201905061207f6000830184611e70565b92915050565b6000602082019050818103600083015261209f8184611e8e565b905092915050565b600060208201905081810360008301526120c081611ec7565b9050919050565b600060208201905081810360008301526120e081611eea565b9050919050565b6000602082019050818103600083015261210081611f0d565b9050919050565b6000602082019050818103600083015261212081611f30565b9050919050565b6000602082019050818103600083015261214081611f53565b9050919050565b6000602082019050818103600083015261216081611f76565b9050919050565b600060208201905061217c6000830184611f99565b92915050565b60006040820190506121976000830185611fa8565b6121a46020830184611fa8565b9392505050565b60006020820190506121c06000830184611fb7565b92915050565b600081519050919050565b600082825260208201905092915050565b60006121ed826122bd565b91506121f8836122bd565b9250827fffffffffffffffffffffffffffffffffffffffffffffffffffffffffffffffff0382111561222d5761222c612374565b5b828201905092915050565b6000612243826122bd565b915061224e836122bd565b92508282101561226157612260612374565b5b828203905092915050565b60006122778261229d565b9050919050565b60008115159050919050565b60008190506122988261254b565b919050565b600073ffffffffffffffffffffffffffffffffffffffff82169050919050565b6000819050919050565b600060ff82169050919050565b60006122df8261228a565b9050919050565b60006122f1826122bd565b9050919050565b60005b838110156123165780820151818401526020810190506122fb565b83811115612325576000848401525b50505050565b6000612336826122bd565b91507fffffffffffffffffffffffffffffffffffffffffffffffffffffffffffffffff82141561236957612368612374565b5b600182019050919050565b7f4e487b7100000000000000000000000000000000000000000000000000000000600052601160045260246000fd5b7f4e487b7100000000000000000000000000000000000000000000000000000000600052602160045260246000fd5b6000601f19601f8301169050919050565b7f496e73756666696369656e742042616c616e636520746f205472616e73666572600082015250565b7f54686520636f6e74726163742069732061637469766500000000000000000000600082015250565b7f54686520436f6e7472616374206973206e6f7420617661696c61626c65206e6f60008201527f77203a2800000000000000000000000000000000000000000000000000000000602082015250565b7f53656e64657220496e73756666696369656e742042616c616e636520746f205460008201527f72616e7366657200000000000000000000000000000000000000000000000000602082015250565b7f53656e646572206973206e6f74206f776e657221000000000000000000000000600082015250565b7f416c6c6f77656420496e73756666696369656e742042616c616e636520746f2060008201527f5472616e73666572000000000000000000000000000000000000000000000000602082015250565b6004811061255c5761255b6123a3565b5b50565b6125688161226c565b811461257357600080fd5b50565b61257f816122bd565b811461258a57600080fd5b5056fea2646970667358221220d7e07143911520a935fb2f17680d403d7881ac6c5ba60c480aa36bf0333f31ec64736f6c63430008040033",
  "linkReferences": {
    "contracts/libs.sol": {
      "Math": [
        {
          "length": 20,
          "start": 4566
        },
        {
          "length": 20,
          "start": 5250
        }
      ]
    }
  },
  "deployedLinkReferences": {
    "contracts/libs.sol": {
      "Math": [
        {
          "length": 20,
          "start": 4136
        },
        {
          "length": 20,
          "start": 4820
        }
      ]
    }
  }
}